{
	"contracts/AdressContract.sol": {
		"AddressContract": {
			"abi": [
				{
					"inputs": [],
					"name": "getCallerAddress",
					"outputs": [
						{
							"internalType": "address",
							"name": "",
							"type": "address"
						}
					],
					"stateMutability": "view",
					"type": "function"
				},
				{
					"inputs": [],
					"name": "receivedEther",
					"outputs": [],
					"stateMutability": "payable",
					"type": "function"
				},
				{
					"inputs": [
						{
							"internalType": "address payable",
							"name": "_address",
							"type": "address"
						},
						{
							"internalType": "uint256",
							"name": "nominal",
							"type": "uint256"
						}
					],
					"name": "sendFund",
					"outputs": [
						{
							"internalType": "bool",
							"name": "",
							"type": "bool"
						}
					],
					"stateMutability": "nonpayable",
					"type": "function"
				},
				{
					"inputs": [
						{
							"internalType": "address payable",
							"name": "_address",
							"type": "address"
						},
						{
							"internalType": "uint256",
							"name": "nominal",
							"type": "uint256"
						}
					],
					"name": "transferFund",
					"outputs": [],
					"stateMutability": "nonpayable",
					"type": "function"
				}
			],
			"devdoc": {
				"kind": "dev",
				"methods": {},
				"version": 1
			},
			"evm": {
				"assembly": "    /* \"contracts/AdressContract.sol\":91:1766  contract AddressContract{... */\n  mstore(0x40, 0x80)\n  callvalue\n  dup1\n  iszero\n  tag_1\n  jumpi\n  revert(0x00, 0x00)\ntag_1:\n  pop\n  dataSize(sub_0)\n  dup1\n  dataOffset(sub_0)\n  0x00\n  codecopy\n  0x00\n  return\nstop\n\nsub_0: assembly {\n        /* \"contracts/AdressContract.sol\":91:1766  contract AddressContract{... */\n      mstore(0x40, 0x80)\n      jumpi(tag_1, lt(calldatasize, 0x04))\n      shr(0xe0, calldataload(0x00))\n      dup1\n      0x46b3353b\n      eq\n      tag_2\n      jumpi\n      dup1\n      0x4b569450\n      eq\n      tag_3\n      jumpi\n      dup1\n      0xcd53e455\n      eq\n      tag_4\n      jumpi\n      dup1\n      0xe2dc35e0\n      eq\n      tag_5\n      jumpi\n    tag_1:\n      revert(0x00, 0x00)\n        /* \"contracts/AdressContract.sol\":983:1119  function getCallerAddress() public view returns (address){... */\n    tag_2:\n      callvalue\n      dup1\n      iszero\n      tag_6\n      jumpi\n      revert(0x00, 0x00)\n    tag_6:\n      pop\n      tag_7\n      tag_8\n      jump\t// in\n    tag_7:\n      mload(0x40)\n      tag_9\n      swap2\n      swap1\n      tag_10\n      jump\t// in\n    tag_9:\n      mload(0x40)\n      dup1\n      swap2\n      sub\n      swap1\n      return\n        /* \"contracts/AdressContract.sol\":1644:1763  function sendFund(address payable _address, uint nominal) public returns(bool){... */\n    tag_3:\n      callvalue\n      dup1\n      iszero\n      tag_11\n      jumpi\n      revert(0x00, 0x00)\n    tag_11:\n      pop\n      tag_12\n      0x04\n      dup1\n      calldatasize\n      sub\n      dup2\n      add\n      swap1\n      tag_13\n      swap2\n      swap1\n      tag_14\n      jump\t// in\n    tag_13:\n      tag_15\n      jump\t// in\n    tag_12:\n      mload(0x40)\n      tag_16\n      swap2\n      swap1\n      tag_17\n      jump\t// in\n    tag_16:\n      mload(0x40)\n      dup1\n      swap2\n      sub\n      swap1\n      return\n        /* \"contracts/AdressContract.sol\":1268:1352  function receivedEther() payable public{... */\n    tag_4:\n      tag_18\n      tag_19\n      jump\t// in\n    tag_18:\n      stop\n        /* \"contracts/AdressContract.sol\":1385:1580  function transferFund(address payable _address, uint nominal) public{... */\n    tag_5:\n      callvalue\n      dup1\n      iszero\n      tag_20\n      jumpi\n      revert(0x00, 0x00)\n    tag_20:\n      pop\n      tag_21\n      0x04\n      dup1\n      calldatasize\n      sub\n      dup2\n      add\n      swap1\n      tag_22\n      swap2\n      swap1\n      tag_14\n      jump\t// in\n    tag_22:\n      tag_23\n      jump\t// in\n    tag_21:\n      stop\n        /* \"contracts/AdressContract.sol\":983:1119  function getCallerAddress() public view returns (address){... */\n    tag_8:\n        /* \"contracts/AdressContract.sol\":1032:1039  address */\n      0x00\n        /* \"contracts/AdressContract.sol\":1051:1068  address myAddress */\n      0x00\n        /* \"contracts/AdressContract.sol\":1079:1083  this */\n      address\n        /* \"contracts/AdressContract.sol\":1051:1084  address myAddress = address(this) */\n      swap1\n      pop\n        /* \"contracts/AdressContract.sol\":1102:1111  myAddress */\n      dup1\n        /* \"contracts/AdressContract.sol\":1095:1111  return myAddress */\n      swap2\n      pop\n      pop\n        /* \"contracts/AdressContract.sol\":983:1119  function getCallerAddress() public view returns (address){... */\n      swap1\n      jump\t// out\n        /* \"contracts/AdressContract.sol\":1644:1763  function sendFund(address payable _address, uint nominal) public returns(bool){... */\n    tag_15:\n        /* \"contracts/AdressContract.sol\":1717:1721  bool */\n      0x00\n        /* \"contracts/AdressContract.sol\":1733:1741  _address */\n      dup3\n        /* \"contracts/AdressContract.sol\":1733:1746  _address.send */\n      0xffffffffffffffffffffffffffffffffffffffff\n      and\n        /* \"contracts/AdressContract.sol\":1733:1755  _address.send(nominal) */\n      0x08fc\n        /* \"contracts/AdressContract.sol\":1747:1754  nominal */\n      dup4\n        /* \"contracts/AdressContract.sol\":1733:1755  _address.send(nominal) */\n      swap1\n      dup2\n      iszero\n      mul\n      swap1\n      mload(0x40)\n      0x00\n      mload(0x40)\n      dup1\n      dup4\n      sub\n      dup2\n      dup6\n      dup9\n      dup9\n      call\n      swap4\n      pop\n      pop\n      pop\n      pop\n      pop\n        /* \"contracts/AdressContract.sol\":1644:1763  function sendFund(address payable _address, uint nominal) public returns(bool){... */\n      swap3\n      swap2\n      pop\n      pop\n      jump\t// out\n        /* \"contracts/AdressContract.sol\":1268:1352  function receivedEther() payable public{... */\n    tag_19:\n        /* \"contracts/AdressContract.sol\":1335:1344  msg.value */\n      callvalue\n        /* \"contracts/AdressContract.sol\":1318:1332  receivedAmount */\n      0x00\n        /* \"contracts/AdressContract.sol\":1318:1344  receivedAmount = msg.value */\n      dup2\n      swap1\n      sstore\n      pop\n        /* \"contracts/AdressContract.sol\":1268:1352  function receivedEther() payable public{... */\n      jump\t// out\n        /* \"contracts/AdressContract.sol\":1385:1580  function transferFund(address payable _address, uint nominal) public{... */\n    tag_23:\n        /* \"contracts/AdressContract.sol\":1464:1472  _address */\n      dup2\n        /* \"contracts/AdressContract.sol\":1464:1481  _address.transfer */\n      0xffffffffffffffffffffffffffffffffffffffff\n      and\n        /* \"contracts/AdressContract.sol\":1464:1490  _address.transfer(nominal) */\n      0x08fc\n        /* \"contracts/AdressContract.sol\":1482:1489  nominal */\n      dup3\n        /* \"contracts/AdressContract.sol\":1464:1490  _address.transfer(nominal) */\n      swap1\n      dup2\n      iszero\n      mul\n      swap1\n      mload(0x40)\n      0x00\n      mload(0x40)\n      dup1\n      dup4\n      sub\n      dup2\n      dup6\n      dup9\n      dup9\n      call\n      swap4\n      pop\n      pop\n      pop\n      pop\n      iszero\n      dup1\n      iszero\n      tag_30\n      jumpi\n      returndatacopy(0x00, 0x00, returndatasize)\n      revert(0x00, returndatasize)\n    tag_30:\n      pop\n        /* \"contracts/AdressContract.sol\":1385:1580  function transferFund(address payable _address, uint nominal) public{... */\n      pop\n      pop\n      jump\t// out\n        /* \"#utility.yul\":7:133   */\n    tag_31:\n        /* \"#utility.yul\":44:51   */\n      0x00\n        /* \"#utility.yul\":84:126   */\n      0xffffffffffffffffffffffffffffffffffffffff\n        /* \"#utility.yul\":77:82   */\n      dup3\n        /* \"#utility.yul\":73:127   */\n      and\n        /* \"#utility.yul\":62:127   */\n      swap1\n      pop\n        /* \"#utility.yul\":7:133   */\n      swap2\n      swap1\n      pop\n      jump\t// out\n        /* \"#utility.yul\":139:235   */\n    tag_32:\n        /* \"#utility.yul\":176:183   */\n      0x00\n        /* \"#utility.yul\":205:229   */\n      tag_48\n        /* \"#utility.yul\":223:228   */\n      dup3\n        /* \"#utility.yul\":205:229   */\n      tag_31\n      jump\t// in\n    tag_48:\n        /* \"#utility.yul\":194:229   */\n      swap1\n      pop\n        /* \"#utility.yul\":139:235   */\n      swap2\n      swap1\n      pop\n      jump\t// out\n        /* \"#utility.yul\":241:359   */\n    tag_33:\n        /* \"#utility.yul\":328:352   */\n      tag_50\n        /* \"#utility.yul\":346:351   */\n      dup2\n        /* \"#utility.yul\":328:352   */\n      tag_32\n      jump\t// in\n    tag_50:\n        /* \"#utility.yul\":323:326   */\n      dup3\n        /* \"#utility.yul\":316:353   */\n      mstore\n        /* \"#utility.yul\":241:359   */\n      pop\n      pop\n      jump\t// out\n        /* \"#utility.yul\":365:587   */\n    tag_10:\n        /* \"#utility.yul\":458:462   */\n      0x00\n        /* \"#utility.yul\":496:498   */\n      0x20\n        /* \"#utility.yul\":485:494   */\n      dup3\n        /* \"#utility.yul\":481:499   */\n      add\n        /* \"#utility.yul\":473:499   */\n      swap1\n      pop\n        /* \"#utility.yul\":509:580   */\n      tag_52\n        /* \"#utility.yul\":577:578   */\n      0x00\n        /* \"#utility.yul\":566:575   */\n      dup4\n        /* \"#utility.yul\":562:579   */\n      add\n        /* \"#utility.yul\":553:559   */\n      dup5\n        /* \"#utility.yul\":509:580   */\n      tag_33\n      jump\t// in\n    tag_52:\n        /* \"#utility.yul\":365:587   */\n      swap3\n      swap2\n      pop\n      pop\n      jump\t// out\n        /* \"#utility.yul\":674:791   */\n    tag_35:\n        /* \"#utility.yul\":783:784   */\n      0x00\n        /* \"#utility.yul\":780:781   */\n      0x00\n        /* \"#utility.yul\":773:785   */\n      revert\n        /* \"#utility.yul\":920:1024   */\n    tag_37:\n        /* \"#utility.yul\":965:972   */\n      0x00\n        /* \"#utility.yul\":994:1018   */\n      tag_57\n        /* \"#utility.yul\":1012:1017   */\n      dup3\n        /* \"#utility.yul\":994:1018   */\n      tag_31\n      jump\t// in\n    tag_57:\n        /* \"#utility.yul\":983:1018   */\n      swap1\n      pop\n        /* \"#utility.yul\":920:1024   */\n      swap2\n      swap1\n      pop\n      jump\t// out\n        /* \"#utility.yul\":1030:1168   */\n    tag_38:\n        /* \"#utility.yul\":1111:1143   */\n      tag_59\n        /* \"#utility.yul\":1137:1142   */\n      dup2\n        /* \"#utility.yul\":1111:1143   */\n      tag_37\n      jump\t// in\n    tag_59:\n        /* \"#utility.yul\":1104:1109   */\n      dup2\n        /* \"#utility.yul\":1101:1144   */\n      eq\n        /* \"#utility.yul\":1091:1162   */\n      tag_60\n      jumpi\n        /* \"#utility.yul\":1158:1159   */\n      0x00\n        /* \"#utility.yul\":1155:1156   */\n      0x00\n        /* \"#utility.yul\":1148:1160   */\n      revert\n        /* \"#utility.yul\":1091:1162   */\n    tag_60:\n        /* \"#utility.yul\":1030:1168   */\n      pop\n      jump\t// out\n        /* \"#utility.yul\":1174:1329   */\n    tag_39:\n        /* \"#utility.yul\":1228:1233   */\n      0x00\n        /* \"#utility.yul\":1266:1272   */\n      dup2\n        /* \"#utility.yul\":1253:1273   */\n      calldataload\n        /* \"#utility.yul\":1244:1273   */\n      swap1\n      pop\n        /* \"#utility.yul\":1282:1323   */\n      tag_62\n        /* \"#utility.yul\":1317:1322   */\n      dup2\n        /* \"#utility.yul\":1282:1323   */\n      tag_38\n      jump\t// in\n    tag_62:\n        /* \"#utility.yul\":1174:1329   */\n      swap3\n      swap2\n      pop\n      pop\n      jump\t// out\n        /* \"#utility.yul\":1335:1412   */\n    tag_40:\n        /* \"#utility.yul\":1372:1379   */\n      0x00\n        /* \"#utility.yul\":1401:1406   */\n      dup2\n        /* \"#utility.yul\":1390:1406   */\n      swap1\n      pop\n        /* \"#utility.yul\":1335:1412   */\n      swap2\n      swap1\n      pop\n      jump\t// out\n        /* \"#utility.yul\":1418:1540   */\n    tag_41:\n        /* \"#utility.yul\":1491:1515   */\n      tag_65\n        /* \"#utility.yul\":1509:1514   */\n      dup2\n        /* \"#utility.yul\":1491:1515   */\n      tag_40\n      jump\t// in\n    tag_65:\n        /* \"#utility.yul\":1484:1489   */\n      dup2\n        /* \"#utility.yul\":1481:1516   */\n      eq\n        /* \"#utility.yul\":1471:1534   */\n      tag_66\n      jumpi\n        /* \"#utility.yul\":1530:1531   */\n      0x00\n        /* \"#utility.yul\":1527:1528   */\n      0x00\n        /* \"#utility.yul\":1520:1532   */\n      revert\n        /* \"#utility.yul\":1471:1534   */\n    tag_66:\n        /* \"#utility.yul\":1418:1540   */\n      pop\n      jump\t// out\n        /* \"#utility.yul\":1546:1685   */\n    tag_42:\n        /* \"#utility.yul\":1592:1597   */\n      0x00\n        /* \"#utility.yul\":1630:1636   */\n      dup2\n        /* \"#utility.yul\":1617:1637   */\n      calldataload\n        /* \"#utility.yul\":1608:1637   */\n      swap1\n      pop\n        /* \"#utility.yul\":1646:1679   */\n      tag_68\n        /* \"#utility.yul\":1673:1678   */\n      dup2\n        /* \"#utility.yul\":1646:1679   */\n      tag_41\n      jump\t// in\n    tag_68:\n        /* \"#utility.yul\":1546:1685   */\n      swap3\n      swap2\n      pop\n      pop\n      jump\t// out\n        /* \"#utility.yul\":1691:2181   */\n    tag_14:\n        /* \"#utility.yul\":1767:1773   */\n      0x00\n        /* \"#utility.yul\":1775:1781   */\n      0x00\n        /* \"#utility.yul\":1824:1826   */\n      0x40\n        /* \"#utility.yul\":1812:1821   */\n      dup4\n        /* \"#utility.yul\":1803:1810   */\n      dup6\n        /* \"#utility.yul\":1799:1822   */\n      sub\n        /* \"#utility.yul\":1795:1827   */\n      slt\n        /* \"#utility.yul\":1792:1911   */\n      iszero\n      tag_70\n      jumpi\n        /* \"#utility.yul\":1830:1909   */\n      tag_71\n      tag_35\n      jump\t// in\n    tag_71:\n        /* \"#utility.yul\":1792:1911   */\n    tag_70:\n        /* \"#utility.yul\":1950:1951   */\n      0x00\n        /* \"#utility.yul\":1975:2036   */\n      tag_72\n        /* \"#utility.yul\":2028:2035   */\n      dup6\n        /* \"#utility.yul\":2019:2025   */\n      dup3\n        /* \"#utility.yul\":2008:2017   */\n      dup7\n        /* \"#utility.yul\":2004:2026   */\n      add\n        /* \"#utility.yul\":1975:2036   */\n      tag_39\n      jump\t// in\n    tag_72:\n        /* \"#utility.yul\":1965:2036   */\n      swap3\n      pop\n        /* \"#utility.yul\":1921:2046   */\n      pop\n        /* \"#utility.yul\":2085:2087   */\n      0x20\n        /* \"#utility.yul\":2111:2164   */\n      tag_73\n        /* \"#utility.yul\":2156:2163   */\n      dup6\n        /* \"#utility.yul\":2147:2153   */\n      dup3\n        /* \"#utility.yul\":2136:2145   */\n      dup7\n        /* \"#utility.yul\":2132:2154   */\n      add\n        /* \"#utility.yul\":2111:2164   */\n      tag_42\n      jump\t// in\n    tag_73:\n        /* \"#utility.yul\":2101:2164   */\n      swap2\n      pop\n        /* \"#utility.yul\":2056:2174   */\n      pop\n        /* \"#utility.yul\":1691:2181   */\n      swap3\n      pop\n      swap3\n      swap1\n      pop\n      jump\t// out\n        /* \"#utility.yul\":2187:2277   */\n    tag_43:\n        /* \"#utility.yul\":2221:2228   */\n      0x00\n        /* \"#utility.yul\":2264:2269   */\n      dup2\n        /* \"#utility.yul\":2257:2270   */\n      iszero\n        /* \"#utility.yul\":2250:2271   */\n      iszero\n        /* \"#utility.yul\":2239:2271   */\n      swap1\n      pop\n        /* \"#utility.yul\":2187:2277   */\n      swap2\n      swap1\n      pop\n      jump\t// out\n        /* \"#utility.yul\":2283:2392   */\n    tag_44:\n        /* \"#utility.yul\":2364:2385   */\n      tag_76\n        /* \"#utility.yul\":2379:2384   */\n      dup2\n        /* \"#utility.yul\":2364:2385   */\n      tag_43\n      jump\t// in\n    tag_76:\n        /* \"#utility.yul\":2359:2362   */\n      dup3\n        /* \"#utility.yul\":2352:2386   */\n      mstore\n        /* \"#utility.yul\":2283:2392   */\n      pop\n      pop\n      jump\t// out\n        /* \"#utility.yul\":2398:2608   */\n    tag_17:\n        /* \"#utility.yul\":2485:2489   */\n      0x00\n        /* \"#utility.yul\":2523:2525   */\n      0x20\n        /* \"#utility.yul\":2512:2521   */\n      dup3\n        /* \"#utility.yul\":2508:2526   */\n      add\n        /* \"#utility.yul\":2500:2526   */\n      swap1\n      pop\n        /* \"#utility.yul\":2536:2601   */\n      tag_78\n        /* \"#utility.yul\":2598:2599   */\n      0x00\n        /* \"#utility.yul\":2587:2596   */\n      dup4\n        /* \"#utility.yul\":2583:2600   */\n      add\n        /* \"#utility.yul\":2574:2580   */\n      dup5\n        /* \"#utility.yul\":2536:2601   */\n      tag_44\n      jump\t// in\n    tag_78:\n        /* \"#utility.yul\":2398:2608   */\n      swap3\n      swap2\n      pop\n      pop\n      jump\t// out\n\n    auxdata: 0xa2646970667358221220c53155f16b9742f704dc4a3021ab980a6d5d8939956a670556e2cfb6e9ec13f464736f6c634300081e0033\n}\n",
				"bytecode": {
					"linkReferences": {},
					"object": "6080604052348015600e575f5ffd5b506102e38061001c5f395ff3fe60806040526004361061003e575f3560e01c806346b3353b146100425780634b5694501461006c578063cd53e455146100a8578063e2dc35e0146100b2575b5f5ffd5b34801561004d575f5ffd5b506100566100da565b60405161006391906101b1565b60405180910390f35b348015610077575f5ffd5b50610092600480360381019061008d919061023c565b6100e6565b60405161009f9190610294565b60405180910390f35b6100b0610122565b005b3480156100bd575f5ffd5b506100d860048036038101906100d3919061023c565b61012a565b005b5f5f3090508091505090565b5f8273ffffffffffffffffffffffffffffffffffffffff166108fc8390811502906040515f60405180830381858888f193505050505092915050565b345f81905550565b8173ffffffffffffffffffffffffffffffffffffffff166108fc8290811502906040515f60405180830381858888f1935050505015801561016d573d5f5f3e3d5ffd5b505050565b5f73ffffffffffffffffffffffffffffffffffffffff82169050919050565b5f61019b82610172565b9050919050565b6101ab81610191565b82525050565b5f6020820190506101c45f8301846101a2565b92915050565b5f5ffd5b5f6101d882610172565b9050919050565b6101e8816101ce565b81146101f2575f5ffd5b50565b5f81359050610203816101df565b92915050565b5f819050919050565b61021b81610209565b8114610225575f5ffd5b50565b5f8135905061023681610212565b92915050565b5f5f60408385031215610252576102516101ca565b5b5f61025f858286016101f5565b925050602061027085828601610228565b9150509250929050565b5f8115159050919050565b61028e8161027a565b82525050565b5f6020820190506102a75f830184610285565b9291505056fea2646970667358221220c53155f16b9742f704dc4a3021ab980a6d5d8939956a670556e2cfb6e9ec13f464736f6c634300081e0033",
					"opcodes": "PUSH1 0x80 PUSH1 0x40 MSTORE CALLVALUE DUP1 ISZERO PUSH1 0xE JUMPI PUSH0 PUSH0 REVERT JUMPDEST POP PUSH2 0x2E3 DUP1 PUSH2 0x1C PUSH0 CODECOPY PUSH0 RETURN INVALID PUSH1 0x80 PUSH1 0x40 MSTORE PUSH1 0x4 CALLDATASIZE LT PUSH2 0x3E JUMPI PUSH0 CALLDATALOAD PUSH1 0xE0 SHR DUP1 PUSH4 0x46B3353B EQ PUSH2 0x42 JUMPI DUP1 PUSH4 0x4B569450 EQ PUSH2 0x6C JUMPI DUP1 PUSH4 0xCD53E455 EQ PUSH2 0xA8 JUMPI DUP1 PUSH4 0xE2DC35E0 EQ PUSH2 0xB2 JUMPI JUMPDEST PUSH0 PUSH0 REVERT JUMPDEST CALLVALUE DUP1 ISZERO PUSH2 0x4D JUMPI PUSH0 PUSH0 REVERT JUMPDEST POP PUSH2 0x56 PUSH2 0xDA JUMP JUMPDEST PUSH1 0x40 MLOAD PUSH2 0x63 SWAP2 SWAP1 PUSH2 0x1B1 JUMP JUMPDEST PUSH1 0x40 MLOAD DUP1 SWAP2 SUB SWAP1 RETURN JUMPDEST CALLVALUE DUP1 ISZERO PUSH2 0x77 JUMPI PUSH0 PUSH0 REVERT JUMPDEST POP PUSH2 0x92 PUSH1 0x4 DUP1 CALLDATASIZE SUB DUP2 ADD SWAP1 PUSH2 0x8D SWAP2 SWAP1 PUSH2 0x23C JUMP JUMPDEST PUSH2 0xE6 JUMP JUMPDEST PUSH1 0x40 MLOAD PUSH2 0x9F SWAP2 SWAP1 PUSH2 0x294 JUMP JUMPDEST PUSH1 0x40 MLOAD DUP1 SWAP2 SUB SWAP1 RETURN JUMPDEST PUSH2 0xB0 PUSH2 0x122 JUMP JUMPDEST STOP JUMPDEST CALLVALUE DUP1 ISZERO PUSH2 0xBD JUMPI PUSH0 PUSH0 REVERT JUMPDEST POP PUSH2 0xD8 PUSH1 0x4 DUP1 CALLDATASIZE SUB DUP2 ADD SWAP1 PUSH2 0xD3 SWAP2 SWAP1 PUSH2 0x23C JUMP JUMPDEST PUSH2 0x12A JUMP JUMPDEST STOP JUMPDEST PUSH0 PUSH0 ADDRESS SWAP1 POP DUP1 SWAP2 POP POP SWAP1 JUMP JUMPDEST PUSH0 DUP3 PUSH20 0xFFFFFFFFFFFFFFFFFFFFFFFFFFFFFFFFFFFFFFFF AND PUSH2 0x8FC DUP4 SWAP1 DUP2 ISZERO MUL SWAP1 PUSH1 0x40 MLOAD PUSH0 PUSH1 0x40 MLOAD DUP1 DUP4 SUB DUP2 DUP6 DUP9 DUP9 CALL SWAP4 POP POP POP POP POP SWAP3 SWAP2 POP POP JUMP JUMPDEST CALLVALUE PUSH0 DUP2 SWAP1 SSTORE POP JUMP JUMPDEST DUP2 PUSH20 0xFFFFFFFFFFFFFFFFFFFFFFFFFFFFFFFFFFFFFFFF AND PUSH2 0x8FC DUP3 SWAP1 DUP2 ISZERO MUL SWAP1 PUSH1 0x40 MLOAD PUSH0 PUSH1 0x40 MLOAD DUP1 DUP4 SUB DUP2 DUP6 DUP9 DUP9 CALL SWAP4 POP POP POP POP ISZERO DUP1 ISZERO PUSH2 0x16D JUMPI RETURNDATASIZE PUSH0 PUSH0 RETURNDATACOPY RETURNDATASIZE PUSH0 REVERT JUMPDEST POP POP POP JUMP JUMPDEST PUSH0 PUSH20 0xFFFFFFFFFFFFFFFFFFFFFFFFFFFFFFFFFFFFFFFF DUP3 AND SWAP1 POP SWAP2 SWAP1 POP JUMP JUMPDEST PUSH0 PUSH2 0x19B DUP3 PUSH2 0x172 JUMP JUMPDEST SWAP1 POP SWAP2 SWAP1 POP JUMP JUMPDEST PUSH2 0x1AB DUP2 PUSH2 0x191 JUMP JUMPDEST DUP3 MSTORE POP POP JUMP JUMPDEST PUSH0 PUSH1 0x20 DUP3 ADD SWAP1 POP PUSH2 0x1C4 PUSH0 DUP4 ADD DUP5 PUSH2 0x1A2 JUMP JUMPDEST SWAP3 SWAP2 POP POP JUMP JUMPDEST PUSH0 PUSH0 REVERT JUMPDEST PUSH0 PUSH2 0x1D8 DUP3 PUSH2 0x172 JUMP JUMPDEST SWAP1 POP SWAP2 SWAP1 POP JUMP JUMPDEST PUSH2 0x1E8 DUP2 PUSH2 0x1CE JUMP JUMPDEST DUP2 EQ PUSH2 0x1F2 JUMPI PUSH0 PUSH0 REVERT JUMPDEST POP JUMP JUMPDEST PUSH0 DUP2 CALLDATALOAD SWAP1 POP PUSH2 0x203 DUP2 PUSH2 0x1DF JUMP JUMPDEST SWAP3 SWAP2 POP POP JUMP JUMPDEST PUSH0 DUP2 SWAP1 POP SWAP2 SWAP1 POP JUMP JUMPDEST PUSH2 0x21B DUP2 PUSH2 0x209 JUMP JUMPDEST DUP2 EQ PUSH2 0x225 JUMPI PUSH0 PUSH0 REVERT JUMPDEST POP JUMP JUMPDEST PUSH0 DUP2 CALLDATALOAD SWAP1 POP PUSH2 0x236 DUP2 PUSH2 0x212 JUMP JUMPDEST SWAP3 SWAP2 POP POP JUMP JUMPDEST PUSH0 PUSH0 PUSH1 0x40 DUP4 DUP6 SUB SLT ISZERO PUSH2 0x252 JUMPI PUSH2 0x251 PUSH2 0x1CA JUMP JUMPDEST JUMPDEST PUSH0 PUSH2 0x25F DUP6 DUP3 DUP7 ADD PUSH2 0x1F5 JUMP JUMPDEST SWAP3 POP POP PUSH1 0x20 PUSH2 0x270 DUP6 DUP3 DUP7 ADD PUSH2 0x228 JUMP JUMPDEST SWAP2 POP POP SWAP3 POP SWAP3 SWAP1 POP JUMP JUMPDEST PUSH0 DUP2 ISZERO ISZERO SWAP1 POP SWAP2 SWAP1 POP JUMP JUMPDEST PUSH2 0x28E DUP2 PUSH2 0x27A JUMP JUMPDEST DUP3 MSTORE POP POP JUMP JUMPDEST PUSH0 PUSH1 0x20 DUP3 ADD SWAP1 POP PUSH2 0x2A7 PUSH0 DUP4 ADD DUP5 PUSH2 0x285 JUMP JUMPDEST SWAP3 SWAP2 POP POP JUMP INVALID LOG2 PUSH5 0x6970667358 0x22 SLT KECCAK256 0xC5 BALANCE SSTORE CALL PUSH12 0x9742F704DC4A3021AB980A6D TSTORE DUP10 CODECOPY SWAP6 PUSH11 0x670556E2CFB6E9EC13F464 PUSH20 0x6F6C634300081E00330000000000000000000000 "
				},
				"gasEstimates": {
					"creation": {
						"codeDepositCost": "147800",
						"executionCost": "194",
						"totalCost": "147994"
					},
					"external": {
						"getCallerAddress()": "369",
						"receivedEther()": "22253",
						"sendFund(address,uint256)": "infinite",
						"transferFund(address,uint256)": "infinite"
					}
				},
				"methodIdentifiers": {
					"getCallerAddress()": "46b3353b",
					"receivedEther()": "cd53e455",
					"sendFund(address,uint256)": "4b569450",
					"transferFund(address,uint256)": "e2dc35e0"
				}
			},
			"storageLayout": {
				"storage": [
					{
						"astId": 18,
						"contract": "contracts/AdressContract.sol:AddressContract",
						"label": "receivedAmount",
						"offset": 0,
						"slot": "0",
						"type": "t_uint256"
					}
				],
				"types": {
					"t_uint256": {
						"encoding": "inplace",
						"label": "uint256",
						"numberOfBytes": "32"
					}
				}
			},
			"userdoc": {
				"kind": "user",
				"methods": {},
				"version": 1
			}
		}
	}
}