{
	"contracts/Struct.sol": {
		"Structs": {
			"abi": [
				{
					"inputs": [],
					"name": "getPerson",
					"outputs": [
						{
							"components": [
								{
									"internalType": "string",
									"name": "nama",
									"type": "string"
								},
								{
									"internalType": "string",
									"name": "jenis_kelamin",
									"type": "string"
								},
								{
									"internalType": "uint256",
									"name": "umur",
									"type": "uint256"
								},
								{
									"internalType": "bool",
									"name": "isMarriage",
									"type": "bool"
								}
							],
							"internalType": "struct Structs.Person",
							"name": "",
							"type": "tuple"
						}
					],
					"stateMutability": "view",
					"type": "function"
				},
				{
					"inputs": [],
					"name": "getPerson2",
					"outputs": [
						{
							"internalType": "string",
							"name": "",
							"type": "string"
						},
						{
							"internalType": "string",
							"name": "",
							"type": "string"
						}
					],
					"stateMutability": "view",
					"type": "function"
				},
				{
					"inputs": [],
					"name": "setPerson",
					"outputs": [],
					"stateMutability": "nonpayable",
					"type": "function"
				}
			],
			"devdoc": {
				"kind": "dev",
				"methods": {},
				"version": 1
			},
			"evm": {
				"assembly": "    /* \"contracts/Struct.sol\":91:870  contract Structs{... */\n  mstore(0x40, 0x80)\n    /* \"contracts/Struct.sol\":679:717  Person(\"Budi\", \"Laki-laki\", 21, false) */\n  mload(0x40)\n  dup1\n  0x80\n  add\n  0x40\n  mstore\n  dup1\n  mload(0x40)\n  dup1\n  0x40\n  add\n  0x40\n  mstore\n  dup1\n  0x04\n  dup2\n  mstore\n  0x20\n  add\n  0x4275646900000000000000000000000000000000000000000000000000000000\n  dup2\n  mstore\n  pop\n  dup2\n  mstore\n  0x20\n  add\n  mload(0x40)\n  dup1\n  0x40\n  add\n  0x40\n  mstore\n  dup1\n  0x09\n  dup2\n  mstore\n  0x20\n  add\n  0x4c616b692d6c616b690000000000000000000000000000000000000000000000\n  dup2\n  mstore\n  pop\n  dup2\n  mstore\n  0x20\n  add\n    /* \"contracts/Struct.sol\":707:709  21 */\n  0x15\n    /* \"contracts/Struct.sol\":679:717  Person(\"Budi\", \"Laki-laki\", 21, false) */\n  dup2\n  mstore\n  0x20\n  add\n    /* \"contracts/Struct.sol\":711:716  false */\n  0x00\n    /* \"contracts/Struct.sol\":679:717  Person(\"Budi\", \"Laki-laki\", 21, false) */\n  iszero\n  iszero\n  dup2\n  mstore\n  pop\n    /* \"contracts/Struct.sol\":662:717  Person person2 = Person(\"Budi\", \"Laki-laki\", 21, false) */\n  0x04\n  0x00\n  dup3\n  add\n  mload\n  dup2\n  0x00\n  add\n  swap1\n  dup2\n  tag_1\n  swap2\n  swap1\n  tag_2\n  jump\t// in\ntag_1:\n  pop\n  0x20\n  dup3\n  add\n  mload\n  dup2\n  0x01\n  add\n  swap1\n  dup2\n  tag_3\n  swap2\n  swap1\n  tag_2\n  jump\t// in\ntag_3:\n  pop\n  0x40\n  dup3\n  add\n  mload\n  dup2\n  0x02\n  add\n  sstore\n  0x60\n  dup3\n  add\n  mload\n  dup2\n  0x03\n  add\n  exp(0x0100, 0x00)\n  dup2\n  sload\n  dup2\n  0xff\n  mul\n  not\n  and\n  swap1\n  dup4\n  iszero\n  iszero\n  mul\n  or\n  swap1\n  sstore\n  pop\n  pop\n  pop\n    /* \"contracts/Struct.sol\":91:870  contract Structs{... */\n  callvalue\n  dup1\n  iszero\n  tag_4\n  jumpi\n  revert(0x00, 0x00)\ntag_4:\n  pop\n  jump(tag_5)\n    /* \"#utility.yul\":7:106   */\ntag_6:\n    /* \"#utility.yul\":59:65   */\n  0x00\n    /* \"#utility.yul\":93:98   */\n  dup2\n    /* \"#utility.yul\":87:99   */\n  mload\n    /* \"#utility.yul\":77:99   */\n  swap1\n  pop\n    /* \"#utility.yul\":7:106   */\n  swap2\n  swap1\n  pop\n  jump\t// out\n    /* \"#utility.yul\":112:292   */\ntag_7:\n    /* \"#utility.yul\":160:237   */\n  0x4e487b7100000000000000000000000000000000000000000000000000000000\n    /* \"#utility.yul\":157:158   */\n  0x00\n    /* \"#utility.yul\":150:238   */\n  mstore\n    /* \"#utility.yul\":257:261   */\n  0x41\n    /* \"#utility.yul\":254:255   */\n  0x04\n    /* \"#utility.yul\":247:262   */\n  mstore\n    /* \"#utility.yul\":281:285   */\n  0x24\n    /* \"#utility.yul\":278:279   */\n  0x00\n    /* \"#utility.yul\":271:286   */\n  revert\n    /* \"#utility.yul\":298:478   */\ntag_8:\n    /* \"#utility.yul\":346:423   */\n  0x4e487b7100000000000000000000000000000000000000000000000000000000\n    /* \"#utility.yul\":343:344   */\n  0x00\n    /* \"#utility.yul\":336:424   */\n  mstore\n    /* \"#utility.yul\":443:447   */\n  0x22\n    /* \"#utility.yul\":440:441   */\n  0x04\n    /* \"#utility.yul\":433:448   */\n  mstore\n    /* \"#utility.yul\":467:471   */\n  0x24\n    /* \"#utility.yul\":464:465   */\n  0x00\n    /* \"#utility.yul\":457:472   */\n  revert\n    /* \"#utility.yul\":484:804   */\ntag_9:\n    /* \"#utility.yul\":528:534   */\n  0x00\n    /* \"#utility.yul\":565:566   */\n  0x02\n    /* \"#utility.yul\":559:563   */\n  dup3\n    /* \"#utility.yul\":555:567   */\n  div\n    /* \"#utility.yul\":545:567   */\n  swap1\n  pop\n    /* \"#utility.yul\":612:613   */\n  0x01\n    /* \"#utility.yul\":606:610   */\n  dup3\n    /* \"#utility.yul\":602:614   */\n  and\n    /* \"#utility.yul\":633:651   */\n  dup1\n    /* \"#utility.yul\":623:704   */\n  tag_31\n  jumpi\n    /* \"#utility.yul\":689:693   */\n  0x7f\n    /* \"#utility.yul\":681:687   */\n  dup3\n    /* \"#utility.yul\":677:694   */\n  and\n    /* \"#utility.yul\":667:694   */\n  swap2\n  pop\n    /* \"#utility.yul\":623:704   */\ntag_31:\n    /* \"#utility.yul\":751:753   */\n  0x20\n    /* \"#utility.yul\":743:749   */\n  dup3\n    /* \"#utility.yul\":740:754   */\n  lt\n    /* \"#utility.yul\":720:738   */\n  dup2\n    /* \"#utility.yul\":717:755   */\n  sub\n    /* \"#utility.yul\":714:798   */\n  tag_32\n  jumpi\n    /* \"#utility.yul\":770:788   */\n  tag_33\n  tag_8\n  jump\t// in\ntag_33:\n    /* \"#utility.yul\":714:798   */\ntag_32:\n    /* \"#utility.yul\":535:804   */\n  pop\n    /* \"#utility.yul\":484:804   */\n  swap2\n  swap1\n  pop\n  jump\t// out\n    /* \"#utility.yul\":810:951   */\ntag_10:\n    /* \"#utility.yul\":859:863   */\n  0x00\n    /* \"#utility.yul\":882:885   */\n  dup2\n    /* \"#utility.yul\":874:885   */\n  swap1\n  pop\n    /* \"#utility.yul\":905:908   */\n  dup2\n    /* \"#utility.yul\":902:903   */\n  0x00\n    /* \"#utility.yul\":895:909   */\n  mstore\n    /* \"#utility.yul\":939:943   */\n  0x20\n    /* \"#utility.yul\":936:937   */\n  0x00\n    /* \"#utility.yul\":926:944   */\n  keccak256\n    /* \"#utility.yul\":918:944   */\n  swap1\n  pop\n    /* \"#utility.yul\":810:951   */\n  swap2\n  swap1\n  pop\n  jump\t// out\n    /* \"#utility.yul\":957:1050   */\ntag_11:\n    /* \"#utility.yul\":994:1000   */\n  0x00\n    /* \"#utility.yul\":1041:1043   */\n  0x20\n    /* \"#utility.yul\":1036:1038   */\n  0x1f\n    /* \"#utility.yul\":1029:1034   */\n  dup4\n    /* \"#utility.yul\":1025:1039   */\n  add\n    /* \"#utility.yul\":1021:1044   */\n  div\n    /* \"#utility.yul\":1011:1044   */\n  swap1\n  pop\n    /* \"#utility.yul\":957:1050   */\n  swap2\n  swap1\n  pop\n  jump\t// out\n    /* \"#utility.yul\":1056:1163   */\ntag_12:\n    /* \"#utility.yul\":1100:1108   */\n  0x00\n    /* \"#utility.yul\":1150:1155   */\n  dup3\n    /* \"#utility.yul\":1144:1148   */\n  dup3\n    /* \"#utility.yul\":1140:1156   */\n  shl\n    /* \"#utility.yul\":1119:1156   */\n  swap1\n  pop\n    /* \"#utility.yul\":1056:1163   */\n  swap3\n  swap2\n  pop\n  pop\n  jump\t// out\n    /* \"#utility.yul\":1169:1562   */\ntag_13:\n    /* \"#utility.yul\":1238:1244   */\n  0x00\n    /* \"#utility.yul\":1288:1289   */\n  0x08\n    /* \"#utility.yul\":1276:1286   */\n  dup4\n    /* \"#utility.yul\":1272:1290   */\n  mul\n    /* \"#utility.yul\":1311:1408   */\n  tag_38\n    /* \"#utility.yul\":1341:1407   */\n  0xffffffffffffffffffffffffffffffffffffffffffffffffffffffffffffffff\n    /* \"#utility.yul\":1330:1339   */\n  dup3\n    /* \"#utility.yul\":1311:1408   */\n  tag_12\n  jump\t// in\ntag_38:\n    /* \"#utility.yul\":1429:1468   */\n  tag_39\n    /* \"#utility.yul\":1459:1467   */\n  dup7\n    /* \"#utility.yul\":1448:1457   */\n  dup4\n    /* \"#utility.yul\":1429:1468   */\n  tag_12\n  jump\t// in\ntag_39:\n    /* \"#utility.yul\":1417:1468   */\n  swap6\n  pop\n    /* \"#utility.yul\":1501:1505   */\n  dup1\n    /* \"#utility.yul\":1497:1506   */\n  not\n    /* \"#utility.yul\":1490:1495   */\n  dup5\n    /* \"#utility.yul\":1486:1507   */\n  and\n    /* \"#utility.yul\":1477:1507   */\n  swap4\n  pop\n    /* \"#utility.yul\":1550:1554   */\n  dup1\n    /* \"#utility.yul\":1540:1548   */\n  dup7\n    /* \"#utility.yul\":1536:1555   */\n  and\n    /* \"#utility.yul\":1529:1534   */\n  dup5\n    /* \"#utility.yul\":1526:1556   */\n  or\n    /* \"#utility.yul\":1516:1556   */\n  swap3\n  pop\n    /* \"#utility.yul\":1245:1562   */\n  pop\n  pop\n    /* \"#utility.yul\":1169:1562   */\n  swap4\n  swap3\n  pop\n  pop\n  pop\n  jump\t// out\n    /* \"#utility.yul\":1568:1645   */\ntag_14:\n    /* \"#utility.yul\":1605:1612   */\n  0x00\n    /* \"#utility.yul\":1634:1639   */\n  dup2\n    /* \"#utility.yul\":1623:1639   */\n  swap1\n  pop\n    /* \"#utility.yul\":1568:1645   */\n  swap2\n  swap1\n  pop\n  jump\t// out\n    /* \"#utility.yul\":1651:1711   */\ntag_15:\n    /* \"#utility.yul\":1679:1682   */\n  0x00\n    /* \"#utility.yul\":1700:1705   */\n  dup2\n    /* \"#utility.yul\":1693:1705   */\n  swap1\n  pop\n    /* \"#utility.yul\":1651:1711   */\n  swap2\n  swap1\n  pop\n  jump\t// out\n    /* \"#utility.yul\":1717:1859   */\ntag_16:\n    /* \"#utility.yul\":1767:1776   */\n  0x00\n    /* \"#utility.yul\":1800:1853   */\n  tag_43\n    /* \"#utility.yul\":1818:1852   */\n  tag_44\n    /* \"#utility.yul\":1827:1851   */\n  tag_45\n    /* \"#utility.yul\":1845:1850   */\n  dup5\n    /* \"#utility.yul\":1827:1851   */\n  tag_14\n  jump\t// in\ntag_45:\n    /* \"#utility.yul\":1818:1852   */\n  tag_15\n  jump\t// in\ntag_44:\n    /* \"#utility.yul\":1800:1853   */\n  tag_14\n  jump\t// in\ntag_43:\n    /* \"#utility.yul\":1787:1853   */\n  swap1\n  pop\n    /* \"#utility.yul\":1717:1859   */\n  swap2\n  swap1\n  pop\n  jump\t// out\n    /* \"#utility.yul\":1865:1940   */\ntag_17:\n    /* \"#utility.yul\":1908:1911   */\n  0x00\n    /* \"#utility.yul\":1929:1934   */\n  dup2\n    /* \"#utility.yul\":1922:1934   */\n  swap1\n  pop\n    /* \"#utility.yul\":1865:1940   */\n  swap2\n  swap1\n  pop\n  jump\t// out\n    /* \"#utility.yul\":1946:2215   */\ntag_18:\n    /* \"#utility.yul\":2056:2095   */\n  tag_48\n    /* \"#utility.yul\":2087:2094   */\n  dup4\n    /* \"#utility.yul\":2056:2095   */\n  tag_16\n  jump\t// in\ntag_48:\n    /* \"#utility.yul\":2117:2208   */\n  tag_49\n    /* \"#utility.yul\":2166:2207   */\n  tag_50\n    /* \"#utility.yul\":2190:2206   */\n  dup3\n    /* \"#utility.yul\":2166:2207   */\n  tag_17\n  jump\t// in\ntag_50:\n    /* \"#utility.yul\":2158:2164   */\n  dup5\n    /* \"#utility.yul\":2151:2155   */\n  dup5\n    /* \"#utility.yul\":2145:2156   */\n  sload\n    /* \"#utility.yul\":2117:2208   */\n  tag_13\n  jump\t// in\ntag_49:\n    /* \"#utility.yul\":2111:2115   */\n  dup3\n    /* \"#utility.yul\":2104:2209   */\n  sstore\n    /* \"#utility.yul\":2022:2215   */\n  pop\n    /* \"#utility.yul\":1946:2215   */\n  pop\n  pop\n  pop\n  jump\t// out\n    /* \"#utility.yul\":2221:2294   */\ntag_19:\n    /* \"#utility.yul\":2266:2269   */\n  0x00\n    /* \"#utility.yul\":2287:2288   */\n  0x00\n    /* \"#utility.yul\":2280:2288   */\n  swap1\n  pop\n    /* \"#utility.yul\":2221:2294   */\n  swap1\n  jump\t// out\n    /* \"#utility.yul\":2300:2489   */\ntag_20:\n    /* \"#utility.yul\":2377:2409   */\n  tag_53\n  tag_19\n  jump\t// in\ntag_53:\n    /* \"#utility.yul\":2418:2483   */\n  tag_54\n    /* \"#utility.yul\":2476:2482   */\n  dup2\n    /* \"#utility.yul\":2468:2474   */\n  dup5\n    /* \"#utility.yul\":2462:2466   */\n  dup5\n    /* \"#utility.yul\":2418:2483   */\n  tag_18\n  jump\t// in\ntag_54:\n    /* \"#utility.yul\":2353:2489   */\n  pop\n    /* \"#utility.yul\":2300:2489   */\n  pop\n  pop\n  jump\t// out\n    /* \"#utility.yul\":2495:2681   */\ntag_21:\n    /* \"#utility.yul\":2555:2675   */\ntag_56:\n    /* \"#utility.yul\":2572:2575   */\n  dup2\n    /* \"#utility.yul\":2565:2570   */\n  dup2\n    /* \"#utility.yul\":2562:2576   */\n  lt\n    /* \"#utility.yul\":2555:2675   */\n  iszero\n  tag_58\n  jumpi\n    /* \"#utility.yul\":2626:2665   */\n  tag_59\n    /* \"#utility.yul\":2663:2664   */\n  0x00\n    /* \"#utility.yul\":2656:2661   */\n  dup3\n    /* \"#utility.yul\":2626:2665   */\n  tag_20\n  jump\t// in\ntag_59:\n    /* \"#utility.yul\":2599:2600   */\n  0x01\n    /* \"#utility.yul\":2592:2597   */\n  dup2\n    /* \"#utility.yul\":2588:2601   */\n  add\n    /* \"#utility.yul\":2579:2601   */\n  swap1\n  pop\n    /* \"#utility.yul\":2555:2675   */\n  jump(tag_56)\ntag_58:\n    /* \"#utility.yul\":2495:2681   */\n  pop\n  pop\n  jump\t// out\n    /* \"#utility.yul\":2687:3230   */\ntag_22:\n    /* \"#utility.yul\":2788:2790   */\n  0x1f\n    /* \"#utility.yul\":2783:2786   */\n  dup3\n    /* \"#utility.yul\":2780:2791   */\n  gt\n    /* \"#utility.yul\":2777:3223   */\n  iszero\n  tag_61\n  jumpi\n    /* \"#utility.yul\":2822:2860   */\n  tag_62\n    /* \"#utility.yul\":2854:2859   */\n  dup2\n    /* \"#utility.yul\":2822:2860   */\n  tag_10\n  jump\t// in\ntag_62:\n    /* \"#utility.yul\":2906:2935   */\n  tag_63\n    /* \"#utility.yul\":2924:2934   */\n  dup5\n    /* \"#utility.yul\":2906:2935   */\n  tag_11\n  jump\t// in\ntag_63:\n    /* \"#utility.yul\":2896:2904   */\n  dup2\n    /* \"#utility.yul\":2892:2936   */\n  add\n    /* \"#utility.yul\":3089:3091   */\n  0x20\n    /* \"#utility.yul\":3077:3087   */\n  dup6\n    /* \"#utility.yul\":3074:3092   */\n  lt\n    /* \"#utility.yul\":3071:3120   */\n  iszero\n  tag_64\n  jumpi\n    /* \"#utility.yul\":3110:3118   */\n  dup2\n    /* \"#utility.yul\":3095:3118   */\n  swap1\n  pop\n    /* \"#utility.yul\":3071:3120   */\ntag_64:\n    /* \"#utility.yul\":3133:3213   */\n  tag_65\n    /* \"#utility.yul\":3189:3211   */\n  tag_66\n    /* \"#utility.yul\":3207:3210   */\n  dup6\n    /* \"#utility.yul\":3189:3211   */\n  tag_11\n  jump\t// in\ntag_66:\n    /* \"#utility.yul\":3179:3187   */\n  dup4\n    /* \"#utility.yul\":3175:3212   */\n  add\n    /* \"#utility.yul\":3162:3173   */\n  dup3\n    /* \"#utility.yul\":3133:3213   */\n  tag_21\n  jump\t// in\ntag_65:\n    /* \"#utility.yul\":2792:3223   */\n  pop\n  pop\n    /* \"#utility.yul\":2777:3223   */\ntag_61:\n    /* \"#utility.yul\":2687:3230   */\n  pop\n  pop\n  pop\n  jump\t// out\n    /* \"#utility.yul\":3236:3353   */\ntag_23:\n    /* \"#utility.yul\":3290:3298   */\n  0x00\n    /* \"#utility.yul\":3340:3345   */\n  dup3\n    /* \"#utility.yul\":3334:3338   */\n  dup3\n    /* \"#utility.yul\":3330:3346   */\n  shr\n    /* \"#utility.yul\":3309:3346   */\n  swap1\n  pop\n    /* \"#utility.yul\":3236:3353   */\n  swap3\n  swap2\n  pop\n  pop\n  jump\t// out\n    /* \"#utility.yul\":3359:3528   */\ntag_24:\n    /* \"#utility.yul\":3403:3409   */\n  0x00\n    /* \"#utility.yul\":3436:3487   */\n  tag_69\n    /* \"#utility.yul\":3484:3485   */\n  0x00\n    /* \"#utility.yul\":3480:3486   */\n  not\n    /* \"#utility.yul\":3472:3477   */\n  dup5\n    /* \"#utility.yul\":3469:3470   */\n  0x08\n    /* \"#utility.yul\":3465:3478   */\n  mul\n    /* \"#utility.yul\":3436:3487   */\n  tag_23\n  jump\t// in\ntag_69:\n    /* \"#utility.yul\":3432:3488   */\n  not\n    /* \"#utility.yul\":3517:3521   */\n  dup1\n    /* \"#utility.yul\":3511:3515   */\n  dup4\n    /* \"#utility.yul\":3507:3522   */\n  and\n    /* \"#utility.yul\":3497:3522   */\n  swap2\n  pop\n    /* \"#utility.yul\":3410:3528   */\n  pop\n    /* \"#utility.yul\":3359:3528   */\n  swap3\n  swap2\n  pop\n  pop\n  jump\t// out\n    /* \"#utility.yul\":3533:3828   */\ntag_25:\n    /* \"#utility.yul\":3609:3613   */\n  0x00\n    /* \"#utility.yul\":3755:3784   */\n  tag_71\n    /* \"#utility.yul\":3780:3783   */\n  dup4\n    /* \"#utility.yul\":3774:3778   */\n  dup4\n    /* \"#utility.yul\":3755:3784   */\n  tag_24\n  jump\t// in\ntag_71:\n    /* \"#utility.yul\":3747:3784   */\n  swap2\n  pop\n    /* \"#utility.yul\":3817:3820   */\n  dup3\n    /* \"#utility.yul\":3814:3815   */\n  0x02\n    /* \"#utility.yul\":3810:3821   */\n  mul\n    /* \"#utility.yul\":3804:3808   */\n  dup3\n    /* \"#utility.yul\":3801:3822   */\n  or\n    /* \"#utility.yul\":3793:3822   */\n  swap1\n  pop\n    /* \"#utility.yul\":3533:3828   */\n  swap3\n  swap2\n  pop\n  pop\n  jump\t// out\n    /* \"#utility.yul\":3833:5228   */\ntag_2:\n    /* \"#utility.yul\":3950:3987   */\n  tag_73\n    /* \"#utility.yul\":3983:3986   */\n  dup3\n    /* \"#utility.yul\":3950:3987   */\n  tag_6\n  jump\t// in\ntag_73:\n    /* \"#utility.yul\":4052:4070   */\n  0xffffffffffffffff\n    /* \"#utility.yul\":4044:4050   */\n  dup2\n    /* \"#utility.yul\":4041:4071   */\n  gt\n    /* \"#utility.yul\":4038:4094   */\n  iszero\n  tag_74\n  jumpi\n    /* \"#utility.yul\":4074:4092   */\n  tag_75\n  tag_7\n  jump\t// in\ntag_75:\n    /* \"#utility.yul\":4038:4094   */\ntag_74:\n    /* \"#utility.yul\":4118:4156   */\n  tag_76\n    /* \"#utility.yul\":4150:4154   */\n  dup3\n    /* \"#utility.yul\":4144:4155   */\n  sload\n    /* \"#utility.yul\":4118:4156   */\n  tag_9\n  jump\t// in\ntag_76:\n    /* \"#utility.yul\":4203:4270   */\n  tag_77\n    /* \"#utility.yul\":4263:4269   */\n  dup3\n    /* \"#utility.yul\":4255:4261   */\n  dup3\n    /* \"#utility.yul\":4249:4253   */\n  dup6\n    /* \"#utility.yul\":4203:4270   */\n  tag_22\n  jump\t// in\ntag_77:\n    /* \"#utility.yul\":4297:4298   */\n  0x00\n    /* \"#utility.yul\":4321:4325   */\n  0x20\n    /* \"#utility.yul\":4308:4325   */\n  swap1\n  pop\n    /* \"#utility.yul\":4353:4355   */\n  0x1f\n    /* \"#utility.yul\":4345:4351   */\n  dup4\n    /* \"#utility.yul\":4342:4356   */\n  gt\n    /* \"#utility.yul\":4370:4371   */\n  0x01\n    /* \"#utility.yul\":4365:4983   */\n  dup2\n  eq\n  tag_79\n  jumpi\n    /* \"#utility.yul\":5027:5028   */\n  0x00\n    /* \"#utility.yul\":5044:5050   */\n  dup5\n    /* \"#utility.yul\":5041:5118   */\n  iszero\n  tag_80\n  jumpi\n    /* \"#utility.yul\":5093:5102   */\n  dup3\n    /* \"#utility.yul\":5088:5091   */\n  dup8\n    /* \"#utility.yul\":5084:5103   */\n  add\n    /* \"#utility.yul\":5078:5104   */\n  mload\n    /* \"#utility.yul\":5069:5104   */\n  swap1\n  pop\n    /* \"#utility.yul\":5041:5118   */\ntag_80:\n    /* \"#utility.yul\":5144:5211   */\n  tag_81\n    /* \"#utility.yul\":5204:5210   */\n  dup6\n    /* \"#utility.yul\":5197:5202   */\n  dup3\n    /* \"#utility.yul\":5144:5211   */\n  tag_25\n  jump\t// in\ntag_81:\n    /* \"#utility.yul\":5138:5142   */\n  dup7\n    /* \"#utility.yul\":5131:5212   */\n  sstore\n    /* \"#utility.yul\":5000:5222   */\n  pop\n    /* \"#utility.yul\":4335:5222   */\n  jump(tag_78)\n    /* \"#utility.yul\":4365:4983   */\ntag_79:\n    /* \"#utility.yul\":4417:4421   */\n  0x1f\n    /* \"#utility.yul\":4413:4422   */\n  not\n    /* \"#utility.yul\":4405:4411   */\n  dup5\n    /* \"#utility.yul\":4401:4423   */\n  and\n    /* \"#utility.yul\":4451:4488   */\n  tag_82\n    /* \"#utility.yul\":4483:4487   */\n  dup7\n    /* \"#utility.yul\":4451:4488   */\n  tag_10\n  jump\t// in\ntag_82:\n    /* \"#utility.yul\":4510:4511   */\n  0x00\n    /* \"#utility.yul\":4524:4732   */\ntag_83:\n    /* \"#utility.yul\":4538:4545   */\n  dup3\n    /* \"#utility.yul\":4535:4536   */\n  dup2\n    /* \"#utility.yul\":4532:4546   */\n  lt\n    /* \"#utility.yul\":4524:4732   */\n  iszero\n  tag_85\n  jumpi\n    /* \"#utility.yul\":4617:4626   */\n  dup5\n    /* \"#utility.yul\":4612:4615   */\n  dup10\n    /* \"#utility.yul\":4608:4627   */\n  add\n    /* \"#utility.yul\":4602:4628   */\n  mload\n    /* \"#utility.yul\":4594:4600   */\n  dup3\n    /* \"#utility.yul\":4587:4629   */\n  sstore\n    /* \"#utility.yul\":4668:4669   */\n  0x01\n    /* \"#utility.yul\":4660:4666   */\n  dup3\n    /* \"#utility.yul\":4656:4670   */\n  add\n    /* \"#utility.yul\":4646:4670   */\n  swap2\n  pop\n    /* \"#utility.yul\":4715:4717   */\n  0x20\n    /* \"#utility.yul\":4704:4713   */\n  dup6\n    /* \"#utility.yul\":4700:4718   */\n  add\n    /* \"#utility.yul\":4687:4718   */\n  swap5\n  pop\n    /* \"#utility.yul\":4561:4565   */\n  0x20\n    /* \"#utility.yul\":4558:4559   */\n  dup2\n    /* \"#utility.yul\":4554:4566   */\n  add\n    /* \"#utility.yul\":4549:4566   */\n  swap1\n  pop\n    /* \"#utility.yul\":4524:4732   */\n  jump(tag_83)\ntag_85:\n    /* \"#utility.yul\":4760:4766   */\n  dup7\n    /* \"#utility.yul\":4751:4758   */\n  dup4\n    /* \"#utility.yul\":4748:4767   */\n  lt\n    /* \"#utility.yul\":4745:4924   */\n  iszero\n  tag_86\n  jumpi\n    /* \"#utility.yul\":4818:4827   */\n  dup5\n    /* \"#utility.yul\":4813:4816   */\n  dup10\n    /* \"#utility.yul\":4809:4828   */\n  add\n    /* \"#utility.yul\":4803:4829   */\n  mload\n    /* \"#utility.yul\":4861:4909   */\n  tag_87\n    /* \"#utility.yul\":4903:4907   */\n  0x1f\n    /* \"#utility.yul\":4895:4901   */\n  dup10\n    /* \"#utility.yul\":4891:4908   */\n  and\n    /* \"#utility.yul\":4880:4889   */\n  dup3\n    /* \"#utility.yul\":4861:4909   */\n  tag_24\n  jump\t// in\ntag_87:\n    /* \"#utility.yul\":4853:4859   */\n  dup4\n    /* \"#utility.yul\":4846:4910   */\n  sstore\n    /* \"#utility.yul\":4768:4924   */\n  pop\n    /* \"#utility.yul\":4745:4924   */\ntag_86:\n    /* \"#utility.yul\":4970:4971   */\n  0x01\n    /* \"#utility.yul\":4966:4967   */\n  0x02\n    /* \"#utility.yul\":4958:4964   */\n  dup9\n    /* \"#utility.yul\":4954:4968   */\n  mul\n    /* \"#utility.yul\":4950:4972   */\n  add\n    /* \"#utility.yul\":4944:4948   */\n  dup9\n    /* \"#utility.yul\":4937:4973   */\n  sstore\n    /* \"#utility.yul\":4372:4983   */\n  pop\n  pop\n  pop\n    /* \"#utility.yul\":4335:5222   */\ntag_78:\n  pop\n    /* \"#utility.yul\":3925:5228   */\n  pop\n  pop\n  pop\n    /* \"#utility.yul\":3833:5228   */\n  pop\n  pop\n  jump\t// out\n    /* \"contracts/Struct.sol\":91:870  contract Structs{... */\ntag_5:\n  dataSize(sub_0)\n  dup1\n  dataOffset(sub_0)\n  0x00\n  codecopy\n  0x00\n  return\nstop\n\nsub_0: assembly {\n        /* \"contracts/Struct.sol\":91:870  contract Structs{... */\n      mstore(0x40, 0x80)\n      callvalue\n      dup1\n      iszero\n      tag_1\n      jumpi\n      revert(0x00, 0x00)\n    tag_1:\n      pop\n      jumpi(tag_2, lt(calldatasize, 0x04))\n      shr(0xe0, calldataload(0x00))\n      dup1\n      0x47c0f1f6\n      eq\n      tag_3\n      jumpi\n      dup1\n      0x8ec4dc95\n      eq\n      tag_4\n      jumpi\n      dup1\n      0xc133d864\n      eq\n      tag_5\n      jumpi\n    tag_2:\n      revert(0x00, 0x00)\n        /* \"contracts/Struct.sol\":462:558  function setPerson() public {... */\n    tag_3:\n      tag_6\n      tag_7\n      jump\t// in\n    tag_6:\n      stop\n        /* \"contracts/Struct.sol\":566:654  function getPerson() public view returns(Person memory){... */\n    tag_4:\n      tag_8\n      tag_9\n      jump\t// in\n    tag_8:\n      mload(0x40)\n      tag_10\n      swap2\n      swap1\n      tag_11\n      jump\t// in\n    tag_10:\n      mload(0x40)\n      dup1\n      swap2\n      sub\n      swap1\n      return\n        /* \"contracts/Struct.sol\":726:859  function getPerson2() public view returns(string memory, string memory){... */\n    tag_5:\n      tag_12\n      tag_13\n      jump\t// in\n    tag_12:\n      mload(0x40)\n      tag_14\n      swap3\n      swap2\n      swap1\n      tag_15\n      jump\t// in\n    tag_14:\n      mload(0x40)\n      dup1\n      swap2\n      sub\n      swap1\n      return\n        /* \"contracts/Struct.sol\":462:558  function setPerson() public {... */\n    tag_7:\n        /* \"contracts/Struct.sol\":511:550  Person(\"Ahmad\", \"Laki-laki\", 20, false) */\n      mload(0x40)\n      dup1\n      0x80\n      add\n      0x40\n      mstore\n      dup1\n      mload(0x40)\n      dup1\n      0x40\n      add\n      0x40\n      mstore\n      dup1\n      0x05\n      dup2\n      mstore\n      0x20\n      add\n      0x41686d6164000000000000000000000000000000000000000000000000000000\n      dup2\n      mstore\n      pop\n      dup2\n      mstore\n      0x20\n      add\n      mload(0x40)\n      dup1\n      0x40\n      add\n      0x40\n      mstore\n      dup1\n      0x09\n      dup2\n      mstore\n      0x20\n      add\n      0x4c616b692d6c616b690000000000000000000000000000000000000000000000\n      dup2\n      mstore\n      pop\n      dup2\n      mstore\n      0x20\n      add\n        /* \"contracts/Struct.sol\":540:542  20 */\n      0x14\n        /* \"contracts/Struct.sol\":511:550  Person(\"Ahmad\", \"Laki-laki\", 20, false) */\n      dup2\n      mstore\n      0x20\n      add\n        /* \"contracts/Struct.sol\":544:549  false */\n      0x00\n        /* \"contracts/Struct.sol\":511:550  Person(\"Ahmad\", \"Laki-laki\", 20, false) */\n      iszero\n      iszero\n      dup2\n      mstore\n      pop\n        /* \"contracts/Struct.sol\":501:508  person1 */\n      0x00\n        /* \"contracts/Struct.sol\":501:550  person1 = Person(\"Ahmad\", \"Laki-laki\", 20, false) */\n      0x00\n      dup3\n      add\n      mload\n      dup2\n      0x00\n      add\n      swap1\n      dup2\n      tag_17\n      swap2\n      swap1\n      tag_18\n      jump\t// in\n    tag_17:\n      pop\n      0x20\n      dup3\n      add\n      mload\n      dup2\n      0x01\n      add\n      swap1\n      dup2\n      tag_19\n      swap2\n      swap1\n      tag_18\n      jump\t// in\n    tag_19:\n      pop\n      0x40\n      dup3\n      add\n      mload\n      dup2\n      0x02\n      add\n      sstore\n      0x60\n      dup3\n      add\n      mload\n      dup2\n      0x03\n      add\n      exp(0x0100, 0x00)\n      dup2\n      sload\n      dup2\n      0xff\n      mul\n      not\n      and\n      swap1\n      dup4\n      iszero\n      iszero\n      mul\n      or\n      swap1\n      sstore\n      pop\n      swap1\n      pop\n      pop\n        /* \"contracts/Struct.sol\":462:558  function setPerson() public {... */\n      jump\t// out\n        /* \"contracts/Struct.sol\":566:654  function getPerson() public view returns(Person memory){... */\n    tag_9:\n        /* \"contracts/Struct.sol\":607:620  Person memory */\n      tag_20\n      tag_21\n      jump\t// in\n    tag_20:\n        /* \"contracts/Struct.sol\":639:646  person1 */\n      0x00\n        /* \"contracts/Struct.sol\":632:646  return person1 */\n      mload(0x40)\n      dup1\n      0x80\n      add\n      0x40\n      mstore\n      swap1\n      dup2\n      0x00\n      dup3\n      add\n      dup1\n      sload\n      tag_23\n      swap1\n      tag_24\n      jump\t// in\n    tag_23:\n      dup1\n      0x1f\n      add\n      0x20\n      dup1\n      swap2\n      div\n      mul\n      0x20\n      add\n      mload(0x40)\n      swap1\n      dup2\n      add\n      0x40\n      mstore\n      dup1\n      swap3\n      swap2\n      swap1\n      dup2\n      dup2\n      mstore\n      0x20\n      add\n      dup3\n      dup1\n      sload\n      tag_25\n      swap1\n      tag_24\n      jump\t// in\n    tag_25:\n      dup1\n      iszero\n      tag_26\n      jumpi\n      dup1\n      0x1f\n      lt\n      tag_27\n      jumpi\n      0x0100\n      dup1\n      dup4\n      sload\n      div\n      mul\n      dup4\n      mstore\n      swap2\n      0x20\n      add\n      swap2\n      jump(tag_26)\n    tag_27:\n      dup3\n      add\n      swap2\n      swap1\n      0x00\n      mstore\n      keccak256(0x00, 0x20)\n      swap1\n    tag_28:\n      dup2\n      sload\n      dup2\n      mstore\n      swap1\n      0x01\n      add\n      swap1\n      0x20\n      add\n      dup1\n      dup4\n      gt\n      tag_28\n      jumpi\n      dup3\n      swap1\n      sub\n      0x1f\n      and\n      dup3\n      add\n      swap2\n    tag_26:\n      pop\n      pop\n      pop\n      pop\n      pop\n      dup2\n      mstore\n      0x20\n      add\n      0x01\n      dup3\n      add\n      dup1\n      sload\n      tag_29\n      swap1\n      tag_24\n      jump\t// in\n    tag_29:\n      dup1\n      0x1f\n      add\n      0x20\n      dup1\n      swap2\n      div\n      mul\n      0x20\n      add\n      mload(0x40)\n      swap1\n      dup2\n      add\n      0x40\n      mstore\n      dup1\n      swap3\n      swap2\n      swap1\n      dup2\n      dup2\n      mstore\n      0x20\n      add\n      dup3\n      dup1\n      sload\n      tag_30\n      swap1\n      tag_24\n      jump\t// in\n    tag_30:\n      dup1\n      iszero\n      tag_31\n      jumpi\n      dup1\n      0x1f\n      lt\n      tag_32\n      jumpi\n      0x0100\n      dup1\n      dup4\n      sload\n      div\n      mul\n      dup4\n      mstore\n      swap2\n      0x20\n      add\n      swap2\n      jump(tag_31)\n    tag_32:\n      dup3\n      add\n      swap2\n      swap1\n      0x00\n      mstore\n      keccak256(0x00, 0x20)\n      swap1\n    tag_33:\n      dup2\n      sload\n      dup2\n      mstore\n      swap1\n      0x01\n      add\n      swap1\n      0x20\n      add\n      dup1\n      dup4\n      gt\n      tag_33\n      jumpi\n      dup3\n      swap1\n      sub\n      0x1f\n      and\n      dup3\n      add\n      swap2\n    tag_31:\n      pop\n      pop\n      pop\n      pop\n      pop\n      dup2\n      mstore\n      0x20\n      add\n      0x02\n      dup3\n      add\n      sload\n      dup2\n      mstore\n      0x20\n      add\n      0x03\n      dup3\n      add\n      0x00\n      swap1\n      sload\n      swap1\n      0x0100\n      exp\n      swap1\n      div\n      0xff\n      and\n      iszero\n      iszero\n      iszero\n      iszero\n      dup2\n      mstore\n      pop\n      pop\n      swap1\n      pop\n        /* \"contracts/Struct.sol\":566:654  function getPerson() public view returns(Person memory){... */\n      swap1\n      jump\t// out\n        /* \"contracts/Struct.sol\":726:859  function getPerson2() public view returns(string memory, string memory){... */\n    tag_13:\n        /* \"contracts/Struct.sol\":768:781  string memory */\n      0x60\n        /* \"contracts/Struct.sol\":783:796  string memory */\n      dup1\n        /* \"contracts/Struct.sol\":815:822  person2 */\n      0x04\n        /* \"contracts/Struct.sol\":815:827  person2.nama */\n      0x00\n      add\n        /* \"contracts/Struct.sol\":829:836  person2 */\n      0x04\n        /* \"contracts/Struct.sol\":829:850  person2.jenis_kelamin */\n      0x01\n      add\n        /* \"contracts/Struct.sol\":808:851  return(person2.nama, person2.jenis_kelamin) */\n      dup2\n      dup1\n      sload\n      tag_35\n      swap1\n      tag_24\n      jump\t// in\n    tag_35:\n      dup1\n      0x1f\n      add\n      0x20\n      dup1\n      swap2\n      div\n      mul\n      0x20\n      add\n      mload(0x40)\n      swap1\n      dup2\n      add\n      0x40\n      mstore\n      dup1\n      swap3\n      swap2\n      swap1\n      dup2\n      dup2\n      mstore\n      0x20\n      add\n      dup3\n      dup1\n      sload\n      tag_36\n      swap1\n      tag_24\n      jump\t// in\n    tag_36:\n      dup1\n      iszero\n      tag_37\n      jumpi\n      dup1\n      0x1f\n      lt\n      tag_38\n      jumpi\n      0x0100\n      dup1\n      dup4\n      sload\n      div\n      mul\n      dup4\n      mstore\n      swap2\n      0x20\n      add\n      swap2\n      jump(tag_37)\n    tag_38:\n      dup3\n      add\n      swap2\n      swap1\n      0x00\n      mstore\n      keccak256(0x00, 0x20)\n      swap1\n    tag_39:\n      dup2\n      sload\n      dup2\n      mstore\n      swap1\n      0x01\n      add\n      swap1\n      0x20\n      add\n      dup1\n      dup4\n      gt\n      tag_39\n      jumpi\n      dup3\n      swap1\n      sub\n      0x1f\n      and\n      dup3\n      add\n      swap2\n    tag_37:\n      pop\n      pop\n      pop\n      pop\n      pop\n      swap2\n      pop\n      dup1\n      dup1\n      sload\n      tag_40\n      swap1\n      tag_24\n      jump\t// in\n    tag_40:\n      dup1\n      0x1f\n      add\n      0x20\n      dup1\n      swap2\n      div\n      mul\n      0x20\n      add\n      mload(0x40)\n      swap1\n      dup2\n      add\n      0x40\n      mstore\n      dup1\n      swap3\n      swap2\n      swap1\n      dup2\n      dup2\n      mstore\n      0x20\n      add\n      dup3\n      dup1\n      sload\n      tag_41\n      swap1\n      tag_24\n      jump\t// in\n    tag_41:\n      dup1\n      iszero\n      tag_42\n      jumpi\n      dup1\n      0x1f\n      lt\n      tag_43\n      jumpi\n      0x0100\n      dup1\n      dup4\n      sload\n      div\n      mul\n      dup4\n      mstore\n      swap2\n      0x20\n      add\n      swap2\n      jump(tag_42)\n    tag_43:\n      dup3\n      add\n      swap2\n      swap1\n      0x00\n      mstore\n      keccak256(0x00, 0x20)\n      swap1\n    tag_44:\n      dup2\n      sload\n      dup2\n      mstore\n      swap1\n      0x01\n      add\n      swap1\n      0x20\n      add\n      dup1\n      dup4\n      gt\n      tag_44\n      jumpi\n      dup3\n      swap1\n      sub\n      0x1f\n      and\n      dup3\n      add\n      swap2\n    tag_42:\n      pop\n      pop\n      pop\n      pop\n      pop\n      swap1\n      pop\n      swap2\n      pop\n      swap2\n      pop\n        /* \"contracts/Struct.sol\":726:859  function getPerson2() public view returns(string memory, string memory){... */\n      swap1\n      swap2\n      jump\t// out\n    tag_21:\n      mload(0x40)\n      dup1\n      0x80\n      add\n      0x40\n      mstore\n      dup1\n      0x60\n      dup2\n      mstore\n      0x20\n      add\n      0x60\n      dup2\n      mstore\n      0x20\n      add\n      0x00\n      dup2\n      mstore\n      0x20\n      add\n      iszero(iszero(0x00))\n      dup2\n      mstore\n      pop\n      swap1\n      jump\t// out\n        /* \"#utility.yul\":7:106   */\n    tag_45:\n        /* \"#utility.yul\":59:65   */\n      0x00\n        /* \"#utility.yul\":93:98   */\n      dup2\n        /* \"#utility.yul\":87:99   */\n      mload\n        /* \"#utility.yul\":77:99   */\n      swap1\n      pop\n        /* \"#utility.yul\":7:106   */\n      swap2\n      swap1\n      pop\n      jump\t// out\n        /* \"#utility.yul\":112:271   */\n    tag_46:\n        /* \"#utility.yul\":186:197   */\n      0x00\n        /* \"#utility.yul\":220:226   */\n      dup3\n        /* \"#utility.yul\":215:218   */\n      dup3\n        /* \"#utility.yul\":208:227   */\n      mstore\n        /* \"#utility.yul\":260:264   */\n      0x20\n        /* \"#utility.yul\":255:258   */\n      dup3\n        /* \"#utility.yul\":251:265   */\n      add\n        /* \"#utility.yul\":236:265   */\n      swap1\n      pop\n        /* \"#utility.yul\":112:271   */\n      swap3\n      swap2\n      pop\n      pop\n      jump\t// out\n        /* \"#utility.yul\":277:416   */\n    tag_47:\n        /* \"#utility.yul\":366:372   */\n      dup3\n        /* \"#utility.yul\":361:364   */\n      dup2\n        /* \"#utility.yul\":356:359   */\n      dup4\n        /* \"#utility.yul\":350:373   */\n      mcopy\n        /* \"#utility.yul\":407:408   */\n      0x00\n        /* \"#utility.yul\":398:404   */\n      dup4\n        /* \"#utility.yul\":393:396   */\n      dup4\n        /* \"#utility.yul\":389:405   */\n      add\n        /* \"#utility.yul\":382:409   */\n      mstore\n        /* \"#utility.yul\":277:416   */\n      pop\n      pop\n      pop\n      jump\t// out\n        /* \"#utility.yul\":422:524   */\n    tag_48:\n        /* \"#utility.yul\":463:469   */\n      0x00\n        /* \"#utility.yul\":514:516   */\n      0x1f\n        /* \"#utility.yul\":510:517   */\n      not\n        /* \"#utility.yul\":505:507   */\n      0x1f\n        /* \"#utility.yul\":498:503   */\n      dup4\n        /* \"#utility.yul\":494:508   */\n      add\n        /* \"#utility.yul\":490:518   */\n      and\n        /* \"#utility.yul\":480:518   */\n      swap1\n      pop\n        /* \"#utility.yul\":422:524   */\n      swap2\n      swap1\n      pop\n      jump\t// out\n        /* \"#utility.yul\":530:887   */\n    tag_49:\n        /* \"#utility.yul\":608:611   */\n      0x00\n        /* \"#utility.yul\":636:675   */\n      tag_80\n        /* \"#utility.yul\":669:674   */\n      dup3\n        /* \"#utility.yul\":636:675   */\n      tag_45\n      jump\t// in\n    tag_80:\n        /* \"#utility.yul\":691:752   */\n      tag_81\n        /* \"#utility.yul\":745:751   */\n      dup2\n        /* \"#utility.yul\":740:743   */\n      dup6\n        /* \"#utility.yul\":691:752   */\n      tag_46\n      jump\t// in\n    tag_81:\n        /* \"#utility.yul\":684:752   */\n      swap4\n      pop\n        /* \"#utility.yul\":761:826   */\n      tag_82\n        /* \"#utility.yul\":819:825   */\n      dup2\n        /* \"#utility.yul\":814:817   */\n      dup6\n        /* \"#utility.yul\":807:811   */\n      0x20\n        /* \"#utility.yul\":800:805   */\n      dup7\n        /* \"#utility.yul\":796:812   */\n      add\n        /* \"#utility.yul\":761:826   */\n      tag_47\n      jump\t// in\n    tag_82:\n        /* \"#utility.yul\":851:880   */\n      tag_83\n        /* \"#utility.yul\":873:879   */\n      dup2\n        /* \"#utility.yul\":851:880   */\n      tag_48\n      jump\t// in\n    tag_83:\n        /* \"#utility.yul\":846:849   */\n      dup5\n        /* \"#utility.yul\":842:881   */\n      add\n        /* \"#utility.yul\":835:881   */\n      swap2\n      pop\n        /* \"#utility.yul\":612:887   */\n      pop\n        /* \"#utility.yul\":530:887   */\n      swap3\n      swap2\n      pop\n      pop\n      jump\t// out\n        /* \"#utility.yul\":893:970   */\n    tag_50:\n        /* \"#utility.yul\":930:937   */\n      0x00\n        /* \"#utility.yul\":959:964   */\n      dup2\n        /* \"#utility.yul\":948:964   */\n      swap1\n      pop\n        /* \"#utility.yul\":893:970   */\n      swap2\n      swap1\n      pop\n      jump\t// out\n        /* \"#utility.yul\":976:1084   */\n    tag_51:\n        /* \"#utility.yul\":1053:1077   */\n      tag_86\n        /* \"#utility.yul\":1071:1076   */\n      dup2\n        /* \"#utility.yul\":1053:1077   */\n      tag_50\n      jump\t// in\n    tag_86:\n        /* \"#utility.yul\":1048:1051   */\n      dup3\n        /* \"#utility.yul\":1041:1078   */\n      mstore\n        /* \"#utility.yul\":976:1084   */\n      pop\n      pop\n      jump\t// out\n        /* \"#utility.yul\":1090:1180   */\n    tag_52:\n        /* \"#utility.yul\":1124:1131   */\n      0x00\n        /* \"#utility.yul\":1167:1172   */\n      dup2\n        /* \"#utility.yul\":1160:1173   */\n      iszero\n        /* \"#utility.yul\":1153:1174   */\n      iszero\n        /* \"#utility.yul\":1142:1174   */\n      swap1\n      pop\n        /* \"#utility.yul\":1090:1180   */\n      swap2\n      swap1\n      pop\n      jump\t// out\n        /* \"#utility.yul\":1186:1285   */\n    tag_53:\n        /* \"#utility.yul\":1257:1278   */\n      tag_89\n        /* \"#utility.yul\":1272:1277   */\n      dup2\n        /* \"#utility.yul\":1257:1278   */\n      tag_52\n      jump\t// in\n    tag_89:\n        /* \"#utility.yul\":1252:1255   */\n      dup3\n        /* \"#utility.yul\":1245:1279   */\n      mstore\n        /* \"#utility.yul\":1186:1285   */\n      pop\n      pop\n      jump\t// out\n        /* \"#utility.yul\":1345:2373   */\n    tag_54:\n        /* \"#utility.yul\":1458:1461   */\n      0x00\n        /* \"#utility.yul\":1494:1498   */\n      0x80\n        /* \"#utility.yul\":1489:1492   */\n      dup4\n        /* \"#utility.yul\":1485:1499   */\n      add\n        /* \"#utility.yul\":1581:1585   */\n      0x00\n        /* \"#utility.yul\":1574:1579   */\n      dup4\n        /* \"#utility.yul\":1570:1586   */\n      add\n        /* \"#utility.yul\":1564:1587   */\n      mload\n        /* \"#utility.yul\":1634:1637   */\n      dup5\n        /* \"#utility.yul\":1628:1632   */\n      dup3\n        /* \"#utility.yul\":1624:1638   */\n      sub\n        /* \"#utility.yul\":1617:1621   */\n      0x00\n        /* \"#utility.yul\":1612:1615   */\n      dup7\n        /* \"#utility.yul\":1608:1622   */\n      add\n        /* \"#utility.yul\":1601:1639   */\n      mstore\n        /* \"#utility.yul\":1660:1733   */\n      tag_91\n        /* \"#utility.yul\":1728:1732   */\n      dup3\n        /* \"#utility.yul\":1714:1726   */\n      dup3\n        /* \"#utility.yul\":1660:1733   */\n      tag_49\n      jump\t// in\n    tag_91:\n        /* \"#utility.yul\":1652:1733   */\n      swap2\n      pop\n        /* \"#utility.yul\":1509:1744   */\n      pop\n        /* \"#utility.yul\":1835:1839   */\n      0x20\n        /* \"#utility.yul\":1828:1833   */\n      dup4\n        /* \"#utility.yul\":1824:1840   */\n      add\n        /* \"#utility.yul\":1818:1841   */\n      mload\n        /* \"#utility.yul\":1888:1891   */\n      dup5\n        /* \"#utility.yul\":1882:1886   */\n      dup3\n        /* \"#utility.yul\":1878:1892   */\n      sub\n        /* \"#utility.yul\":1871:1875   */\n      0x20\n        /* \"#utility.yul\":1866:1869   */\n      dup7\n        /* \"#utility.yul\":1862:1876   */\n      add\n        /* \"#utility.yul\":1855:1893   */\n      mstore\n        /* \"#utility.yul\":1914:1987   */\n      tag_92\n        /* \"#utility.yul\":1982:1986   */\n      dup3\n        /* \"#utility.yul\":1968:1980   */\n      dup3\n        /* \"#utility.yul\":1914:1987   */\n      tag_49\n      jump\t// in\n    tag_92:\n        /* \"#utility.yul\":1906:1987   */\n      swap2\n      pop\n        /* \"#utility.yul\":1754:1998   */\n      pop\n        /* \"#utility.yul\":2080:2084   */\n      0x40\n        /* \"#utility.yul\":2073:2078   */\n      dup4\n        /* \"#utility.yul\":2069:2085   */\n      add\n        /* \"#utility.yul\":2063:2086   */\n      mload\n        /* \"#utility.yul\":2099:2162   */\n      tag_93\n        /* \"#utility.yul\":2156:2160   */\n      0x40\n        /* \"#utility.yul\":2151:2154   */\n      dup7\n        /* \"#utility.yul\":2147:2161   */\n      add\n        /* \"#utility.yul\":2133:2145   */\n      dup3\n        /* \"#utility.yul\":2099:2162   */\n      tag_51\n      jump\t// in\n    tag_93:\n        /* \"#utility.yul\":2008:2172   */\n      pop\n        /* \"#utility.yul\":2260:2264   */\n      0x60\n        /* \"#utility.yul\":2253:2258   */\n      dup4\n        /* \"#utility.yul\":2249:2265   */\n      add\n        /* \"#utility.yul\":2243:2266   */\n      mload\n        /* \"#utility.yul\":2279:2336   */\n      tag_94\n        /* \"#utility.yul\":2330:2334   */\n      0x60\n        /* \"#utility.yul\":2325:2328   */\n      dup7\n        /* \"#utility.yul\":2321:2335   */\n      add\n        /* \"#utility.yul\":2307:2319   */\n      dup3\n        /* \"#utility.yul\":2279:2336   */\n      tag_53\n      jump\t// in\n    tag_94:\n        /* \"#utility.yul\":2182:2346   */\n      pop\n        /* \"#utility.yul\":2363:2367   */\n      dup1\n        /* \"#utility.yul\":2356:2367   */\n      swap2\n      pop\n        /* \"#utility.yul\":1463:2373   */\n      pop\n        /* \"#utility.yul\":1345:2373   */\n      swap3\n      swap2\n      pop\n      pop\n      jump\t// out\n        /* \"#utility.yul\":2379:2740   */\n    tag_11:\n        /* \"#utility.yul\":2516:2520   */\n      0x00\n        /* \"#utility.yul\":2554:2556   */\n      0x20\n        /* \"#utility.yul\":2543:2552   */\n      dup3\n        /* \"#utility.yul\":2539:2557   */\n      add\n        /* \"#utility.yul\":2531:2557   */\n      swap1\n      pop\n        /* \"#utility.yul\":2603:2612   */\n      dup2\n        /* \"#utility.yul\":2597:2601   */\n      dup2\n        /* \"#utility.yul\":2593:2613   */\n      sub\n        /* \"#utility.yul\":2589:2590   */\n      0x00\n        /* \"#utility.yul\":2578:2587   */\n      dup4\n        /* \"#utility.yul\":2574:2591   */\n      add\n        /* \"#utility.yul\":2567:2614   */\n      mstore\n        /* \"#utility.yul\":2631:2733   */\n      tag_96\n        /* \"#utility.yul\":2728:2732   */\n      dup2\n        /* \"#utility.yul\":2719:2725   */\n      dup5\n        /* \"#utility.yul\":2631:2733   */\n      tag_54\n      jump\t// in\n    tag_96:\n        /* \"#utility.yul\":2623:2733   */\n      swap1\n      pop\n        /* \"#utility.yul\":2379:2740   */\n      swap3\n      swap2\n      pop\n      pop\n      jump\t// out\n        /* \"#utility.yul\":2746:2915   */\n    tag_55:\n        /* \"#utility.yul\":2830:2841   */\n      0x00\n        /* \"#utility.yul\":2864:2870   */\n      dup3\n        /* \"#utility.yul\":2859:2862   */\n      dup3\n        /* \"#utility.yul\":2852:2871   */\n      mstore\n        /* \"#utility.yul\":2904:2908   */\n      0x20\n        /* \"#utility.yul\":2899:2902   */\n      dup3\n        /* \"#utility.yul\":2895:2909   */\n      add\n        /* \"#utility.yul\":2880:2909   */\n      swap1\n      pop\n        /* \"#utility.yul\":2746:2915   */\n      swap3\n      swap2\n      pop\n      pop\n      jump\t// out\n        /* \"#utility.yul\":2921:3298   */\n    tag_56:\n        /* \"#utility.yul\":3009:3012   */\n      0x00\n        /* \"#utility.yul\":3037:3076   */\n      tag_99\n        /* \"#utility.yul\":3070:3075   */\n      dup3\n        /* \"#utility.yul\":3037:3076   */\n      tag_45\n      jump\t// in\n    tag_99:\n        /* \"#utility.yul\":3092:3163   */\n      tag_100\n        /* \"#utility.yul\":3156:3162   */\n      dup2\n        /* \"#utility.yul\":3151:3154   */\n      dup6\n        /* \"#utility.yul\":3092:3163   */\n      tag_55\n      jump\t// in\n    tag_100:\n        /* \"#utility.yul\":3085:3163   */\n      swap4\n      pop\n        /* \"#utility.yul\":3172:3237   */\n      tag_101\n        /* \"#utility.yul\":3230:3236   */\n      dup2\n        /* \"#utility.yul\":3225:3228   */\n      dup6\n        /* \"#utility.yul\":3218:3222   */\n      0x20\n        /* \"#utility.yul\":3211:3216   */\n      dup7\n        /* \"#utility.yul\":3207:3223   */\n      add\n        /* \"#utility.yul\":3172:3237   */\n      tag_47\n      jump\t// in\n    tag_101:\n        /* \"#utility.yul\":3262:3291   */\n      tag_102\n        /* \"#utility.yul\":3284:3290   */\n      dup2\n        /* \"#utility.yul\":3262:3291   */\n      tag_48\n      jump\t// in\n    tag_102:\n        /* \"#utility.yul\":3257:3260   */\n      dup5\n        /* \"#utility.yul\":3253:3292   */\n      add\n        /* \"#utility.yul\":3246:3292   */\n      swap2\n      pop\n        /* \"#utility.yul\":3013:3298   */\n      pop\n        /* \"#utility.yul\":2921:3298   */\n      swap3\n      swap2\n      pop\n      pop\n      jump\t// out\n        /* \"#utility.yul\":3304:3818   */\n    tag_15:\n        /* \"#utility.yul\":3465:3469   */\n      0x00\n        /* \"#utility.yul\":3503:3505   */\n      0x40\n        /* \"#utility.yul\":3492:3501   */\n      dup3\n        /* \"#utility.yul\":3488:3506   */\n      add\n        /* \"#utility.yul\":3480:3506   */\n      swap1\n      pop\n        /* \"#utility.yul\":3552:3561   */\n      dup2\n        /* \"#utility.yul\":3546:3550   */\n      dup2\n        /* \"#utility.yul\":3542:3562   */\n      sub\n        /* \"#utility.yul\":3538:3539   */\n      0x00\n        /* \"#utility.yul\":3527:3536   */\n      dup4\n        /* \"#utility.yul\":3523:3540   */\n      add\n        /* \"#utility.yul\":3516:3563   */\n      mstore\n        /* \"#utility.yul\":3580:3658   */\n      tag_104\n        /* \"#utility.yul\":3653:3657   */\n      dup2\n        /* \"#utility.yul\":3644:3650   */\n      dup6\n        /* \"#utility.yul\":3580:3658   */\n      tag_56\n      jump\t// in\n    tag_104:\n        /* \"#utility.yul\":3572:3658   */\n      swap1\n      pop\n        /* \"#utility.yul\":3705:3714   */\n      dup2\n        /* \"#utility.yul\":3699:3703   */\n      dup2\n        /* \"#utility.yul\":3695:3715   */\n      sub\n        /* \"#utility.yul\":3690:3692   */\n      0x20\n        /* \"#utility.yul\":3679:3688   */\n      dup4\n        /* \"#utility.yul\":3675:3693   */\n      add\n        /* \"#utility.yul\":3668:3716   */\n      mstore\n        /* \"#utility.yul\":3733:3811   */\n      tag_105\n        /* \"#utility.yul\":3806:3810   */\n      dup2\n        /* \"#utility.yul\":3797:3803   */\n      dup5\n        /* \"#utility.yul\":3733:3811   */\n      tag_56\n      jump\t// in\n    tag_105:\n        /* \"#utility.yul\":3725:3811   */\n      swap1\n      pop\n        /* \"#utility.yul\":3304:3818   */\n      swap4\n      swap3\n      pop\n      pop\n      pop\n      jump\t// out\n        /* \"#utility.yul\":3824:4004   */\n    tag_57:\n        /* \"#utility.yul\":3872:3949   */\n      0x4e487b7100000000000000000000000000000000000000000000000000000000\n        /* \"#utility.yul\":3869:3870   */\n      0x00\n        /* \"#utility.yul\":3862:3950   */\n      mstore\n        /* \"#utility.yul\":3969:3973   */\n      0x41\n        /* \"#utility.yul\":3966:3967   */\n      0x04\n        /* \"#utility.yul\":3959:3974   */\n      mstore\n        /* \"#utility.yul\":3993:3997   */\n      0x24\n        /* \"#utility.yul\":3990:3991   */\n      0x00\n        /* \"#utility.yul\":3983:3998   */\n      revert\n        /* \"#utility.yul\":4010:4190   */\n    tag_58:\n        /* \"#utility.yul\":4058:4135   */\n      0x4e487b7100000000000000000000000000000000000000000000000000000000\n        /* \"#utility.yul\":4055:4056   */\n      0x00\n        /* \"#utility.yul\":4048:4136   */\n      mstore\n        /* \"#utility.yul\":4155:4159   */\n      0x22\n        /* \"#utility.yul\":4152:4153   */\n      0x04\n        /* \"#utility.yul\":4145:4160   */\n      mstore\n        /* \"#utility.yul\":4179:4183   */\n      0x24\n        /* \"#utility.yul\":4176:4177   */\n      0x00\n        /* \"#utility.yul\":4169:4184   */\n      revert\n        /* \"#utility.yul\":4196:4516   */\n    tag_24:\n        /* \"#utility.yul\":4240:4246   */\n      0x00\n        /* \"#utility.yul\":4277:4278   */\n      0x02\n        /* \"#utility.yul\":4271:4275   */\n      dup3\n        /* \"#utility.yul\":4267:4279   */\n      div\n        /* \"#utility.yul\":4257:4279   */\n      swap1\n      pop\n        /* \"#utility.yul\":4324:4325   */\n      0x01\n        /* \"#utility.yul\":4318:4322   */\n      dup3\n        /* \"#utility.yul\":4314:4326   */\n      and\n        /* \"#utility.yul\":4345:4363   */\n      dup1\n        /* \"#utility.yul\":4335:4416   */\n      tag_109\n      jumpi\n        /* \"#utility.yul\":4401:4405   */\n      0x7f\n        /* \"#utility.yul\":4393:4399   */\n      dup3\n        /* \"#utility.yul\":4389:4406   */\n      and\n        /* \"#utility.yul\":4379:4406   */\n      swap2\n      pop\n        /* \"#utility.yul\":4335:4416   */\n    tag_109:\n        /* \"#utility.yul\":4463:4465   */\n      0x20\n        /* \"#utility.yul\":4455:4461   */\n      dup3\n        /* \"#utility.yul\":4452:4466   */\n      lt\n        /* \"#utility.yul\":4432:4450   */\n      dup2\n        /* \"#utility.yul\":4429:4467   */\n      sub\n        /* \"#utility.yul\":4426:4510   */\n      tag_110\n      jumpi\n        /* \"#utility.yul\":4482:4500   */\n      tag_111\n      tag_58\n      jump\t// in\n    tag_111:\n        /* \"#utility.yul\":4426:4510   */\n    tag_110:\n        /* \"#utility.yul\":4247:4516   */\n      pop\n        /* \"#utility.yul\":4196:4516   */\n      swap2\n      swap1\n      pop\n      jump\t// out\n        /* \"#utility.yul\":4522:4663   */\n    tag_59:\n        /* \"#utility.yul\":4571:4575   */\n      0x00\n        /* \"#utility.yul\":4594:4597   */\n      dup2\n        /* \"#utility.yul\":4586:4597   */\n      swap1\n      pop\n        /* \"#utility.yul\":4617:4620   */\n      dup2\n        /* \"#utility.yul\":4614:4615   */\n      0x00\n        /* \"#utility.yul\":4607:4621   */\n      mstore\n        /* \"#utility.yul\":4651:4655   */\n      0x20\n        /* \"#utility.yul\":4648:4649   */\n      0x00\n        /* \"#utility.yul\":4638:4656   */\n      keccak256\n        /* \"#utility.yul\":4630:4656   */\n      swap1\n      pop\n        /* \"#utility.yul\":4522:4663   */\n      swap2\n      swap1\n      pop\n      jump\t// out\n        /* \"#utility.yul\":4669:4762   */\n    tag_60:\n        /* \"#utility.yul\":4706:4712   */\n      0x00\n        /* \"#utility.yul\":4753:4755   */\n      0x20\n        /* \"#utility.yul\":4748:4750   */\n      0x1f\n        /* \"#utility.yul\":4741:4746   */\n      dup4\n        /* \"#utility.yul\":4737:4751   */\n      add\n        /* \"#utility.yul\":4733:4756   */\n      div\n        /* \"#utility.yul\":4723:4756   */\n      swap1\n      pop\n        /* \"#utility.yul\":4669:4762   */\n      swap2\n      swap1\n      pop\n      jump\t// out\n        /* \"#utility.yul\":4768:4875   */\n    tag_61:\n        /* \"#utility.yul\":4812:4820   */\n      0x00\n        /* \"#utility.yul\":4862:4867   */\n      dup3\n        /* \"#utility.yul\":4856:4860   */\n      dup3\n        /* \"#utility.yul\":4852:4868   */\n      shl\n        /* \"#utility.yul\":4831:4868   */\n      swap1\n      pop\n        /* \"#utility.yul\":4768:4875   */\n      swap3\n      swap2\n      pop\n      pop\n      jump\t// out\n        /* \"#utility.yul\":4881:5274   */\n    tag_62:\n        /* \"#utility.yul\":4950:4956   */\n      0x00\n        /* \"#utility.yul\":5000:5001   */\n      0x08\n        /* \"#utility.yul\":4988:4998   */\n      dup4\n        /* \"#utility.yul\":4984:5002   */\n      mul\n        /* \"#utility.yul\":5023:5120   */\n      tag_116\n        /* \"#utility.yul\":5053:5119   */\n      0xffffffffffffffffffffffffffffffffffffffffffffffffffffffffffffffff\n        /* \"#utility.yul\":5042:5051   */\n      dup3\n        /* \"#utility.yul\":5023:5120   */\n      tag_61\n      jump\t// in\n    tag_116:\n        /* \"#utility.yul\":5141:5180   */\n      tag_117\n        /* \"#utility.yul\":5171:5179   */\n      dup7\n        /* \"#utility.yul\":5160:5169   */\n      dup4\n        /* \"#utility.yul\":5141:5180   */\n      tag_61\n      jump\t// in\n    tag_117:\n        /* \"#utility.yul\":5129:5180   */\n      swap6\n      pop\n        /* \"#utility.yul\":5213:5217   */\n      dup1\n        /* \"#utility.yul\":5209:5218   */\n      not\n        /* \"#utility.yul\":5202:5207   */\n      dup5\n        /* \"#utility.yul\":5198:5219   */\n      and\n        /* \"#utility.yul\":5189:5219   */\n      swap4\n      pop\n        /* \"#utility.yul\":5262:5266   */\n      dup1\n        /* \"#utility.yul\":5252:5260   */\n      dup7\n        /* \"#utility.yul\":5248:5267   */\n      and\n        /* \"#utility.yul\":5241:5246   */\n      dup5\n        /* \"#utility.yul\":5238:5268   */\n      or\n        /* \"#utility.yul\":5228:5268   */\n      swap3\n      pop\n        /* \"#utility.yul\":4957:5274   */\n      pop\n      pop\n        /* \"#utility.yul\":4881:5274   */\n      swap4\n      swap3\n      pop\n      pop\n      pop\n      jump\t// out\n        /* \"#utility.yul\":5280:5340   */\n    tag_63:\n        /* \"#utility.yul\":5308:5311   */\n      0x00\n        /* \"#utility.yul\":5329:5334   */\n      dup2\n        /* \"#utility.yul\":5322:5334   */\n      swap1\n      pop\n        /* \"#utility.yul\":5280:5340   */\n      swap2\n      swap1\n      pop\n      jump\t// out\n        /* \"#utility.yul\":5346:5488   */\n    tag_64:\n        /* \"#utility.yul\":5396:5405   */\n      0x00\n        /* \"#utility.yul\":5429:5482   */\n      tag_120\n        /* \"#utility.yul\":5447:5481   */\n      tag_121\n        /* \"#utility.yul\":5456:5480   */\n      tag_122\n        /* \"#utility.yul\":5474:5479   */\n      dup5\n        /* \"#utility.yul\":5456:5480   */\n      tag_50\n      jump\t// in\n    tag_122:\n        /* \"#utility.yul\":5447:5481   */\n      tag_63\n      jump\t// in\n    tag_121:\n        /* \"#utility.yul\":5429:5482   */\n      tag_50\n      jump\t// in\n    tag_120:\n        /* \"#utility.yul\":5416:5482   */\n      swap1\n      pop\n        /* \"#utility.yul\":5346:5488   */\n      swap2\n      swap1\n      pop\n      jump\t// out\n        /* \"#utility.yul\":5494:5569   */\n    tag_65:\n        /* \"#utility.yul\":5537:5540   */\n      0x00\n        /* \"#utility.yul\":5558:5563   */\n      dup2\n        /* \"#utility.yul\":5551:5563   */\n      swap1\n      pop\n        /* \"#utility.yul\":5494:5569   */\n      swap2\n      swap1\n      pop\n      jump\t// out\n        /* \"#utility.yul\":5575:5844   */\n    tag_66:\n        /* \"#utility.yul\":5685:5724   */\n      tag_125\n        /* \"#utility.yul\":5716:5723   */\n      dup4\n        /* \"#utility.yul\":5685:5724   */\n      tag_64\n      jump\t// in\n    tag_125:\n        /* \"#utility.yul\":5746:5837   */\n      tag_126\n        /* \"#utility.yul\":5795:5836   */\n      tag_127\n        /* \"#utility.yul\":5819:5835   */\n      dup3\n        /* \"#utility.yul\":5795:5836   */\n      tag_65\n      jump\t// in\n    tag_127:\n        /* \"#utility.yul\":5787:5793   */\n      dup5\n        /* \"#utility.yul\":5780:5784   */\n      dup5\n        /* \"#utility.yul\":5774:5785   */\n      sload\n        /* \"#utility.yul\":5746:5837   */\n      tag_62\n      jump\t// in\n    tag_126:\n        /* \"#utility.yul\":5740:5744   */\n      dup3\n        /* \"#utility.yul\":5733:5838   */\n      sstore\n        /* \"#utility.yul\":5651:5844   */\n      pop\n        /* \"#utility.yul\":5575:5844   */\n      pop\n      pop\n      pop\n      jump\t// out\n        /* \"#utility.yul\":5850:5923   */\n    tag_67:\n        /* \"#utility.yul\":5895:5898   */\n      0x00\n        /* \"#utility.yul\":5916:5917   */\n      0x00\n        /* \"#utility.yul\":5909:5917   */\n      swap1\n      pop\n        /* \"#utility.yul\":5850:5923   */\n      swap1\n      jump\t// out\n        /* \"#utility.yul\":5929:6118   */\n    tag_68:\n        /* \"#utility.yul\":6006:6038   */\n      tag_130\n      tag_67\n      jump\t// in\n    tag_130:\n        /* \"#utility.yul\":6047:6112   */\n      tag_131\n        /* \"#utility.yul\":6105:6111   */\n      dup2\n        /* \"#utility.yul\":6097:6103   */\n      dup5\n        /* \"#utility.yul\":6091:6095   */\n      dup5\n        /* \"#utility.yul\":6047:6112   */\n      tag_66\n      jump\t// in\n    tag_131:\n        /* \"#utility.yul\":5982:6118   */\n      pop\n        /* \"#utility.yul\":5929:6118   */\n      pop\n      pop\n      jump\t// out\n        /* \"#utility.yul\":6124:6310   */\n    tag_69:\n        /* \"#utility.yul\":6184:6304   */\n    tag_133:\n        /* \"#utility.yul\":6201:6204   */\n      dup2\n        /* \"#utility.yul\":6194:6199   */\n      dup2\n        /* \"#utility.yul\":6191:6205   */\n      lt\n        /* \"#utility.yul\":6184:6304   */\n      iszero\n      tag_135\n      jumpi\n        /* \"#utility.yul\":6255:6294   */\n      tag_136\n        /* \"#utility.yul\":6292:6293   */\n      0x00\n        /* \"#utility.yul\":6285:6290   */\n      dup3\n        /* \"#utility.yul\":6255:6294   */\n      tag_68\n      jump\t// in\n    tag_136:\n        /* \"#utility.yul\":6228:6229   */\n      0x01\n        /* \"#utility.yul\":6221:6226   */\n      dup2\n        /* \"#utility.yul\":6217:6230   */\n      add\n        /* \"#utility.yul\":6208:6230   */\n      swap1\n      pop\n        /* \"#utility.yul\":6184:6304   */\n      jump(tag_133)\n    tag_135:\n        /* \"#utility.yul\":6124:6310   */\n      pop\n      pop\n      jump\t// out\n        /* \"#utility.yul\":6316:6859   */\n    tag_70:\n        /* \"#utility.yul\":6417:6419   */\n      0x1f\n        /* \"#utility.yul\":6412:6415   */\n      dup3\n        /* \"#utility.yul\":6409:6420   */\n      gt\n        /* \"#utility.yul\":6406:6852   */\n      iszero\n      tag_138\n      jumpi\n        /* \"#utility.yul\":6451:6489   */\n      tag_139\n        /* \"#utility.yul\":6483:6488   */\n      dup2\n        /* \"#utility.yul\":6451:6489   */\n      tag_59\n      jump\t// in\n    tag_139:\n        /* \"#utility.yul\":6535:6564   */\n      tag_140\n        /* \"#utility.yul\":6553:6563   */\n      dup5\n        /* \"#utility.yul\":6535:6564   */\n      tag_60\n      jump\t// in\n    tag_140:\n        /* \"#utility.yul\":6525:6533   */\n      dup2\n        /* \"#utility.yul\":6521:6565   */\n      add\n        /* \"#utility.yul\":6718:6720   */\n      0x20\n        /* \"#utility.yul\":6706:6716   */\n      dup6\n        /* \"#utility.yul\":6703:6721   */\n      lt\n        /* \"#utility.yul\":6700:6749   */\n      iszero\n      tag_141\n      jumpi\n        /* \"#utility.yul\":6739:6747   */\n      dup2\n        /* \"#utility.yul\":6724:6747   */\n      swap1\n      pop\n        /* \"#utility.yul\":6700:6749   */\n    tag_141:\n        /* \"#utility.yul\":6762:6842   */\n      tag_142\n        /* \"#utility.yul\":6818:6840   */\n      tag_143\n        /* \"#utility.yul\":6836:6839   */\n      dup6\n        /* \"#utility.yul\":6818:6840   */\n      tag_60\n      jump\t// in\n    tag_143:\n        /* \"#utility.yul\":6808:6816   */\n      dup4\n        /* \"#utility.yul\":6804:6841   */\n      add\n        /* \"#utility.yul\":6791:6802   */\n      dup3\n        /* \"#utility.yul\":6762:6842   */\n      tag_69\n      jump\t// in\n    tag_142:\n        /* \"#utility.yul\":6421:6852   */\n      pop\n      pop\n        /* \"#utility.yul\":6406:6852   */\n    tag_138:\n        /* \"#utility.yul\":6316:6859   */\n      pop\n      pop\n      pop\n      jump\t// out\n        /* \"#utility.yul\":6865:6982   */\n    tag_71:\n        /* \"#utility.yul\":6919:6927   */\n      0x00\n        /* \"#utility.yul\":6969:6974   */\n      dup3\n        /* \"#utility.yul\":6963:6967   */\n      dup3\n        /* \"#utility.yul\":6959:6975   */\n      shr\n        /* \"#utility.yul\":6938:6975   */\n      swap1\n      pop\n        /* \"#utility.yul\":6865:6982   */\n      swap3\n      swap2\n      pop\n      pop\n      jump\t// out\n        /* \"#utility.yul\":6988:7157   */\n    tag_72:\n        /* \"#utility.yul\":7032:7038   */\n      0x00\n        /* \"#utility.yul\":7065:7116   */\n      tag_146\n        /* \"#utility.yul\":7113:7114   */\n      0x00\n        /* \"#utility.yul\":7109:7115   */\n      not\n        /* \"#utility.yul\":7101:7106   */\n      dup5\n        /* \"#utility.yul\":7098:7099   */\n      0x08\n        /* \"#utility.yul\":7094:7107   */\n      mul\n        /* \"#utility.yul\":7065:7116   */\n      tag_71\n      jump\t// in\n    tag_146:\n        /* \"#utility.yul\":7061:7117   */\n      not\n        /* \"#utility.yul\":7146:7150   */\n      dup1\n        /* \"#utility.yul\":7140:7144   */\n      dup4\n        /* \"#utility.yul\":7136:7151   */\n      and\n        /* \"#utility.yul\":7126:7151   */\n      swap2\n      pop\n        /* \"#utility.yul\":7039:7157   */\n      pop\n        /* \"#utility.yul\":6988:7157   */\n      swap3\n      swap2\n      pop\n      pop\n      jump\t// out\n        /* \"#utility.yul\":7162:7457   */\n    tag_73:\n        /* \"#utility.yul\":7238:7242   */\n      0x00\n        /* \"#utility.yul\":7384:7413   */\n      tag_148\n        /* \"#utility.yul\":7409:7412   */\n      dup4\n        /* \"#utility.yul\":7403:7407   */\n      dup4\n        /* \"#utility.yul\":7384:7413   */\n      tag_72\n      jump\t// in\n    tag_148:\n        /* \"#utility.yul\":7376:7413   */\n      swap2\n      pop\n        /* \"#utility.yul\":7446:7449   */\n      dup3\n        /* \"#utility.yul\":7443:7444   */\n      0x02\n        /* \"#utility.yul\":7439:7450   */\n      mul\n        /* \"#utility.yul\":7433:7437   */\n      dup3\n        /* \"#utility.yul\":7430:7451   */\n      or\n        /* \"#utility.yul\":7422:7451   */\n      swap1\n      pop\n        /* \"#utility.yul\":7162:7457   */\n      swap3\n      swap2\n      pop\n      pop\n      jump\t// out\n        /* \"#utility.yul\":7462:8857   */\n    tag_18:\n        /* \"#utility.yul\":7579:7616   */\n      tag_150\n        /* \"#utility.yul\":7612:7615   */\n      dup3\n        /* \"#utility.yul\":7579:7616   */\n      tag_45\n      jump\t// in\n    tag_150:\n        /* \"#utility.yul\":7681:7699   */\n      0xffffffffffffffff\n        /* \"#utility.yul\":7673:7679   */\n      dup2\n        /* \"#utility.yul\":7670:7700   */\n      gt\n        /* \"#utility.yul\":7667:7723   */\n      iszero\n      tag_151\n      jumpi\n        /* \"#utility.yul\":7703:7721   */\n      tag_152\n      tag_57\n      jump\t// in\n    tag_152:\n        /* \"#utility.yul\":7667:7723   */\n    tag_151:\n        /* \"#utility.yul\":7747:7785   */\n      tag_153\n        /* \"#utility.yul\":7779:7783   */\n      dup3\n        /* \"#utility.yul\":7773:7784   */\n      sload\n        /* \"#utility.yul\":7747:7785   */\n      tag_24\n      jump\t// in\n    tag_153:\n        /* \"#utility.yul\":7832:7899   */\n      tag_154\n        /* \"#utility.yul\":7892:7898   */\n      dup3\n        /* \"#utility.yul\":7884:7890   */\n      dup3\n        /* \"#utility.yul\":7878:7882   */\n      dup6\n        /* \"#utility.yul\":7832:7899   */\n      tag_70\n      jump\t// in\n    tag_154:\n        /* \"#utility.yul\":7926:7927   */\n      0x00\n        /* \"#utility.yul\":7950:7954   */\n      0x20\n        /* \"#utility.yul\":7937:7954   */\n      swap1\n      pop\n        /* \"#utility.yul\":7982:7984   */\n      0x1f\n        /* \"#utility.yul\":7974:7980   */\n      dup4\n        /* \"#utility.yul\":7971:7985   */\n      gt\n        /* \"#utility.yul\":7999:8000   */\n      0x01\n        /* \"#utility.yul\":7994:8612   */\n      dup2\n      eq\n      tag_156\n      jumpi\n        /* \"#utility.yul\":8656:8657   */\n      0x00\n        /* \"#utility.yul\":8673:8679   */\n      dup5\n        /* \"#utility.yul\":8670:8747   */\n      iszero\n      tag_157\n      jumpi\n        /* \"#utility.yul\":8722:8731   */\n      dup3\n        /* \"#utility.yul\":8717:8720   */\n      dup8\n        /* \"#utility.yul\":8713:8732   */\n      add\n        /* \"#utility.yul\":8707:8733   */\n      mload\n        /* \"#utility.yul\":8698:8733   */\n      swap1\n      pop\n        /* \"#utility.yul\":8670:8747   */\n    tag_157:\n        /* \"#utility.yul\":8773:8840   */\n      tag_158\n        /* \"#utility.yul\":8833:8839   */\n      dup6\n        /* \"#utility.yul\":8826:8831   */\n      dup3\n        /* \"#utility.yul\":8773:8840   */\n      tag_73\n      jump\t// in\n    tag_158:\n        /* \"#utility.yul\":8767:8771   */\n      dup7\n        /* \"#utility.yul\":8760:8841   */\n      sstore\n        /* \"#utility.yul\":8629:8851   */\n      pop\n        /* \"#utility.yul\":7964:8851   */\n      jump(tag_155)\n        /* \"#utility.yul\":7994:8612   */\n    tag_156:\n        /* \"#utility.yul\":8046:8050   */\n      0x1f\n        /* \"#utility.yul\":8042:8051   */\n      not\n        /* \"#utility.yul\":8034:8040   */\n      dup5\n        /* \"#utility.yul\":8030:8052   */\n      and\n        /* \"#utility.yul\":8080:8117   */\n      tag_159\n        /* \"#utility.yul\":8112:8116   */\n      dup7\n        /* \"#utility.yul\":8080:8117   */\n      tag_59\n      jump\t// in\n    tag_159:\n        /* \"#utility.yul\":8139:8140   */\n      0x00\n        /* \"#utility.yul\":8153:8361   */\n    tag_160:\n        /* \"#utility.yul\":8167:8174   */\n      dup3\n        /* \"#utility.yul\":8164:8165   */\n      dup2\n        /* \"#utility.yul\":8161:8175   */\n      lt\n        /* \"#utility.yul\":8153:8361   */\n      iszero\n      tag_162\n      jumpi\n        /* \"#utility.yul\":8246:8255   */\n      dup5\n        /* \"#utility.yul\":8241:8244   */\n      dup10\n        /* \"#utility.yul\":8237:8256   */\n      add\n        /* \"#utility.yul\":8231:8257   */\n      mload\n        /* \"#utility.yul\":8223:8229   */\n      dup3\n        /* \"#utility.yul\":8216:8258   */\n      sstore\n        /* \"#utility.yul\":8297:8298   */\n      0x01\n        /* \"#utility.yul\":8289:8295   */\n      dup3\n        /* \"#utility.yul\":8285:8299   */\n      add\n        /* \"#utility.yul\":8275:8299   */\n      swap2\n      pop\n        /* \"#utility.yul\":8344:8346   */\n      0x20\n        /* \"#utility.yul\":8333:8342   */\n      dup6\n        /* \"#utility.yul\":8329:8347   */\n      add\n        /* \"#utility.yul\":8316:8347   */\n      swap5\n      pop\n        /* \"#utility.yul\":8190:8194   */\n      0x20\n        /* \"#utility.yul\":8187:8188   */\n      dup2\n        /* \"#utility.yul\":8183:8195   */\n      add\n        /* \"#utility.yul\":8178:8195   */\n      swap1\n      pop\n        /* \"#utility.yul\":8153:8361   */\n      jump(tag_160)\n    tag_162:\n        /* \"#utility.yul\":8389:8395   */\n      dup7\n        /* \"#utility.yul\":8380:8387   */\n      dup4\n        /* \"#utility.yul\":8377:8396   */\n      lt\n        /* \"#utility.yul\":8374:8553   */\n      iszero\n      tag_163\n      jumpi\n        /* \"#utility.yul\":8447:8456   */\n      dup5\n        /* \"#utility.yul\":8442:8445   */\n      dup10\n        /* \"#utility.yul\":8438:8457   */\n      add\n        /* \"#utility.yul\":8432:8458   */\n      mload\n        /* \"#utility.yul\":8490:8538   */\n      tag_164\n        /* \"#utility.yul\":8532:8536   */\n      0x1f\n        /* \"#utility.yul\":8524:8530   */\n      dup10\n        /* \"#utility.yul\":8520:8537   */\n      and\n        /* \"#utility.yul\":8509:8518   */\n      dup3\n        /* \"#utility.yul\":8490:8538   */\n      tag_72\n      jump\t// in\n    tag_164:\n        /* \"#utility.yul\":8482:8488   */\n      dup4\n        /* \"#utility.yul\":8475:8539   */\n      sstore\n        /* \"#utility.yul\":8397:8553   */\n      pop\n        /* \"#utility.yul\":8374:8553   */\n    tag_163:\n        /* \"#utility.yul\":8599:8600   */\n      0x01\n        /* \"#utility.yul\":8595:8596   */\n      0x02\n        /* \"#utility.yul\":8587:8593   */\n      dup9\n        /* \"#utility.yul\":8583:8597   */\n      mul\n        /* \"#utility.yul\":8579:8601   */\n      add\n        /* \"#utility.yul\":8573:8577   */\n      dup9\n        /* \"#utility.yul\":8566:8602   */\n      sstore\n        /* \"#utility.yul\":8001:8612   */\n      pop\n      pop\n      pop\n        /* \"#utility.yul\":7964:8851   */\n    tag_155:\n      pop\n        /* \"#utility.yul\":7554:8857   */\n      pop\n      pop\n      pop\n        /* \"#utility.yul\":7462:8857   */\n      pop\n      pop\n      jump\t// out\n\n    auxdata: 0xa2646970667358221220a49b8924dae9bd586d8795b7ec95877b7db8f7dab7e3e623f9620d0ead93bf1264736f6c634300081e0033\n}\n",
				"bytecode": {
					"linkReferences": {},
					"object": "608060405260405180608001604052806040518060400160405280600481526020017f427564690000000000000000000000000000000000000000000000000000000081525081526020016040518060400160405280600981526020017f4c616b692d6c616b6900000000000000000000000000000000000000000000008152508152602001601581526020015f151581525060045f820151815f0190816100a79190610337565b5060208201518160010190816100bd9190610337565b50604082015181600201556060820151816003015f6101000a81548160ff02191690831515021790555050503480156100f4575f5ffd5b50610406565b5f81519050919050565b7f4e487b71000000000000000000000000000000000000000000000000000000005f52604160045260245ffd5b7f4e487b71000000000000000000000000000000000000000000000000000000005f52602260045260245ffd5b5f600282049050600182168061017557607f821691505b60208210810361018857610187610131565b5b50919050565b5f819050815f5260205f209050919050565b5f6020601f8301049050919050565b5f82821b905092915050565b5f600883026101ea7fffffffffffffffffffffffffffffffffffffffffffffffffffffffffffffffff826101af565b6101f486836101af565b95508019841693508086168417925050509392505050565b5f819050919050565b5f819050919050565b5f61023861023361022e8461020c565b610215565b61020c565b9050919050565b5f819050919050565b6102518361021e565b61026561025d8261023f565b8484546101bb565b825550505050565b5f5f905090565b61027c61026d565b610287818484610248565b505050565b5b818110156102aa5761029f5f82610274565b60018101905061028d565b5050565b601f8211156102ef576102c08161018e565b6102c9846101a0565b810160208510156102d8578190505b6102ec6102e4856101a0565b83018261028c565b50505b505050565b5f82821c905092915050565b5f61030f5f19846008026102f4565b1980831691505092915050565b5f6103278383610300565b9150826002028217905092915050565b610340826100fa565b67ffffffffffffffff81111561035957610358610104565b5b610363825461015e565b61036e8282856102ae565b5f60209050601f83116001811461039f575f841561038d578287015190505b610397858261031c565b8655506103fe565b601f1984166103ad8661018e565b5f5b828110156103d4578489015182556001820191506020850194506020810190506103af565b868310156103f157848901516103ed601f891682610300565b8355505b6001600288020188555050505b505050505050565b6108f2806104135f395ff3fe608060405234801561000f575f5ffd5b506004361061003f575f3560e01c806347c0f1f6146100435780638ec4dc951461004d578063c133d8641461006b575b5f5ffd5b61004b61008a565b005b610055610171565b6040516100629190610526565b60405180910390f35b6100736102cd565b60405161008192919061058e565b60405180910390f35b60405180608001604052806040518060400160405280600581526020017f41686d616400000000000000000000000000000000000000000000000000000081525081526020016040518060400160405280600981526020017f4c616b692d6c616b6900000000000000000000000000000000000000000000008152508152602001601481526020015f15158152505f5f820151815f01908161012c91906107ed565b50602082015181600101908161014291906107ed565b50604082015181600201556060820151816003015f6101000a81548160ff021916908315150217905550905050565b6101796103f5565b5f6040518060800160405290815f820180546101949061061d565b80601f01602080910402602001604051908101604052809291908181526020018280546101c09061061d565b801561020b5780601f106101e25761010080835404028352916020019161020b565b820191905f5260205f20905b8154815290600101906020018083116101ee57829003601f168201915b505050505081526020016001820180546102249061061d565b80601f01602080910402602001604051908101604052809291908181526020018280546102509061061d565b801561029b5780601f106102725761010080835404028352916020019161029b565b820191905f5260205f20905b81548152906001019060200180831161027e57829003601f168201915b5050505050815260200160028201548152602001600382015f9054906101000a900460ff161515151581525050905090565b60608060045f0160046001018180546102e59061061d565b80601f01602080910402602001604051908101604052809291908181526020018280546103119061061d565b801561035c5780601f106103335761010080835404028352916020019161035c565b820191905f5260205f20905b81548152906001019060200180831161033f57829003601f168201915b5050505050915080805461036f9061061d565b80601f016020809104026020016040519081016040528092919081815260200182805461039b9061061d565b80156103e65780601f106103bd576101008083540402835291602001916103e6565b820191905f5260205f20905b8154815290600101906020018083116103c957829003601f168201915b50505050509050915091509091565b604051806080016040528060608152602001606081526020015f81526020015f151581525090565b5f81519050919050565b5f82825260208201905092915050565b8281835e5f83830152505050565b5f601f19601f8301169050919050565b5f61045f8261041d565b6104698185610427565b9350610479818560208601610437565b61048281610445565b840191505092915050565b5f819050919050565b61049f8161048d565b82525050565b5f8115159050919050565b6104b9816104a5565b82525050565b5f608083015f8301518482035f8601526104d98282610455565b915050602083015184820360208601526104f38282610455565b91505060408301516105086040860182610496565b50606083015161051b60608601826104b0565b508091505092915050565b5f6020820190508181035f83015261053e81846104bf565b905092915050565b5f82825260208201905092915050565b5f6105608261041d565b61056a8185610546565b935061057a818560208601610437565b61058381610445565b840191505092915050565b5f6040820190508181035f8301526105a68185610556565b905081810360208301526105ba8184610556565b90509392505050565b7f4e487b71000000000000000000000000000000000000000000000000000000005f52604160045260245ffd5b7f4e487b71000000000000000000000000000000000000000000000000000000005f52602260045260245ffd5b5f600282049050600182168061063457607f821691505b602082108103610647576106466105f0565b5b50919050565b5f819050815f5260205f209050919050565b5f6020601f8301049050919050565b5f82821b905092915050565b5f600883026106a97fffffffffffffffffffffffffffffffffffffffffffffffffffffffffffffffff8261066e565b6106b3868361066e565b95508019841693508086168417925050509392505050565b5f819050919050565b5f6106ee6106e96106e48461048d565b6106cb565b61048d565b9050919050565b5f819050919050565b610707836106d4565b61071b610713826106f5565b84845461067a565b825550505050565b5f5f905090565b610732610723565b61073d8184846106fe565b505050565b5b81811015610760576107555f8261072a565b600181019050610743565b5050565b601f8211156107a5576107768161064d565b61077f8461065f565b8101602085101561078e578190505b6107a261079a8561065f565b830182610742565b50505b505050565b5f82821c905092915050565b5f6107c55f19846008026107aa565b1980831691505092915050565b5f6107dd83836107b6565b9150826002028217905092915050565b6107f68261041d565b67ffffffffffffffff81111561080f5761080e6105c3565b5b610819825461061d565b610824828285610764565b5f60209050601f831160018114610855575f8415610843578287015190505b61084d85826107d2565b8655506108b4565b601f1984166108638661064d565b5f5b8281101561088a57848901518255600182019150602085019450602081019050610865565b868310156108a757848901516108a3601f8916826107b6565b8355505b6001600288020188555050505b50505050505056fea2646970667358221220a49b8924dae9bd586d8795b7ec95877b7db8f7dab7e3e623f9620d0ead93bf1264736f6c634300081e0033",
					"opcodes": "PUSH1 0x80 PUSH1 0x40 MSTORE PUSH1 0x40 MLOAD DUP1 PUSH1 0x80 ADD PUSH1 0x40 MSTORE DUP1 PUSH1 0x40 MLOAD DUP1 PUSH1 0x40 ADD PUSH1 0x40 MSTORE DUP1 PUSH1 0x4 DUP2 MSTORE PUSH1 0x20 ADD PUSH32 0x4275646900000000000000000000000000000000000000000000000000000000 DUP2 MSTORE POP DUP2 MSTORE PUSH1 0x20 ADD PUSH1 0x40 MLOAD DUP1 PUSH1 0x40 ADD PUSH1 0x40 MSTORE DUP1 PUSH1 0x9 DUP2 MSTORE PUSH1 0x20 ADD PUSH32 0x4C616B692D6C616B690000000000000000000000000000000000000000000000 DUP2 MSTORE POP DUP2 MSTORE PUSH1 0x20 ADD PUSH1 0x15 DUP2 MSTORE PUSH1 0x20 ADD PUSH0 ISZERO ISZERO DUP2 MSTORE POP PUSH1 0x4 PUSH0 DUP3 ADD MLOAD DUP2 PUSH0 ADD SWAP1 DUP2 PUSH2 0xA7 SWAP2 SWAP1 PUSH2 0x337 JUMP JUMPDEST POP PUSH1 0x20 DUP3 ADD MLOAD DUP2 PUSH1 0x1 ADD SWAP1 DUP2 PUSH2 0xBD SWAP2 SWAP1 PUSH2 0x337 JUMP JUMPDEST POP PUSH1 0x40 DUP3 ADD MLOAD DUP2 PUSH1 0x2 ADD SSTORE PUSH1 0x60 DUP3 ADD MLOAD DUP2 PUSH1 0x3 ADD PUSH0 PUSH2 0x100 EXP DUP2 SLOAD DUP2 PUSH1 0xFF MUL NOT AND SWAP1 DUP4 ISZERO ISZERO MUL OR SWAP1 SSTORE POP POP POP CALLVALUE DUP1 ISZERO PUSH2 0xF4 JUMPI PUSH0 PUSH0 REVERT JUMPDEST POP PUSH2 0x406 JUMP JUMPDEST PUSH0 DUP2 MLOAD SWAP1 POP SWAP2 SWAP1 POP JUMP JUMPDEST PUSH32 0x4E487B7100000000000000000000000000000000000000000000000000000000 PUSH0 MSTORE PUSH1 0x41 PUSH1 0x4 MSTORE PUSH1 0x24 PUSH0 REVERT JUMPDEST PUSH32 0x4E487B7100000000000000000000000000000000000000000000000000000000 PUSH0 MSTORE PUSH1 0x22 PUSH1 0x4 MSTORE PUSH1 0x24 PUSH0 REVERT JUMPDEST PUSH0 PUSH1 0x2 DUP3 DIV SWAP1 POP PUSH1 0x1 DUP3 AND DUP1 PUSH2 0x175 JUMPI PUSH1 0x7F DUP3 AND SWAP2 POP JUMPDEST PUSH1 0x20 DUP3 LT DUP2 SUB PUSH2 0x188 JUMPI PUSH2 0x187 PUSH2 0x131 JUMP JUMPDEST JUMPDEST POP SWAP2 SWAP1 POP JUMP JUMPDEST PUSH0 DUP2 SWAP1 POP DUP2 PUSH0 MSTORE PUSH1 0x20 PUSH0 KECCAK256 SWAP1 POP SWAP2 SWAP1 POP JUMP JUMPDEST PUSH0 PUSH1 0x20 PUSH1 0x1F DUP4 ADD DIV SWAP1 POP SWAP2 SWAP1 POP JUMP JUMPDEST PUSH0 DUP3 DUP3 SHL SWAP1 POP SWAP3 SWAP2 POP POP JUMP JUMPDEST PUSH0 PUSH1 0x8 DUP4 MUL PUSH2 0x1EA PUSH32 0xFFFFFFFFFFFFFFFFFFFFFFFFFFFFFFFFFFFFFFFFFFFFFFFFFFFFFFFFFFFFFFFF DUP3 PUSH2 0x1AF JUMP JUMPDEST PUSH2 0x1F4 DUP7 DUP4 PUSH2 0x1AF JUMP JUMPDEST SWAP6 POP DUP1 NOT DUP5 AND SWAP4 POP DUP1 DUP7 AND DUP5 OR SWAP3 POP POP POP SWAP4 SWAP3 POP POP POP JUMP JUMPDEST PUSH0 DUP2 SWAP1 POP SWAP2 SWAP1 POP JUMP JUMPDEST PUSH0 DUP2 SWAP1 POP SWAP2 SWAP1 POP JUMP JUMPDEST PUSH0 PUSH2 0x238 PUSH2 0x233 PUSH2 0x22E DUP5 PUSH2 0x20C JUMP JUMPDEST PUSH2 0x215 JUMP JUMPDEST PUSH2 0x20C JUMP JUMPDEST SWAP1 POP SWAP2 SWAP1 POP JUMP JUMPDEST PUSH0 DUP2 SWAP1 POP SWAP2 SWAP1 POP JUMP JUMPDEST PUSH2 0x251 DUP4 PUSH2 0x21E JUMP JUMPDEST PUSH2 0x265 PUSH2 0x25D DUP3 PUSH2 0x23F JUMP JUMPDEST DUP5 DUP5 SLOAD PUSH2 0x1BB JUMP JUMPDEST DUP3 SSTORE POP POP POP POP JUMP JUMPDEST PUSH0 PUSH0 SWAP1 POP SWAP1 JUMP JUMPDEST PUSH2 0x27C PUSH2 0x26D JUMP JUMPDEST PUSH2 0x287 DUP2 DUP5 DUP5 PUSH2 0x248 JUMP JUMPDEST POP POP POP JUMP JUMPDEST JUMPDEST DUP2 DUP2 LT ISZERO PUSH2 0x2AA JUMPI PUSH2 0x29F PUSH0 DUP3 PUSH2 0x274 JUMP JUMPDEST PUSH1 0x1 DUP2 ADD SWAP1 POP PUSH2 0x28D JUMP JUMPDEST POP POP JUMP JUMPDEST PUSH1 0x1F DUP3 GT ISZERO PUSH2 0x2EF JUMPI PUSH2 0x2C0 DUP2 PUSH2 0x18E JUMP JUMPDEST PUSH2 0x2C9 DUP5 PUSH2 0x1A0 JUMP JUMPDEST DUP2 ADD PUSH1 0x20 DUP6 LT ISZERO PUSH2 0x2D8 JUMPI DUP2 SWAP1 POP JUMPDEST PUSH2 0x2EC PUSH2 0x2E4 DUP6 PUSH2 0x1A0 JUMP JUMPDEST DUP4 ADD DUP3 PUSH2 0x28C JUMP JUMPDEST POP POP JUMPDEST POP POP POP JUMP JUMPDEST PUSH0 DUP3 DUP3 SHR SWAP1 POP SWAP3 SWAP2 POP POP JUMP JUMPDEST PUSH0 PUSH2 0x30F PUSH0 NOT DUP5 PUSH1 0x8 MUL PUSH2 0x2F4 JUMP JUMPDEST NOT DUP1 DUP4 AND SWAP2 POP POP SWAP3 SWAP2 POP POP JUMP JUMPDEST PUSH0 PUSH2 0x327 DUP4 DUP4 PUSH2 0x300 JUMP JUMPDEST SWAP2 POP DUP3 PUSH1 0x2 MUL DUP3 OR SWAP1 POP SWAP3 SWAP2 POP POP JUMP JUMPDEST PUSH2 0x340 DUP3 PUSH2 0xFA JUMP JUMPDEST PUSH8 0xFFFFFFFFFFFFFFFF DUP2 GT ISZERO PUSH2 0x359 JUMPI PUSH2 0x358 PUSH2 0x104 JUMP JUMPDEST JUMPDEST PUSH2 0x363 DUP3 SLOAD PUSH2 0x15E JUMP JUMPDEST PUSH2 0x36E DUP3 DUP3 DUP6 PUSH2 0x2AE JUMP JUMPDEST PUSH0 PUSH1 0x20 SWAP1 POP PUSH1 0x1F DUP4 GT PUSH1 0x1 DUP2 EQ PUSH2 0x39F JUMPI PUSH0 DUP5 ISZERO PUSH2 0x38D JUMPI DUP3 DUP8 ADD MLOAD SWAP1 POP JUMPDEST PUSH2 0x397 DUP6 DUP3 PUSH2 0x31C JUMP JUMPDEST DUP7 SSTORE POP PUSH2 0x3FE JUMP JUMPDEST PUSH1 0x1F NOT DUP5 AND PUSH2 0x3AD DUP7 PUSH2 0x18E JUMP JUMPDEST PUSH0 JUMPDEST DUP3 DUP2 LT ISZERO PUSH2 0x3D4 JUMPI DUP5 DUP10 ADD MLOAD DUP3 SSTORE PUSH1 0x1 DUP3 ADD SWAP2 POP PUSH1 0x20 DUP6 ADD SWAP5 POP PUSH1 0x20 DUP2 ADD SWAP1 POP PUSH2 0x3AF JUMP JUMPDEST DUP7 DUP4 LT ISZERO PUSH2 0x3F1 JUMPI DUP5 DUP10 ADD MLOAD PUSH2 0x3ED PUSH1 0x1F DUP10 AND DUP3 PUSH2 0x300 JUMP JUMPDEST DUP4 SSTORE POP JUMPDEST PUSH1 0x1 PUSH1 0x2 DUP9 MUL ADD DUP9 SSTORE POP POP POP JUMPDEST POP POP POP POP POP POP JUMP JUMPDEST PUSH2 0x8F2 DUP1 PUSH2 0x413 PUSH0 CODECOPY PUSH0 RETURN INVALID PUSH1 0x80 PUSH1 0x40 MSTORE CALLVALUE DUP1 ISZERO PUSH2 0xF JUMPI PUSH0 PUSH0 REVERT JUMPDEST POP PUSH1 0x4 CALLDATASIZE LT PUSH2 0x3F JUMPI PUSH0 CALLDATALOAD PUSH1 0xE0 SHR DUP1 PUSH4 0x47C0F1F6 EQ PUSH2 0x43 JUMPI DUP1 PUSH4 0x8EC4DC95 EQ PUSH2 0x4D JUMPI DUP1 PUSH4 0xC133D864 EQ PUSH2 0x6B JUMPI JUMPDEST PUSH0 PUSH0 REVERT JUMPDEST PUSH2 0x4B PUSH2 0x8A JUMP JUMPDEST STOP JUMPDEST PUSH2 0x55 PUSH2 0x171 JUMP JUMPDEST PUSH1 0x40 MLOAD PUSH2 0x62 SWAP2 SWAP1 PUSH2 0x526 JUMP JUMPDEST PUSH1 0x40 MLOAD DUP1 SWAP2 SUB SWAP1 RETURN JUMPDEST PUSH2 0x73 PUSH2 0x2CD JUMP JUMPDEST PUSH1 0x40 MLOAD PUSH2 0x81 SWAP3 SWAP2 SWAP1 PUSH2 0x58E JUMP JUMPDEST PUSH1 0x40 MLOAD DUP1 SWAP2 SUB SWAP1 RETURN JUMPDEST PUSH1 0x40 MLOAD DUP1 PUSH1 0x80 ADD PUSH1 0x40 MSTORE DUP1 PUSH1 0x40 MLOAD DUP1 PUSH1 0x40 ADD PUSH1 0x40 MSTORE DUP1 PUSH1 0x5 DUP2 MSTORE PUSH1 0x20 ADD PUSH32 0x41686D6164000000000000000000000000000000000000000000000000000000 DUP2 MSTORE POP DUP2 MSTORE PUSH1 0x20 ADD PUSH1 0x40 MLOAD DUP1 PUSH1 0x40 ADD PUSH1 0x40 MSTORE DUP1 PUSH1 0x9 DUP2 MSTORE PUSH1 0x20 ADD PUSH32 0x4C616B692D6C616B690000000000000000000000000000000000000000000000 DUP2 MSTORE POP DUP2 MSTORE PUSH1 0x20 ADD PUSH1 0x14 DUP2 MSTORE PUSH1 0x20 ADD PUSH0 ISZERO ISZERO DUP2 MSTORE POP PUSH0 PUSH0 DUP3 ADD MLOAD DUP2 PUSH0 ADD SWAP1 DUP2 PUSH2 0x12C SWAP2 SWAP1 PUSH2 0x7ED JUMP JUMPDEST POP PUSH1 0x20 DUP3 ADD MLOAD DUP2 PUSH1 0x1 ADD SWAP1 DUP2 PUSH2 0x142 SWAP2 SWAP1 PUSH2 0x7ED JUMP JUMPDEST POP PUSH1 0x40 DUP3 ADD MLOAD DUP2 PUSH1 0x2 ADD SSTORE PUSH1 0x60 DUP3 ADD MLOAD DUP2 PUSH1 0x3 ADD PUSH0 PUSH2 0x100 EXP DUP2 SLOAD DUP2 PUSH1 0xFF MUL NOT AND SWAP1 DUP4 ISZERO ISZERO MUL OR SWAP1 SSTORE POP SWAP1 POP POP JUMP JUMPDEST PUSH2 0x179 PUSH2 0x3F5 JUMP JUMPDEST PUSH0 PUSH1 0x40 MLOAD DUP1 PUSH1 0x80 ADD PUSH1 0x40 MSTORE SWAP1 DUP2 PUSH0 DUP3 ADD DUP1 SLOAD PUSH2 0x194 SWAP1 PUSH2 0x61D JUMP JUMPDEST DUP1 PUSH1 0x1F ADD PUSH1 0x20 DUP1 SWAP2 DIV MUL PUSH1 0x20 ADD PUSH1 0x40 MLOAD SWAP1 DUP2 ADD PUSH1 0x40 MSTORE DUP1 SWAP3 SWAP2 SWAP1 DUP2 DUP2 MSTORE PUSH1 0x20 ADD DUP3 DUP1 SLOAD PUSH2 0x1C0 SWAP1 PUSH2 0x61D JUMP JUMPDEST DUP1 ISZERO PUSH2 0x20B JUMPI DUP1 PUSH1 0x1F LT PUSH2 0x1E2 JUMPI PUSH2 0x100 DUP1 DUP4 SLOAD DIV MUL DUP4 MSTORE SWAP2 PUSH1 0x20 ADD SWAP2 PUSH2 0x20B JUMP JUMPDEST DUP3 ADD SWAP2 SWAP1 PUSH0 MSTORE PUSH1 0x20 PUSH0 KECCAK256 SWAP1 JUMPDEST DUP2 SLOAD DUP2 MSTORE SWAP1 PUSH1 0x1 ADD SWAP1 PUSH1 0x20 ADD DUP1 DUP4 GT PUSH2 0x1EE JUMPI DUP3 SWAP1 SUB PUSH1 0x1F AND DUP3 ADD SWAP2 JUMPDEST POP POP POP POP POP DUP2 MSTORE PUSH1 0x20 ADD PUSH1 0x1 DUP3 ADD DUP1 SLOAD PUSH2 0x224 SWAP1 PUSH2 0x61D JUMP JUMPDEST DUP1 PUSH1 0x1F ADD PUSH1 0x20 DUP1 SWAP2 DIV MUL PUSH1 0x20 ADD PUSH1 0x40 MLOAD SWAP1 DUP2 ADD PUSH1 0x40 MSTORE DUP1 SWAP3 SWAP2 SWAP1 DUP2 DUP2 MSTORE PUSH1 0x20 ADD DUP3 DUP1 SLOAD PUSH2 0x250 SWAP1 PUSH2 0x61D JUMP JUMPDEST DUP1 ISZERO PUSH2 0x29B JUMPI DUP1 PUSH1 0x1F LT PUSH2 0x272 JUMPI PUSH2 0x100 DUP1 DUP4 SLOAD DIV MUL DUP4 MSTORE SWAP2 PUSH1 0x20 ADD SWAP2 PUSH2 0x29B JUMP JUMPDEST DUP3 ADD SWAP2 SWAP1 PUSH0 MSTORE PUSH1 0x20 PUSH0 KECCAK256 SWAP1 JUMPDEST DUP2 SLOAD DUP2 MSTORE SWAP1 PUSH1 0x1 ADD SWAP1 PUSH1 0x20 ADD DUP1 DUP4 GT PUSH2 0x27E JUMPI DUP3 SWAP1 SUB PUSH1 0x1F AND DUP3 ADD SWAP2 JUMPDEST POP POP POP POP POP DUP2 MSTORE PUSH1 0x20 ADD PUSH1 0x2 DUP3 ADD SLOAD DUP2 MSTORE PUSH1 0x20 ADD PUSH1 0x3 DUP3 ADD PUSH0 SWAP1 SLOAD SWAP1 PUSH2 0x100 EXP SWAP1 DIV PUSH1 0xFF AND ISZERO ISZERO ISZERO ISZERO DUP2 MSTORE POP POP SWAP1 POP SWAP1 JUMP JUMPDEST PUSH1 0x60 DUP1 PUSH1 0x4 PUSH0 ADD PUSH1 0x4 PUSH1 0x1 ADD DUP2 DUP1 SLOAD PUSH2 0x2E5 SWAP1 PUSH2 0x61D JUMP JUMPDEST DUP1 PUSH1 0x1F ADD PUSH1 0x20 DUP1 SWAP2 DIV MUL PUSH1 0x20 ADD PUSH1 0x40 MLOAD SWAP1 DUP2 ADD PUSH1 0x40 MSTORE DUP1 SWAP3 SWAP2 SWAP1 DUP2 DUP2 MSTORE PUSH1 0x20 ADD DUP3 DUP1 SLOAD PUSH2 0x311 SWAP1 PUSH2 0x61D JUMP JUMPDEST DUP1 ISZERO PUSH2 0x35C JUMPI DUP1 PUSH1 0x1F LT PUSH2 0x333 JUMPI PUSH2 0x100 DUP1 DUP4 SLOAD DIV MUL DUP4 MSTORE SWAP2 PUSH1 0x20 ADD SWAP2 PUSH2 0x35C JUMP JUMPDEST DUP3 ADD SWAP2 SWAP1 PUSH0 MSTORE PUSH1 0x20 PUSH0 KECCAK256 SWAP1 JUMPDEST DUP2 SLOAD DUP2 MSTORE SWAP1 PUSH1 0x1 ADD SWAP1 PUSH1 0x20 ADD DUP1 DUP4 GT PUSH2 0x33F JUMPI DUP3 SWAP1 SUB PUSH1 0x1F AND DUP3 ADD SWAP2 JUMPDEST POP POP POP POP POP SWAP2 POP DUP1 DUP1 SLOAD PUSH2 0x36F SWAP1 PUSH2 0x61D JUMP JUMPDEST DUP1 PUSH1 0x1F ADD PUSH1 0x20 DUP1 SWAP2 DIV MUL PUSH1 0x20 ADD PUSH1 0x40 MLOAD SWAP1 DUP2 ADD PUSH1 0x40 MSTORE DUP1 SWAP3 SWAP2 SWAP1 DUP2 DUP2 MSTORE PUSH1 0x20 ADD DUP3 DUP1 SLOAD PUSH2 0x39B SWAP1 PUSH2 0x61D JUMP JUMPDEST DUP1 ISZERO PUSH2 0x3E6 JUMPI DUP1 PUSH1 0x1F LT PUSH2 0x3BD JUMPI PUSH2 0x100 DUP1 DUP4 SLOAD DIV MUL DUP4 MSTORE SWAP2 PUSH1 0x20 ADD SWAP2 PUSH2 0x3E6 JUMP JUMPDEST DUP3 ADD SWAP2 SWAP1 PUSH0 MSTORE PUSH1 0x20 PUSH0 KECCAK256 SWAP1 JUMPDEST DUP2 SLOAD DUP2 MSTORE SWAP1 PUSH1 0x1 ADD SWAP1 PUSH1 0x20 ADD DUP1 DUP4 GT PUSH2 0x3C9 JUMPI DUP3 SWAP1 SUB PUSH1 0x1F AND DUP3 ADD SWAP2 JUMPDEST POP POP POP POP POP SWAP1 POP SWAP2 POP SWAP2 POP SWAP1 SWAP2 JUMP JUMPDEST PUSH1 0x40 MLOAD DUP1 PUSH1 0x80 ADD PUSH1 0x40 MSTORE DUP1 PUSH1 0x60 DUP2 MSTORE PUSH1 0x20 ADD PUSH1 0x60 DUP2 MSTORE PUSH1 0x20 ADD PUSH0 DUP2 MSTORE PUSH1 0x20 ADD PUSH0 ISZERO ISZERO DUP2 MSTORE POP SWAP1 JUMP JUMPDEST PUSH0 DUP2 MLOAD SWAP1 POP SWAP2 SWAP1 POP JUMP JUMPDEST PUSH0 DUP3 DUP3 MSTORE PUSH1 0x20 DUP3 ADD SWAP1 POP SWAP3 SWAP2 POP POP JUMP JUMPDEST DUP3 DUP2 DUP4 MCOPY PUSH0 DUP4 DUP4 ADD MSTORE POP POP POP JUMP JUMPDEST PUSH0 PUSH1 0x1F NOT PUSH1 0x1F DUP4 ADD AND SWAP1 POP SWAP2 SWAP1 POP JUMP JUMPDEST PUSH0 PUSH2 0x45F DUP3 PUSH2 0x41D JUMP JUMPDEST PUSH2 0x469 DUP2 DUP6 PUSH2 0x427 JUMP JUMPDEST SWAP4 POP PUSH2 0x479 DUP2 DUP6 PUSH1 0x20 DUP7 ADD PUSH2 0x437 JUMP JUMPDEST PUSH2 0x482 DUP2 PUSH2 0x445 JUMP JUMPDEST DUP5 ADD SWAP2 POP POP SWAP3 SWAP2 POP POP JUMP JUMPDEST PUSH0 DUP2 SWAP1 POP SWAP2 SWAP1 POP JUMP JUMPDEST PUSH2 0x49F DUP2 PUSH2 0x48D JUMP JUMPDEST DUP3 MSTORE POP POP JUMP JUMPDEST PUSH0 DUP2 ISZERO ISZERO SWAP1 POP SWAP2 SWAP1 POP JUMP JUMPDEST PUSH2 0x4B9 DUP2 PUSH2 0x4A5 JUMP JUMPDEST DUP3 MSTORE POP POP JUMP JUMPDEST PUSH0 PUSH1 0x80 DUP4 ADD PUSH0 DUP4 ADD MLOAD DUP5 DUP3 SUB PUSH0 DUP7 ADD MSTORE PUSH2 0x4D9 DUP3 DUP3 PUSH2 0x455 JUMP JUMPDEST SWAP2 POP POP PUSH1 0x20 DUP4 ADD MLOAD DUP5 DUP3 SUB PUSH1 0x20 DUP7 ADD MSTORE PUSH2 0x4F3 DUP3 DUP3 PUSH2 0x455 JUMP JUMPDEST SWAP2 POP POP PUSH1 0x40 DUP4 ADD MLOAD PUSH2 0x508 PUSH1 0x40 DUP7 ADD DUP3 PUSH2 0x496 JUMP JUMPDEST POP PUSH1 0x60 DUP4 ADD MLOAD PUSH2 0x51B PUSH1 0x60 DUP7 ADD DUP3 PUSH2 0x4B0 JUMP JUMPDEST POP DUP1 SWAP2 POP POP SWAP3 SWAP2 POP POP JUMP JUMPDEST PUSH0 PUSH1 0x20 DUP3 ADD SWAP1 POP DUP2 DUP2 SUB PUSH0 DUP4 ADD MSTORE PUSH2 0x53E DUP2 DUP5 PUSH2 0x4BF JUMP JUMPDEST SWAP1 POP SWAP3 SWAP2 POP POP JUMP JUMPDEST PUSH0 DUP3 DUP3 MSTORE PUSH1 0x20 DUP3 ADD SWAP1 POP SWAP3 SWAP2 POP POP JUMP JUMPDEST PUSH0 PUSH2 0x560 DUP3 PUSH2 0x41D JUMP JUMPDEST PUSH2 0x56A DUP2 DUP6 PUSH2 0x546 JUMP JUMPDEST SWAP4 POP PUSH2 0x57A DUP2 DUP6 PUSH1 0x20 DUP7 ADD PUSH2 0x437 JUMP JUMPDEST PUSH2 0x583 DUP2 PUSH2 0x445 JUMP JUMPDEST DUP5 ADD SWAP2 POP POP SWAP3 SWAP2 POP POP JUMP JUMPDEST PUSH0 PUSH1 0x40 DUP3 ADD SWAP1 POP DUP2 DUP2 SUB PUSH0 DUP4 ADD MSTORE PUSH2 0x5A6 DUP2 DUP6 PUSH2 0x556 JUMP JUMPDEST SWAP1 POP DUP2 DUP2 SUB PUSH1 0x20 DUP4 ADD MSTORE PUSH2 0x5BA DUP2 DUP5 PUSH2 0x556 JUMP JUMPDEST SWAP1 POP SWAP4 SWAP3 POP POP POP JUMP JUMPDEST PUSH32 0x4E487B7100000000000000000000000000000000000000000000000000000000 PUSH0 MSTORE PUSH1 0x41 PUSH1 0x4 MSTORE PUSH1 0x24 PUSH0 REVERT JUMPDEST PUSH32 0x4E487B7100000000000000000000000000000000000000000000000000000000 PUSH0 MSTORE PUSH1 0x22 PUSH1 0x4 MSTORE PUSH1 0x24 PUSH0 REVERT JUMPDEST PUSH0 PUSH1 0x2 DUP3 DIV SWAP1 POP PUSH1 0x1 DUP3 AND DUP1 PUSH2 0x634 JUMPI PUSH1 0x7F DUP3 AND SWAP2 POP JUMPDEST PUSH1 0x20 DUP3 LT DUP2 SUB PUSH2 0x647 JUMPI PUSH2 0x646 PUSH2 0x5F0 JUMP JUMPDEST JUMPDEST POP SWAP2 SWAP1 POP JUMP JUMPDEST PUSH0 DUP2 SWAP1 POP DUP2 PUSH0 MSTORE PUSH1 0x20 PUSH0 KECCAK256 SWAP1 POP SWAP2 SWAP1 POP JUMP JUMPDEST PUSH0 PUSH1 0x20 PUSH1 0x1F DUP4 ADD DIV SWAP1 POP SWAP2 SWAP1 POP JUMP JUMPDEST PUSH0 DUP3 DUP3 SHL SWAP1 POP SWAP3 SWAP2 POP POP JUMP JUMPDEST PUSH0 PUSH1 0x8 DUP4 MUL PUSH2 0x6A9 PUSH32 0xFFFFFFFFFFFFFFFFFFFFFFFFFFFFFFFFFFFFFFFFFFFFFFFFFFFFFFFFFFFFFFFF DUP3 PUSH2 0x66E JUMP JUMPDEST PUSH2 0x6B3 DUP7 DUP4 PUSH2 0x66E JUMP JUMPDEST SWAP6 POP DUP1 NOT DUP5 AND SWAP4 POP DUP1 DUP7 AND DUP5 OR SWAP3 POP POP POP SWAP4 SWAP3 POP POP POP JUMP JUMPDEST PUSH0 DUP2 SWAP1 POP SWAP2 SWAP1 POP JUMP JUMPDEST PUSH0 PUSH2 0x6EE PUSH2 0x6E9 PUSH2 0x6E4 DUP5 PUSH2 0x48D JUMP JUMPDEST PUSH2 0x6CB JUMP JUMPDEST PUSH2 0x48D JUMP JUMPDEST SWAP1 POP SWAP2 SWAP1 POP JUMP JUMPDEST PUSH0 DUP2 SWAP1 POP SWAP2 SWAP1 POP JUMP JUMPDEST PUSH2 0x707 DUP4 PUSH2 0x6D4 JUMP JUMPDEST PUSH2 0x71B PUSH2 0x713 DUP3 PUSH2 0x6F5 JUMP JUMPDEST DUP5 DUP5 SLOAD PUSH2 0x67A JUMP JUMPDEST DUP3 SSTORE POP POP POP POP JUMP JUMPDEST PUSH0 PUSH0 SWAP1 POP SWAP1 JUMP JUMPDEST PUSH2 0x732 PUSH2 0x723 JUMP JUMPDEST PUSH2 0x73D DUP2 DUP5 DUP5 PUSH2 0x6FE JUMP JUMPDEST POP POP POP JUMP JUMPDEST JUMPDEST DUP2 DUP2 LT ISZERO PUSH2 0x760 JUMPI PUSH2 0x755 PUSH0 DUP3 PUSH2 0x72A JUMP JUMPDEST PUSH1 0x1 DUP2 ADD SWAP1 POP PUSH2 0x743 JUMP JUMPDEST POP POP JUMP JUMPDEST PUSH1 0x1F DUP3 GT ISZERO PUSH2 0x7A5 JUMPI PUSH2 0x776 DUP2 PUSH2 0x64D JUMP JUMPDEST PUSH2 0x77F DUP5 PUSH2 0x65F JUMP JUMPDEST DUP2 ADD PUSH1 0x20 DUP6 LT ISZERO PUSH2 0x78E JUMPI DUP2 SWAP1 POP JUMPDEST PUSH2 0x7A2 PUSH2 0x79A DUP6 PUSH2 0x65F JUMP JUMPDEST DUP4 ADD DUP3 PUSH2 0x742 JUMP JUMPDEST POP POP JUMPDEST POP POP POP JUMP JUMPDEST PUSH0 DUP3 DUP3 SHR SWAP1 POP SWAP3 SWAP2 POP POP JUMP JUMPDEST PUSH0 PUSH2 0x7C5 PUSH0 NOT DUP5 PUSH1 0x8 MUL PUSH2 0x7AA JUMP JUMPDEST NOT DUP1 DUP4 AND SWAP2 POP POP SWAP3 SWAP2 POP POP JUMP JUMPDEST PUSH0 PUSH2 0x7DD DUP4 DUP4 PUSH2 0x7B6 JUMP JUMPDEST SWAP2 POP DUP3 PUSH1 0x2 MUL DUP3 OR SWAP1 POP SWAP3 SWAP2 POP POP JUMP JUMPDEST PUSH2 0x7F6 DUP3 PUSH2 0x41D JUMP JUMPDEST PUSH8 0xFFFFFFFFFFFFFFFF DUP2 GT ISZERO PUSH2 0x80F JUMPI PUSH2 0x80E PUSH2 0x5C3 JUMP JUMPDEST JUMPDEST PUSH2 0x819 DUP3 SLOAD PUSH2 0x61D JUMP JUMPDEST PUSH2 0x824 DUP3 DUP3 DUP6 PUSH2 0x764 JUMP JUMPDEST PUSH0 PUSH1 0x20 SWAP1 POP PUSH1 0x1F DUP4 GT PUSH1 0x1 DUP2 EQ PUSH2 0x855 JUMPI PUSH0 DUP5 ISZERO PUSH2 0x843 JUMPI DUP3 DUP8 ADD MLOAD SWAP1 POP JUMPDEST PUSH2 0x84D DUP6 DUP3 PUSH2 0x7D2 JUMP JUMPDEST DUP7 SSTORE POP PUSH2 0x8B4 JUMP JUMPDEST PUSH1 0x1F NOT DUP5 AND PUSH2 0x863 DUP7 PUSH2 0x64D JUMP JUMPDEST PUSH0 JUMPDEST DUP3 DUP2 LT ISZERO PUSH2 0x88A JUMPI DUP5 DUP10 ADD MLOAD DUP3 SSTORE PUSH1 0x1 DUP3 ADD SWAP2 POP PUSH1 0x20 DUP6 ADD SWAP5 POP PUSH1 0x20 DUP2 ADD SWAP1 POP PUSH2 0x865 JUMP JUMPDEST DUP7 DUP4 LT ISZERO PUSH2 0x8A7 JUMPI DUP5 DUP10 ADD MLOAD PUSH2 0x8A3 PUSH1 0x1F DUP10 AND DUP3 PUSH2 0x7B6 JUMP JUMPDEST DUP4 SSTORE POP JUMPDEST PUSH1 0x1 PUSH1 0x2 DUP9 MUL ADD DUP9 SSTORE POP POP POP JUMPDEST POP POP POP POP POP POP JUMP INVALID LOG2 PUSH5 0x6970667358 0x22 SLT KECCAK256 LOG4 SWAP12 DUP10 0x24 0xDA 0xE9 0xBD PC PUSH14 0x8795B7EC95877B7DB8F7DAB7E3E6 0x23 EXTDELEGATECALL PUSH3 0xD0EAD SWAP4 0xBF SLT PUSH5 0x736F6C6343 STOP ADDMOD 0x1E STOP CALLER "
				},
				"gasEstimates": {
					"creation": {
						"codeDepositCost": "458000",
						"executionCost": "infinite",
						"totalCost": "infinite"
					},
					"external": {
						"getPerson()": "infinite",
						"getPerson2()": "infinite",
						"setPerson()": "infinite"
					}
				},
				"methodIdentifiers": {
					"getPerson()": "8ec4dc95",
					"getPerson2()": "c133d864",
					"setPerson()": "47c0f1f6"
				}
			},
			"storageLayout": {
				"storage": [
					{
						"astId": 13,
						"contract": "contracts/Struct.sol:Structs",
						"label": "person1",
						"offset": 0,
						"slot": "0",
						"type": "t_struct(Person)10_storage"
					},
					{
						"astId": 44,
						"contract": "contracts/Struct.sol:Structs",
						"label": "person2",
						"offset": 0,
						"slot": "4",
						"type": "t_struct(Person)10_storage"
					}
				],
				"types": {
					"t_bool": {
						"encoding": "inplace",
						"label": "bool",
						"numberOfBytes": "1"
					},
					"t_string_storage": {
						"encoding": "bytes",
						"label": "string",
						"numberOfBytes": "32"
					},
					"t_struct(Person)10_storage": {
						"encoding": "inplace",
						"label": "struct Structs.Person",
						"members": [
							{
								"astId": 3,
								"contract": "contracts/Struct.sol:Structs",
								"label": "nama",
								"offset": 0,
								"slot": "0",
								"type": "t_string_storage"
							},
							{
								"astId": 5,
								"contract": "contracts/Struct.sol:Structs",
								"label": "jenis_kelamin",
								"offset": 0,
								"slot": "1",
								"type": "t_string_storage"
							},
							{
								"astId": 7,
								"contract": "contracts/Struct.sol:Structs",
								"label": "umur",
								"offset": 0,
								"slot": "2",
								"type": "t_uint256"
							},
							{
								"astId": 9,
								"contract": "contracts/Struct.sol:Structs",
								"label": "isMarriage",
								"offset": 0,
								"slot": "3",
								"type": "t_bool"
							}
						],
						"numberOfBytes": "128"
					},
					"t_uint256": {
						"encoding": "inplace",
						"label": "uint256",
						"numberOfBytes": "32"
					}
				}
			},
			"userdoc": {
				"kind": "user",
				"methods": {},
				"version": 1
			}
		}
	}
}