{
	"contracts/MultiInheritance.sol": {
		"caller": {
			"abi": [
				{
					"inputs": [],
					"name": "inherit",
					"outputs": [
						{
							"internalType": "string",
							"name": "",
							"type": "string"
						},
						{
							"internalType": "string",
							"name": "",
							"type": "string"
						},
						{
							"internalType": "string",
							"name": "",
							"type": "string"
						}
					],
					"stateMutability": "view",
					"type": "function"
				}
			],
			"devdoc": {
				"kind": "dev",
				"methods": {},
				"version": 1
			},
			"evm": {
				"assembly": "    /* \"contracts/MultiInheritance.sol\":622:865  contract caller{... */\n  mstore(0x40, 0x80)\n    /* \"contracts/MultiInheritance.sol\":664:677  new ParentC() */\n  mload(0x40)\n  tag_1\n  swap1\n  tag_2\n  jump\t// in\ntag_1:\n  mload(0x40)\n  dup1\n  swap2\n  sub\n  swap1\n  0x00\n  create\n  dup1\n  iszero\n  dup1\n  iszero\n  tag_3\n  jumpi\n  returndatacopy(0x00, 0x00, returndatasize)\n  revert(0x00, returndatasize)\ntag_3:\n  pop\n    /* \"contracts/MultiInheritance.sol\":644:677  ParentC contractC = new ParentC() */\n  0x00\n  exp(0x0100, 0x00)\n  dup2\n  sload\n  dup2\n  0xffffffffffffffffffffffffffffffffffffffff\n  mul\n  not\n  and\n  swap1\n  dup4\n  0xffffffffffffffffffffffffffffffffffffffff\n  and\n  mul\n  or\n  swap1\n  sstore\n  pop\n    /* \"contracts/MultiInheritance.sol\":622:865  contract caller{... */\n  callvalue\n  dup1\n  iszero\n  tag_4\n  jumpi\n  revert(0x00, 0x00)\ntag_4:\n  pop\n  jump(tag_5)\ntag_2:\n  dataSize(sub_1)\n  dup1\n  dataOffset(sub_1)\n  dup4\n  codecopy\n  add\n  swap1\n  jump\t// out\ntag_5:\n  dataSize(sub_0)\n  dup1\n  dataOffset(sub_0)\n  0x00\n  codecopy\n  0x00\n  return\nstop\n\nsub_0: assembly {\n        /* \"contracts/MultiInheritance.sol\":622:865  contract caller{... */\n      mstore(0x40, 0x80)\n      callvalue\n      dup1\n      iszero\n      tag_1\n      jumpi\n      revert(0x00, 0x00)\n    tag_1:\n      pop\n      jumpi(tag_2, lt(calldatasize, 0x04))\n      shr(0xe0, calldataload(0x00))\n      dup1\n      0x2b445d78\n      eq\n      tag_3\n      jumpi\n    tag_2:\n      revert(0x00, 0x00)\n        /* \"contracts/MultiInheritance.sol\":684:862  function inherit() public view returns(string memory, string memory, string memory){... */\n    tag_3:\n      tag_4\n      tag_5\n      jump\t// in\n    tag_4:\n      mload(0x40)\n      tag_6\n      swap4\n      swap3\n      swap2\n      swap1\n      tag_7\n      jump\t// in\n    tag_6:\n      mload(0x40)\n      dup1\n      swap2\n      sub\n      swap1\n      return\n    tag_5:\n        /* \"contracts/MultiInheritance.sol\":723:736  string memory */\n      0x60\n        /* \"contracts/MultiInheritance.sol\":738:751  string memory */\n      dup1\n        /* \"contracts/MultiInheritance.sol\":753:766  string memory */\n      0x60\n        /* \"contracts/MultiInheritance.sol\":786:795  contractC */\n      0x00\n      0x00\n      swap1\n      sload\n      swap1\n      0x0100\n      exp\n      swap1\n      div\n      0xffffffffffffffffffffffffffffffffffffffff\n      and\n        /* \"contracts/MultiInheritance.sol\":786:805  contractC.getAValue */\n      0xffffffffffffffffffffffffffffffffffffffff\n      and\n      0x3ea0ced5\n        /* \"contracts/MultiInheritance.sol\":786:807  contractC.getAValue() */\n      mload(0x40)\n      dup2\n      0xffffffff\n      and\n      0xe0\n      shl\n      dup2\n      mstore\n      0x04\n      add\n      0x00\n      mload(0x40)\n      dup1\n      dup4\n      sub\n      dup2\n      dup7\n      gas\n      staticcall\n      iszero\n      dup1\n      iszero\n      tag_10\n      jumpi\n      returndatacopy(0x00, 0x00, returndatasize)\n      revert(0x00, returndatasize)\n    tag_10:\n      pop\n      pop\n      pop\n      pop\n      mload(0x40)\n      returndatasize\n      0x00\n      dup3\n      returndatacopy\n      returndatasize\n      not(0x1f)\n      0x1f\n      dup3\n      add\n      and\n      dup3\n      add\n      dup1\n      0x40\n      mstore\n      pop\n      dup2\n      add\n      swap1\n      tag_11\n      swap2\n      swap1\n      tag_12\n      jump\t// in\n    tag_11:\n        /* \"contracts/MultiInheritance.sol\":809:818  contractC */\n      0x00\n      0x00\n      swap1\n      sload\n      swap1\n      0x0100\n      exp\n      swap1\n      div\n      0xffffffffffffffffffffffffffffffffffffffff\n      and\n        /* \"contracts/MultiInheritance.sol\":809:828  contractC.getBValue */\n      0xffffffffffffffffffffffffffffffffffffffff\n      and\n      0x7a63a91d\n        /* \"contracts/MultiInheritance.sol\":809:830  contractC.getBValue() */\n      mload(0x40)\n      dup2\n      0xffffffff\n      and\n      0xe0\n      shl\n      dup2\n      mstore\n      0x04\n      add\n      0x00\n      mload(0x40)\n      dup1\n      dup4\n      sub\n      dup2\n      dup7\n      gas\n      staticcall\n      iszero\n      dup1\n      iszero\n      tag_14\n      jumpi\n      returndatacopy(0x00, 0x00, returndatasize)\n      revert(0x00, returndatasize)\n    tag_14:\n      pop\n      pop\n      pop\n      pop\n      mload(0x40)\n      returndatasize\n      0x00\n      dup3\n      returndatacopy\n      returndatasize\n      not(0x1f)\n      0x1f\n      dup3\n      add\n      and\n      dup3\n      add\n      dup1\n      0x40\n      mstore\n      pop\n      dup2\n      add\n      swap1\n      tag_15\n      swap2\n      swap1\n      tag_12\n      jump\t// in\n    tag_15:\n        /* \"contracts/MultiInheritance.sol\":832:841  contractC */\n      0x00\n      0x00\n      swap1\n      sload\n      swap1\n      0x0100\n      exp\n      swap1\n      div\n      0xffffffffffffffffffffffffffffffffffffffff\n      and\n        /* \"contracts/MultiInheritance.sol\":832:851  contractC.getCValue */\n      0xffffffffffffffffffffffffffffffffffffffff\n      and\n      0xfba4e8ef\n        /* \"contracts/MultiInheritance.sol\":832:853  contractC.getCValue() */\n      mload(0x40)\n      dup2\n      0xffffffff\n      and\n      0xe0\n      shl\n      dup2\n      mstore\n      0x04\n      add\n      0x00\n      mload(0x40)\n      dup1\n      dup4\n      sub\n      dup2\n      dup7\n      gas\n      staticcall\n      iszero\n      dup1\n      iszero\n      tag_17\n      jumpi\n      returndatacopy(0x00, 0x00, returndatasize)\n      revert(0x00, returndatasize)\n    tag_17:\n      pop\n      pop\n      pop\n      pop\n      mload(0x40)\n      returndatasize\n      0x00\n      dup3\n      returndatacopy\n      returndatasize\n      not(0x1f)\n      0x1f\n      dup3\n      add\n      and\n      dup3\n      add\n      dup1\n      0x40\n      mstore\n      pop\n      dup2\n      add\n      swap1\n      tag_18\n      swap2\n      swap1\n      tag_12\n      jump\t// in\n    tag_18:\n        /* \"contracts/MultiInheritance.sol\":778:854  return (contractC.getAValue(), contractC.getBValue(), contractC.getCValue()) */\n      swap3\n      pop\n      swap3\n      pop\n      swap3\n      pop\n        /* \"contracts/MultiInheritance.sol\":684:862  function inherit() public view returns(string memory, string memory, string memory){... */\n      swap1\n      swap2\n      swap3\n      jump\t// out\n        /* \"#utility.yul\":7:106   */\n    tag_19:\n        /* \"#utility.yul\":59:65   */\n      0x00\n        /* \"#utility.yul\":93:98   */\n      dup2\n        /* \"#utility.yul\":87:99   */\n      mload\n        /* \"#utility.yul\":77:99   */\n      swap1\n      pop\n        /* \"#utility.yul\":7:106   */\n      swap2\n      swap1\n      pop\n      jump\t// out\n        /* \"#utility.yul\":112:281   */\n    tag_20:\n        /* \"#utility.yul\":196:207   */\n      0x00\n        /* \"#utility.yul\":230:236   */\n      dup3\n        /* \"#utility.yul\":225:228   */\n      dup3\n        /* \"#utility.yul\":218:237   */\n      mstore\n        /* \"#utility.yul\":270:274   */\n      0x20\n        /* \"#utility.yul\":265:268   */\n      dup3\n        /* \"#utility.yul\":261:275   */\n      add\n        /* \"#utility.yul\":246:275   */\n      swap1\n      pop\n        /* \"#utility.yul\":112:281   */\n      swap3\n      swap2\n      pop\n      pop\n      jump\t// out\n        /* \"#utility.yul\":287:426   */\n    tag_21:\n        /* \"#utility.yul\":376:382   */\n      dup3\n        /* \"#utility.yul\":371:374   */\n      dup2\n        /* \"#utility.yul\":366:369   */\n      dup4\n        /* \"#utility.yul\":360:383   */\n      mcopy\n        /* \"#utility.yul\":417:418   */\n      0x00\n        /* \"#utility.yul\":408:414   */\n      dup4\n        /* \"#utility.yul\":403:406   */\n      dup4\n        /* \"#utility.yul\":399:415   */\n      add\n        /* \"#utility.yul\":392:419   */\n      mstore\n        /* \"#utility.yul\":287:426   */\n      pop\n      pop\n      pop\n      jump\t// out\n        /* \"#utility.yul\":432:534   */\n    tag_22:\n        /* \"#utility.yul\":473:479   */\n      0x00\n        /* \"#utility.yul\":524:526   */\n      0x1f\n        /* \"#utility.yul\":520:527   */\n      not\n        /* \"#utility.yul\":515:517   */\n      0x1f\n        /* \"#utility.yul\":508:513   */\n      dup4\n        /* \"#utility.yul\":504:518   */\n      add\n        /* \"#utility.yul\":500:528   */\n      and\n        /* \"#utility.yul\":490:528   */\n      swap1\n      pop\n        /* \"#utility.yul\":432:534   */\n      swap2\n      swap1\n      pop\n      jump\t// out\n        /* \"#utility.yul\":540:917   */\n    tag_23:\n        /* \"#utility.yul\":628:631   */\n      0x00\n        /* \"#utility.yul\":656:695   */\n      tag_41\n        /* \"#utility.yul\":689:694   */\n      dup3\n        /* \"#utility.yul\":656:695   */\n      tag_19\n      jump\t// in\n    tag_41:\n        /* \"#utility.yul\":711:782   */\n      tag_42\n        /* \"#utility.yul\":775:781   */\n      dup2\n        /* \"#utility.yul\":770:773   */\n      dup6\n        /* \"#utility.yul\":711:782   */\n      tag_20\n      jump\t// in\n    tag_42:\n        /* \"#utility.yul\":704:782   */\n      swap4\n      pop\n        /* \"#utility.yul\":791:856   */\n      tag_43\n        /* \"#utility.yul\":849:855   */\n      dup2\n        /* \"#utility.yul\":844:847   */\n      dup6\n        /* \"#utility.yul\":837:841   */\n      0x20\n        /* \"#utility.yul\":830:835   */\n      dup7\n        /* \"#utility.yul\":826:842   */\n      add\n        /* \"#utility.yul\":791:856   */\n      tag_21\n      jump\t// in\n    tag_43:\n        /* \"#utility.yul\":881:910   */\n      tag_44\n        /* \"#utility.yul\":903:909   */\n      dup2\n        /* \"#utility.yul\":881:910   */\n      tag_22\n      jump\t// in\n    tag_44:\n        /* \"#utility.yul\":876:879   */\n      dup5\n        /* \"#utility.yul\":872:911   */\n      add\n        /* \"#utility.yul\":865:911   */\n      swap2\n      pop\n        /* \"#utility.yul\":632:917   */\n      pop\n        /* \"#utility.yul\":540:917   */\n      swap3\n      swap2\n      pop\n      pop\n      jump\t// out\n        /* \"#utility.yul\":923:1638   */\n    tag_7:\n        /* \"#utility.yul\":1132:1136   */\n      0x00\n        /* \"#utility.yul\":1170:1172   */\n      0x60\n        /* \"#utility.yul\":1159:1168   */\n      dup3\n        /* \"#utility.yul\":1155:1173   */\n      add\n        /* \"#utility.yul\":1147:1173   */\n      swap1\n      pop\n        /* \"#utility.yul\":1219:1228   */\n      dup2\n        /* \"#utility.yul\":1213:1217   */\n      dup2\n        /* \"#utility.yul\":1209:1229   */\n      sub\n        /* \"#utility.yul\":1205:1206   */\n      0x00\n        /* \"#utility.yul\":1194:1203   */\n      dup4\n        /* \"#utility.yul\":1190:1207   */\n      add\n        /* \"#utility.yul\":1183:1230   */\n      mstore\n        /* \"#utility.yul\":1247:1325   */\n      tag_46\n        /* \"#utility.yul\":1320:1324   */\n      dup2\n        /* \"#utility.yul\":1311:1317   */\n      dup7\n        /* \"#utility.yul\":1247:1325   */\n      tag_23\n      jump\t// in\n    tag_46:\n        /* \"#utility.yul\":1239:1325   */\n      swap1\n      pop\n        /* \"#utility.yul\":1372:1381   */\n      dup2\n        /* \"#utility.yul\":1366:1370   */\n      dup2\n        /* \"#utility.yul\":1362:1382   */\n      sub\n        /* \"#utility.yul\":1357:1359   */\n      0x20\n        /* \"#utility.yul\":1346:1355   */\n      dup4\n        /* \"#utility.yul\":1342:1360   */\n      add\n        /* \"#utility.yul\":1335:1383   */\n      mstore\n        /* \"#utility.yul\":1400:1478   */\n      tag_47\n        /* \"#utility.yul\":1473:1477   */\n      dup2\n        /* \"#utility.yul\":1464:1470   */\n      dup6\n        /* \"#utility.yul\":1400:1478   */\n      tag_23\n      jump\t// in\n    tag_47:\n        /* \"#utility.yul\":1392:1478   */\n      swap1\n      pop\n        /* \"#utility.yul\":1525:1534   */\n      dup2\n        /* \"#utility.yul\":1519:1523   */\n      dup2\n        /* \"#utility.yul\":1515:1535   */\n      sub\n        /* \"#utility.yul\":1510:1512   */\n      0x40\n        /* \"#utility.yul\":1499:1508   */\n      dup4\n        /* \"#utility.yul\":1495:1513   */\n      add\n        /* \"#utility.yul\":1488:1536   */\n      mstore\n        /* \"#utility.yul\":1553:1631   */\n      tag_48\n        /* \"#utility.yul\":1626:1630   */\n      dup2\n        /* \"#utility.yul\":1617:1623   */\n      dup5\n        /* \"#utility.yul\":1553:1631   */\n      tag_23\n      jump\t// in\n    tag_48:\n        /* \"#utility.yul\":1545:1631   */\n      swap1\n      pop\n        /* \"#utility.yul\":923:1638   */\n      swap5\n      swap4\n      pop\n      pop\n      pop\n      pop\n      jump\t// out\n        /* \"#utility.yul\":1644:1719   */\n    tag_24:\n        /* \"#utility.yul\":1677:1683   */\n      0x00\n        /* \"#utility.yul\":1710:1712   */\n      0x40\n        /* \"#utility.yul\":1704:1713   */\n      mload\n        /* \"#utility.yul\":1694:1713   */\n      swap1\n      pop\n        /* \"#utility.yul\":1644:1719   */\n      swap1\n      jump\t// out\n        /* \"#utility.yul\":1725:1842   */\n    tag_25:\n        /* \"#utility.yul\":1834:1835   */\n      0x00\n        /* \"#utility.yul\":1831:1832   */\n      0x00\n        /* \"#utility.yul\":1824:1836   */\n      revert\n        /* \"#utility.yul\":1848:1965   */\n    tag_26:\n        /* \"#utility.yul\":1957:1958   */\n      0x00\n        /* \"#utility.yul\":1954:1955   */\n      0x00\n        /* \"#utility.yul\":1947:1959   */\n      revert\n        /* \"#utility.yul\":1971:2088   */\n    tag_27:\n        /* \"#utility.yul\":2080:2081   */\n      0x00\n        /* \"#utility.yul\":2077:2078   */\n      0x00\n        /* \"#utility.yul\":2070:2082   */\n      revert\n        /* \"#utility.yul\":2094:2211   */\n    tag_28:\n        /* \"#utility.yul\":2203:2204   */\n      0x00\n        /* \"#utility.yul\":2200:2201   */\n      0x00\n        /* \"#utility.yul\":2193:2205   */\n      revert\n        /* \"#utility.yul\":2217:2397   */\n    tag_29:\n        /* \"#utility.yul\":2265:2342   */\n      0x4e487b7100000000000000000000000000000000000000000000000000000000\n        /* \"#utility.yul\":2262:2263   */\n      0x00\n        /* \"#utility.yul\":2255:2343   */\n      mstore\n        /* \"#utility.yul\":2362:2366   */\n      0x41\n        /* \"#utility.yul\":2359:2360   */\n      0x04\n        /* \"#utility.yul\":2352:2367   */\n      mstore\n        /* \"#utility.yul\":2386:2390   */\n      0x24\n        /* \"#utility.yul\":2383:2384   */\n      0x00\n        /* \"#utility.yul\":2376:2391   */\n      revert\n        /* \"#utility.yul\":2403:2684   */\n    tag_30:\n        /* \"#utility.yul\":2486:2513   */\n      tag_56\n        /* \"#utility.yul\":2508:2512   */\n      dup3\n        /* \"#utility.yul\":2486:2513   */\n      tag_22\n      jump\t// in\n    tag_56:\n        /* \"#utility.yul\":2478:2484   */\n      dup2\n        /* \"#utility.yul\":2474:2514   */\n      add\n        /* \"#utility.yul\":2616:2622   */\n      dup2\n        /* \"#utility.yul\":2604:2614   */\n      dup2\n        /* \"#utility.yul\":2601:2623   */\n      lt\n        /* \"#utility.yul\":2580:2598   */\n      0xffffffffffffffff\n        /* \"#utility.yul\":2568:2578   */\n      dup3\n        /* \"#utility.yul\":2565:2599   */\n      gt\n        /* \"#utility.yul\":2562:2624   */\n      or\n        /* \"#utility.yul\":2559:2647   */\n      iszero\n      tag_57\n      jumpi\n        /* \"#utility.yul\":2627:2645   */\n      tag_58\n      tag_29\n      jump\t// in\n    tag_58:\n        /* \"#utility.yul\":2559:2647   */\n    tag_57:\n        /* \"#utility.yul\":2667:2677   */\n      dup1\n        /* \"#utility.yul\":2663:2665   */\n      0x40\n        /* \"#utility.yul\":2656:2678   */\n      mstore\n        /* \"#utility.yul\":2446:2684   */\n      pop\n        /* \"#utility.yul\":2403:2684   */\n      pop\n      pop\n      jump\t// out\n        /* \"#utility.yul\":2690:2819   */\n    tag_31:\n        /* \"#utility.yul\":2724:2730   */\n      0x00\n        /* \"#utility.yul\":2751:2771   */\n      tag_60\n      tag_24\n      jump\t// in\n    tag_60:\n        /* \"#utility.yul\":2741:2771   */\n      swap1\n      pop\n        /* \"#utility.yul\":2780:2813   */\n      tag_61\n        /* \"#utility.yul\":2808:2812   */\n      dup3\n        /* \"#utility.yul\":2800:2806   */\n      dup3\n        /* \"#utility.yul\":2780:2813   */\n      tag_30\n      jump\t// in\n    tag_61:\n        /* \"#utility.yul\":2690:2819   */\n      swap2\n      swap1\n      pop\n      jump\t// out\n        /* \"#utility.yul\":2825:3133   */\n    tag_32:\n        /* \"#utility.yul\":2887:2891   */\n      0x00\n        /* \"#utility.yul\":2977:2995   */\n      0xffffffffffffffff\n        /* \"#utility.yul\":2969:2975   */\n      dup3\n        /* \"#utility.yul\":2966:2996   */\n      gt\n        /* \"#utility.yul\":2963:3019   */\n      iszero\n      tag_63\n      jumpi\n        /* \"#utility.yul\":2999:3017   */\n      tag_64\n      tag_29\n      jump\t// in\n    tag_64:\n        /* \"#utility.yul\":2963:3019   */\n    tag_63:\n        /* \"#utility.yul\":3037:3066   */\n      tag_65\n        /* \"#utility.yul\":3059:3065   */\n      dup3\n        /* \"#utility.yul\":3037:3066   */\n      tag_22\n      jump\t// in\n    tag_65:\n        /* \"#utility.yul\":3029:3066   */\n      swap1\n      pop\n        /* \"#utility.yul\":3121:3125   */\n      0x20\n        /* \"#utility.yul\":3115:3119   */\n      dup2\n        /* \"#utility.yul\":3111:3126   */\n      add\n        /* \"#utility.yul\":3103:3126   */\n      swap1\n      pop\n        /* \"#utility.yul\":2825:3133   */\n      swap2\n      swap1\n      pop\n      jump\t// out\n        /* \"#utility.yul\":3139:3573   */\n    tag_33:\n        /* \"#utility.yul\":3228:3233   */\n      0x00\n        /* \"#utility.yul\":3253:3319   */\n      tag_67\n        /* \"#utility.yul\":3269:3318   */\n      tag_68\n        /* \"#utility.yul\":3311:3317   */\n      dup5\n        /* \"#utility.yul\":3269:3318   */\n      tag_32\n      jump\t// in\n    tag_68:\n        /* \"#utility.yul\":3253:3319   */\n      tag_31\n      jump\t// in\n    tag_67:\n        /* \"#utility.yul\":3244:3319   */\n      swap1\n      pop\n        /* \"#utility.yul\":3342:3348   */\n      dup3\n        /* \"#utility.yul\":3335:3340   */\n      dup2\n        /* \"#utility.yul\":3328:3349   */\n      mstore\n        /* \"#utility.yul\":3380:3384   */\n      0x20\n        /* \"#utility.yul\":3373:3378   */\n      dup2\n        /* \"#utility.yul\":3369:3385   */\n      add\n        /* \"#utility.yul\":3418:3421   */\n      dup5\n        /* \"#utility.yul\":3409:3415   */\n      dup5\n        /* \"#utility.yul\":3404:3407   */\n      dup5\n        /* \"#utility.yul\":3400:3416   */\n      add\n        /* \"#utility.yul\":3397:3422   */\n      gt\n        /* \"#utility.yul\":3394:3506   */\n      iszero\n      tag_69\n      jumpi\n        /* \"#utility.yul\":3425:3504   */\n      tag_70\n      tag_28\n      jump\t// in\n    tag_70:\n        /* \"#utility.yul\":3394:3506   */\n    tag_69:\n        /* \"#utility.yul\":3515:3567   */\n      tag_71\n        /* \"#utility.yul\":3560:3566   */\n      dup5\n        /* \"#utility.yul\":3555:3558   */\n      dup3\n        /* \"#utility.yul\":3550:3553   */\n      dup6\n        /* \"#utility.yul\":3515:3567   */\n      tag_21\n      jump\t// in\n    tag_71:\n        /* \"#utility.yul\":3234:3573   */\n      pop\n        /* \"#utility.yul\":3139:3573   */\n      swap4\n      swap3\n      pop\n      pop\n      pop\n      jump\t// out\n        /* \"#utility.yul\":3593:3948   */\n    tag_34:\n        /* \"#utility.yul\":3660:3665   */\n      0x00\n        /* \"#utility.yul\":3709:3712   */\n      dup3\n        /* \"#utility.yul\":3702:3706   */\n      0x1f\n        /* \"#utility.yul\":3694:3700   */\n      dup4\n        /* \"#utility.yul\":3690:3707   */\n      add\n        /* \"#utility.yul\":3686:3713   */\n      slt\n        /* \"#utility.yul\":3676:3798   */\n      tag_73\n      jumpi\n        /* \"#utility.yul\":3717:3796   */\n      tag_74\n      tag_27\n      jump\t// in\n    tag_74:\n        /* \"#utility.yul\":3676:3798   */\n    tag_73:\n        /* \"#utility.yul\":3827:3833   */\n      dup2\n        /* \"#utility.yul\":3821:3834   */\n      mload\n        /* \"#utility.yul\":3852:3942   */\n      tag_75\n        /* \"#utility.yul\":3938:3941   */\n      dup5\n        /* \"#utility.yul\":3930:3936   */\n      dup3\n        /* \"#utility.yul\":3923:3927   */\n      0x20\n        /* \"#utility.yul\":3915:3921   */\n      dup7\n        /* \"#utility.yul\":3911:3928   */\n      add\n        /* \"#utility.yul\":3852:3942   */\n      tag_33\n      jump\t// in\n    tag_75:\n        /* \"#utility.yul\":3843:3942   */\n      swap2\n      pop\n        /* \"#utility.yul\":3666:3948   */\n      pop\n        /* \"#utility.yul\":3593:3948   */\n      swap3\n      swap2\n      pop\n      pop\n      jump\t// out\n        /* \"#utility.yul\":3954:4478   */\n    tag_12:\n        /* \"#utility.yul\":4034:4040   */\n      0x00\n        /* \"#utility.yul\":4083:4085   */\n      0x20\n        /* \"#utility.yul\":4071:4080   */\n      dup3\n        /* \"#utility.yul\":4062:4069   */\n      dup5\n        /* \"#utility.yul\":4058:4081   */\n      sub\n        /* \"#utility.yul\":4054:4086   */\n      slt\n        /* \"#utility.yul\":4051:4170   */\n      iszero\n      tag_77\n      jumpi\n        /* \"#utility.yul\":4089:4168   */\n      tag_78\n      tag_25\n      jump\t// in\n    tag_78:\n        /* \"#utility.yul\":4051:4170   */\n    tag_77:\n        /* \"#utility.yul\":4230:4231   */\n      0x00\n        /* \"#utility.yul\":4219:4228   */\n      dup3\n        /* \"#utility.yul\":4215:4232   */\n      add\n        /* \"#utility.yul\":4209:4233   */\n      mload\n        /* \"#utility.yul\":4260:4278   */\n      0xffffffffffffffff\n        /* \"#utility.yul\":4252:4258   */\n      dup2\n        /* \"#utility.yul\":4249:4279   */\n      gt\n        /* \"#utility.yul\":4246:4363   */\n      iszero\n      tag_79\n      jumpi\n        /* \"#utility.yul\":4282:4361   */\n      tag_80\n      tag_26\n      jump\t// in\n    tag_80:\n        /* \"#utility.yul\":4246:4363   */\n    tag_79:\n        /* \"#utility.yul\":4387:4461   */\n      tag_81\n        /* \"#utility.yul\":4453:4460   */\n      dup5\n        /* \"#utility.yul\":4444:4450   */\n      dup3\n        /* \"#utility.yul\":4433:4442   */\n      dup6\n        /* \"#utility.yul\":4429:4451   */\n      add\n        /* \"#utility.yul\":4387:4461   */\n      tag_34\n      jump\t// in\n    tag_81:\n        /* \"#utility.yul\":4377:4461   */\n      swap2\n      pop\n        /* \"#utility.yul\":4180:4471   */\n      pop\n        /* \"#utility.yul\":3954:4478   */\n      swap3\n      swap2\n      pop\n      pop\n      jump\t// out\n\n    auxdata: 0xa26469706673582212204b2a9f5750bb362343f88c4075229c16d260291309824bfea9f1e59cbc81bfa164736f6c634300081e0033\n}\n\nsub_1: assembly {\n        /* \"contracts/MultiInheritance.sol\":474:618  contract ParentC is ParentB{... */\n      mstore(0x40, 0x80)\n      callvalue\n      dup1\n      iszero\n      tag_1\n      jumpi\n      revert(0x00, 0x00)\n    tag_1:\n      pop\n      dataSize(sub_0)\n      dup1\n      dataOffset(sub_0)\n      0x00\n      codecopy\n      0x00\n      return\n    stop\n\n    sub_0: assembly {\n            /* \"contracts/MultiInheritance.sol\":474:618  contract ParentC is ParentB{... */\n          mstore(0x40, 0x80)\n          callvalue\n          dup1\n          iszero\n          tag_1\n          jumpi\n          revert(0x00, 0x00)\n        tag_1:\n          pop\n          jumpi(tag_2, lt(calldatasize, 0x04))\n          shr(0xe0, calldataload(0x00))\n          dup1\n          0x3ea0ced5\n          eq\n          tag_3\n          jumpi\n          dup1\n          0x7a63a91d\n          eq\n          tag_4\n          jumpi\n          dup1\n          0xfba4e8ef\n          eq\n          tag_5\n          jumpi\n        tag_2:\n          revert(0x00, 0x00)\n            /* \"contracts/MultiInheritance.sol\":212:319  function getAValue() external pure returns(string memory){... */\n        tag_3:\n          tag_6\n          tag_7\n          jump\t// in\n        tag_6:\n          mload(0x40)\n          tag_8\n          swap2\n          swap1\n          tag_9\n          jump\t// in\n        tag_8:\n          mload(0x40)\n          dup1\n          swap2\n          sub\n          swap1\n          return\n            /* \"contracts/MultiInheritance.sol\":360:467  function getBValue() external pure returns(string memory){... */\n        tag_4:\n          tag_10\n          tag_11\n          jump\t// in\n        tag_10:\n          mload(0x40)\n          tag_12\n          swap2\n          swap1\n          tag_9\n          jump\t// in\n        tag_12:\n          mload(0x40)\n          dup1\n          swap2\n          sub\n          swap1\n          return\n            /* \"contracts/MultiInheritance.sol\":508:615  function getCValue() external pure returns(string memory){... */\n        tag_5:\n          tag_13\n          tag_14\n          jump\t// in\n        tag_13:\n          mload(0x40)\n          tag_15\n          swap2\n          swap1\n          tag_9\n          jump\t// in\n        tag_15:\n          mload(0x40)\n          dup1\n          swap2\n          sub\n          swap1\n          return\n            /* \"contracts/MultiInheritance.sol\":212:319  function getAValue() external pure returns(string memory){... */\n        tag_7:\n            /* \"contracts/MultiInheritance.sol\":255:268  string memory */\n          0x60\n            /* \"contracts/MultiInheritance.sol\":280:311  return \"Contract A has called!\" */\n          mload(0x40)\n          dup1\n          0x40\n          add\n          0x40\n          mstore\n          dup1\n          0x16\n          dup2\n          mstore\n          0x20\n          add\n          0x436f6e74726163742041206861732063616c6c65642100000000000000000000\n          dup2\n          mstore\n          pop\n          swap1\n          pop\n            /* \"contracts/MultiInheritance.sol\":212:319  function getAValue() external pure returns(string memory){... */\n          swap1\n          jump\t// out\n            /* \"contracts/MultiInheritance.sol\":360:467  function getBValue() external pure returns(string memory){... */\n        tag_11:\n            /* \"contracts/MultiInheritance.sol\":403:416  string memory */\n          0x60\n            /* \"contracts/MultiInheritance.sol\":428:459  return \"Contract B has called!\" */\n          mload(0x40)\n          dup1\n          0x40\n          add\n          0x40\n          mstore\n          dup1\n          0x16\n          dup2\n          mstore\n          0x20\n          add\n          0x436f6e74726163742042206861732063616c6c65642100000000000000000000\n          dup2\n          mstore\n          pop\n          swap1\n          pop\n            /* \"contracts/MultiInheritance.sol\":360:467  function getBValue() external pure returns(string memory){... */\n          swap1\n          jump\t// out\n            /* \"contracts/MultiInheritance.sol\":508:615  function getCValue() external pure returns(string memory){... */\n        tag_14:\n            /* \"contracts/MultiInheritance.sol\":551:564  string memory */\n          0x60\n            /* \"contracts/MultiInheritance.sol\":576:607  return \"Contract C has called!\" */\n          mload(0x40)\n          dup1\n          0x40\n          add\n          0x40\n          mstore\n          dup1\n          0x16\n          dup2\n          mstore\n          0x20\n          add\n          0x436f6e74726163742043206861732063616c6c65642100000000000000000000\n          dup2\n          mstore\n          pop\n          swap1\n          pop\n            /* \"contracts/MultiInheritance.sol\":508:615  function getCValue() external pure returns(string memory){... */\n          swap1\n          jump\t// out\n            /* \"#utility.yul\":7:106   */\n        tag_19:\n            /* \"#utility.yul\":59:65   */\n          0x00\n            /* \"#utility.yul\":93:98   */\n          dup2\n            /* \"#utility.yul\":87:99   */\n          mload\n            /* \"#utility.yul\":77:99   */\n          swap1\n          pop\n            /* \"#utility.yul\":7:106   */\n          swap2\n          swap1\n          pop\n          jump\t// out\n            /* \"#utility.yul\":112:281   */\n        tag_20:\n            /* \"#utility.yul\":196:207   */\n          0x00\n            /* \"#utility.yul\":230:236   */\n          dup3\n            /* \"#utility.yul\":225:228   */\n          dup3\n            /* \"#utility.yul\":218:237   */\n          mstore\n            /* \"#utility.yul\":270:274   */\n          0x20\n            /* \"#utility.yul\":265:268   */\n          dup3\n            /* \"#utility.yul\":261:275   */\n          add\n            /* \"#utility.yul\":246:275   */\n          swap1\n          pop\n            /* \"#utility.yul\":112:281   */\n          swap3\n          swap2\n          pop\n          pop\n          jump\t// out\n            /* \"#utility.yul\":287:426   */\n        tag_21:\n            /* \"#utility.yul\":376:382   */\n          dup3\n            /* \"#utility.yul\":371:374   */\n          dup2\n            /* \"#utility.yul\":366:369   */\n          dup4\n            /* \"#utility.yul\":360:383   */\n          mcopy\n            /* \"#utility.yul\":417:418   */\n          0x00\n            /* \"#utility.yul\":408:414   */\n          dup4\n            /* \"#utility.yul\":403:406   */\n          dup4\n            /* \"#utility.yul\":399:415   */\n          add\n            /* \"#utility.yul\":392:419   */\n          mstore\n            /* \"#utility.yul\":287:426   */\n          pop\n          pop\n          pop\n          jump\t// out\n            /* \"#utility.yul\":432:534   */\n        tag_22:\n            /* \"#utility.yul\":473:479   */\n          0x00\n            /* \"#utility.yul\":524:526   */\n          0x1f\n            /* \"#utility.yul\":520:527   */\n          not\n            /* \"#utility.yul\":515:517   */\n          0x1f\n            /* \"#utility.yul\":508:513   */\n          dup4\n            /* \"#utility.yul\":504:518   */\n          add\n            /* \"#utility.yul\":500:528   */\n          and\n            /* \"#utility.yul\":490:528   */\n          swap1\n          pop\n            /* \"#utility.yul\":432:534   */\n          swap2\n          swap1\n          pop\n          jump\t// out\n            /* \"#utility.yul\":540:917   */\n        tag_23:\n            /* \"#utility.yul\":628:631   */\n          0x00\n            /* \"#utility.yul\":656:695   */\n          tag_30\n            /* \"#utility.yul\":689:694   */\n          dup3\n            /* \"#utility.yul\":656:695   */\n          tag_19\n          jump\t// in\n        tag_30:\n            /* \"#utility.yul\":711:782   */\n          tag_31\n            /* \"#utility.yul\":775:781   */\n          dup2\n            /* \"#utility.yul\":770:773   */\n          dup6\n            /* \"#utility.yul\":711:782   */\n          tag_20\n          jump\t// in\n        tag_31:\n            /* \"#utility.yul\":704:782   */\n          swap4\n          pop\n            /* \"#utility.yul\":791:856   */\n          tag_32\n            /* \"#utility.yul\":849:855   */\n          dup2\n            /* \"#utility.yul\":844:847   */\n          dup6\n            /* \"#utility.yul\":837:841   */\n          0x20\n            /* \"#utility.yul\":830:835   */\n          dup7\n            /* \"#utility.yul\":826:842   */\n          add\n            /* \"#utility.yul\":791:856   */\n          tag_21\n          jump\t// in\n        tag_32:\n            /* \"#utility.yul\":881:910   */\n          tag_33\n            /* \"#utility.yul\":903:909   */\n          dup2\n            /* \"#utility.yul\":881:910   */\n          tag_22\n          jump\t// in\n        tag_33:\n            /* \"#utility.yul\":876:879   */\n          dup5\n            /* \"#utility.yul\":872:911   */\n          add\n            /* \"#utility.yul\":865:911   */\n          swap2\n          pop\n            /* \"#utility.yul\":632:917   */\n          pop\n            /* \"#utility.yul\":540:917   */\n          swap3\n          swap2\n          pop\n          pop\n          jump\t// out\n            /* \"#utility.yul\":923:1236   */\n        tag_9:\n            /* \"#utility.yul\":1036:1040   */\n          0x00\n            /* \"#utility.yul\":1074:1076   */\n          0x20\n            /* \"#utility.yul\":1063:1072   */\n          dup3\n            /* \"#utility.yul\":1059:1077   */\n          add\n            /* \"#utility.yul\":1051:1077   */\n          swap1\n          pop\n            /* \"#utility.yul\":1123:1132   */\n          dup2\n            /* \"#utility.yul\":1117:1121   */\n          dup2\n            /* \"#utility.yul\":1113:1133   */\n          sub\n            /* \"#utility.yul\":1109:1110   */\n          0x00\n            /* \"#utility.yul\":1098:1107   */\n          dup4\n            /* \"#utility.yul\":1094:1111   */\n          add\n            /* \"#utility.yul\":1087:1134   */\n          mstore\n            /* \"#utility.yul\":1151:1229   */\n          tag_35\n            /* \"#utility.yul\":1224:1228   */\n          dup2\n            /* \"#utility.yul\":1215:1221   */\n          dup5\n            /* \"#utility.yul\":1151:1229   */\n          tag_23\n          jump\t// in\n        tag_35:\n            /* \"#utility.yul\":1143:1229   */\n          swap1\n          pop\n            /* \"#utility.yul\":923:1236   */\n          swap3\n          swap2\n          pop\n          pop\n          jump\t// out\n\n        auxdata: 0xa2646970667358221220d2d0553060c5db7bc6928abc88e7cbf447be3fd7e40a1c0c235ae8ccb2e0dcae64736f6c634300081e0033\n    }\n}\n",
				"bytecode": {
					"linkReferences": {},
					"object": "6080604052604051600e906074565b604051809103905ff0801580156026573d5f5f3e3d5ffd5b505f5f6101000a81548173ffffffffffffffffffffffffffffffffffffffff021916908373ffffffffffffffffffffffffffffffffffffffff160217905550348015606f575f5ffd5b506081565b6102368061050183390190565b6104738061008e5f395ff3fe608060405234801561000f575f5ffd5b5060043610610029575f3560e01c80632b445d781461002d575b5f5ffd5b61003561004d565b6040516100449392919061027d565b60405180910390f35b60608060605f5f9054906101000a900473ffffffffffffffffffffffffffffffffffffffff1673ffffffffffffffffffffffffffffffffffffffff16633ea0ced56040518163ffffffff1660e01b81526004015f60405180830381865afa1580156100ba573d5f5f3e3d5ffd5b505050506040513d5f823e3d601f19601f820116820180604052508101906100e291906103f6565b5f5f9054906101000a900473ffffffffffffffffffffffffffffffffffffffff1673ffffffffffffffffffffffffffffffffffffffff16637a63a91d6040518163ffffffff1660e01b81526004015f60405180830381865afa15801561014a573d5f5f3e3d5ffd5b505050506040513d5f823e3d601f19601f8201168201806040525081019061017291906103f6565b5f5f9054906101000a900473ffffffffffffffffffffffffffffffffffffffff1673ffffffffffffffffffffffffffffffffffffffff1663fba4e8ef6040518163ffffffff1660e01b81526004015f60405180830381865afa1580156101da573d5f5f3e3d5ffd5b505050506040513d5f823e3d601f19601f8201168201806040525081019061020291906103f6565b925092509250909192565b5f81519050919050565b5f82825260208201905092915050565b8281835e5f83830152505050565b5f601f19601f8301169050919050565b5f61024f8261020d565b6102598185610217565b9350610269818560208601610227565b61027281610235565b840191505092915050565b5f6060820190508181035f8301526102958186610245565b905081810360208301526102a98185610245565b905081810360408301526102bd8184610245565b9050949350505050565b5f604051905090565b5f5ffd5b5f5ffd5b5f5ffd5b5f5ffd5b7f4e487b71000000000000000000000000000000000000000000000000000000005f52604160045260245ffd5b61031682610235565b810181811067ffffffffffffffff82111715610335576103346102e0565b5b80604052505050565b5f6103476102c7565b9050610353828261030d565b919050565b5f67ffffffffffffffff821115610372576103716102e0565b5b61037b82610235565b9050602081019050919050565b5f61039a61039584610358565b61033e565b9050828152602081018484840111156103b6576103b56102dc565b5b6103c1848285610227565b509392505050565b5f82601f8301126103dd576103dc6102d8565b5b81516103ed848260208601610388565b91505092915050565b5f6020828403121561040b5761040a6102d0565b5b5f82015167ffffffffffffffff811115610428576104276102d4565b5b610434848285016103c9565b9150509291505056fea26469706673582212204b2a9f5750bb362343f88c4075229c16d260291309824bfea9f1e59cbc81bfa164736f6c634300081e00336080604052348015600e575f5ffd5b5061021a8061001c5f395ff3fe608060405234801561000f575f5ffd5b506004361061003f575f3560e01c80633ea0ced5146100435780637a63a91d14610061578063fba4e8ef1461007f575b5f5ffd5b61004b61009d565b60405161005891906101c4565b60405180910390f35b6100696100da565b60405161007691906101c4565b60405180910390f35b610087610117565b60405161009491906101c4565b60405180910390f35b60606040518060400160405280601681526020017f436f6e74726163742041206861732063616c6c65642100000000000000000000815250905090565b60606040518060400160405280601681526020017f436f6e74726163742042206861732063616c6c65642100000000000000000000815250905090565b60606040518060400160405280601681526020017f436f6e74726163742043206861732063616c6c65642100000000000000000000815250905090565b5f81519050919050565b5f82825260208201905092915050565b8281835e5f83830152505050565b5f601f19601f8301169050919050565b5f61019682610154565b6101a0818561015e565b93506101b081856020860161016e565b6101b98161017c565b840191505092915050565b5f6020820190508181035f8301526101dc818461018c565b90509291505056fea2646970667358221220d2d0553060c5db7bc6928abc88e7cbf447be3fd7e40a1c0c235ae8ccb2e0dcae64736f6c634300081e0033",
					"opcodes": "PUSH1 0x80 PUSH1 0x40 MSTORE PUSH1 0x40 MLOAD PUSH1 0xE SWAP1 PUSH1 0x74 JUMP JUMPDEST PUSH1 0x40 MLOAD DUP1 SWAP2 SUB SWAP1 PUSH0 CREATE DUP1 ISZERO DUP1 ISZERO PUSH1 0x26 JUMPI RETURNDATASIZE PUSH0 PUSH0 RETURNDATACOPY RETURNDATASIZE PUSH0 REVERT JUMPDEST POP PUSH0 PUSH0 PUSH2 0x100 EXP DUP2 SLOAD DUP2 PUSH20 0xFFFFFFFFFFFFFFFFFFFFFFFFFFFFFFFFFFFFFFFF MUL NOT AND SWAP1 DUP4 PUSH20 0xFFFFFFFFFFFFFFFFFFFFFFFFFFFFFFFFFFFFFFFF AND MUL OR SWAP1 SSTORE POP CALLVALUE DUP1 ISZERO PUSH1 0x6F JUMPI PUSH0 PUSH0 REVERT JUMPDEST POP PUSH1 0x81 JUMP JUMPDEST PUSH2 0x236 DUP1 PUSH2 0x501 DUP4 CODECOPY ADD SWAP1 JUMP JUMPDEST PUSH2 0x473 DUP1 PUSH2 0x8E PUSH0 CODECOPY PUSH0 RETURN INVALID PUSH1 0x80 PUSH1 0x40 MSTORE CALLVALUE DUP1 ISZERO PUSH2 0xF JUMPI PUSH0 PUSH0 REVERT JUMPDEST POP PUSH1 0x4 CALLDATASIZE LT PUSH2 0x29 JUMPI PUSH0 CALLDATALOAD PUSH1 0xE0 SHR DUP1 PUSH4 0x2B445D78 EQ PUSH2 0x2D JUMPI JUMPDEST PUSH0 PUSH0 REVERT JUMPDEST PUSH2 0x35 PUSH2 0x4D JUMP JUMPDEST PUSH1 0x40 MLOAD PUSH2 0x44 SWAP4 SWAP3 SWAP2 SWAP1 PUSH2 0x27D JUMP JUMPDEST PUSH1 0x40 MLOAD DUP1 SWAP2 SUB SWAP1 RETURN JUMPDEST PUSH1 0x60 DUP1 PUSH1 0x60 PUSH0 PUSH0 SWAP1 SLOAD SWAP1 PUSH2 0x100 EXP SWAP1 DIV PUSH20 0xFFFFFFFFFFFFFFFFFFFFFFFFFFFFFFFFFFFFFFFF AND PUSH20 0xFFFFFFFFFFFFFFFFFFFFFFFFFFFFFFFFFFFFFFFF AND PUSH4 0x3EA0CED5 PUSH1 0x40 MLOAD DUP2 PUSH4 0xFFFFFFFF AND PUSH1 0xE0 SHL DUP2 MSTORE PUSH1 0x4 ADD PUSH0 PUSH1 0x40 MLOAD DUP1 DUP4 SUB DUP2 DUP7 GAS STATICCALL ISZERO DUP1 ISZERO PUSH2 0xBA JUMPI RETURNDATASIZE PUSH0 PUSH0 RETURNDATACOPY RETURNDATASIZE PUSH0 REVERT JUMPDEST POP POP POP POP PUSH1 0x40 MLOAD RETURNDATASIZE PUSH0 DUP3 RETURNDATACOPY RETURNDATASIZE PUSH1 0x1F NOT PUSH1 0x1F DUP3 ADD AND DUP3 ADD DUP1 PUSH1 0x40 MSTORE POP DUP2 ADD SWAP1 PUSH2 0xE2 SWAP2 SWAP1 PUSH2 0x3F6 JUMP JUMPDEST PUSH0 PUSH0 SWAP1 SLOAD SWAP1 PUSH2 0x100 EXP SWAP1 DIV PUSH20 0xFFFFFFFFFFFFFFFFFFFFFFFFFFFFFFFFFFFFFFFF AND PUSH20 0xFFFFFFFFFFFFFFFFFFFFFFFFFFFFFFFFFFFFFFFF AND PUSH4 0x7A63A91D PUSH1 0x40 MLOAD DUP2 PUSH4 0xFFFFFFFF AND PUSH1 0xE0 SHL DUP2 MSTORE PUSH1 0x4 ADD PUSH0 PUSH1 0x40 MLOAD DUP1 DUP4 SUB DUP2 DUP7 GAS STATICCALL ISZERO DUP1 ISZERO PUSH2 0x14A JUMPI RETURNDATASIZE PUSH0 PUSH0 RETURNDATACOPY RETURNDATASIZE PUSH0 REVERT JUMPDEST POP POP POP POP PUSH1 0x40 MLOAD RETURNDATASIZE PUSH0 DUP3 RETURNDATACOPY RETURNDATASIZE PUSH1 0x1F NOT PUSH1 0x1F DUP3 ADD AND DUP3 ADD DUP1 PUSH1 0x40 MSTORE POP DUP2 ADD SWAP1 PUSH2 0x172 SWAP2 SWAP1 PUSH2 0x3F6 JUMP JUMPDEST PUSH0 PUSH0 SWAP1 SLOAD SWAP1 PUSH2 0x100 EXP SWAP1 DIV PUSH20 0xFFFFFFFFFFFFFFFFFFFFFFFFFFFFFFFFFFFFFFFF AND PUSH20 0xFFFFFFFFFFFFFFFFFFFFFFFFFFFFFFFFFFFFFFFF AND PUSH4 0xFBA4E8EF PUSH1 0x40 MLOAD DUP2 PUSH4 0xFFFFFFFF AND PUSH1 0xE0 SHL DUP2 MSTORE PUSH1 0x4 ADD PUSH0 PUSH1 0x40 MLOAD DUP1 DUP4 SUB DUP2 DUP7 GAS STATICCALL ISZERO DUP1 ISZERO PUSH2 0x1DA JUMPI RETURNDATASIZE PUSH0 PUSH0 RETURNDATACOPY RETURNDATASIZE PUSH0 REVERT JUMPDEST POP POP POP POP PUSH1 0x40 MLOAD RETURNDATASIZE PUSH0 DUP3 RETURNDATACOPY RETURNDATASIZE PUSH1 0x1F NOT PUSH1 0x1F DUP3 ADD AND DUP3 ADD DUP1 PUSH1 0x40 MSTORE POP DUP2 ADD SWAP1 PUSH2 0x202 SWAP2 SWAP1 PUSH2 0x3F6 JUMP JUMPDEST SWAP3 POP SWAP3 POP SWAP3 POP SWAP1 SWAP2 SWAP3 JUMP JUMPDEST PUSH0 DUP2 MLOAD SWAP1 POP SWAP2 SWAP1 POP JUMP JUMPDEST PUSH0 DUP3 DUP3 MSTORE PUSH1 0x20 DUP3 ADD SWAP1 POP SWAP3 SWAP2 POP POP JUMP JUMPDEST DUP3 DUP2 DUP4 MCOPY PUSH0 DUP4 DUP4 ADD MSTORE POP POP POP JUMP JUMPDEST PUSH0 PUSH1 0x1F NOT PUSH1 0x1F DUP4 ADD AND SWAP1 POP SWAP2 SWAP1 POP JUMP JUMPDEST PUSH0 PUSH2 0x24F DUP3 PUSH2 0x20D JUMP JUMPDEST PUSH2 0x259 DUP2 DUP6 PUSH2 0x217 JUMP JUMPDEST SWAP4 POP PUSH2 0x269 DUP2 DUP6 PUSH1 0x20 DUP7 ADD PUSH2 0x227 JUMP JUMPDEST PUSH2 0x272 DUP2 PUSH2 0x235 JUMP JUMPDEST DUP5 ADD SWAP2 POP POP SWAP3 SWAP2 POP POP JUMP JUMPDEST PUSH0 PUSH1 0x60 DUP3 ADD SWAP1 POP DUP2 DUP2 SUB PUSH0 DUP4 ADD MSTORE PUSH2 0x295 DUP2 DUP7 PUSH2 0x245 JUMP JUMPDEST SWAP1 POP DUP2 DUP2 SUB PUSH1 0x20 DUP4 ADD MSTORE PUSH2 0x2A9 DUP2 DUP6 PUSH2 0x245 JUMP JUMPDEST SWAP1 POP DUP2 DUP2 SUB PUSH1 0x40 DUP4 ADD MSTORE PUSH2 0x2BD DUP2 DUP5 PUSH2 0x245 JUMP JUMPDEST SWAP1 POP SWAP5 SWAP4 POP POP POP POP JUMP JUMPDEST PUSH0 PUSH1 0x40 MLOAD SWAP1 POP SWAP1 JUMP JUMPDEST PUSH0 PUSH0 REVERT JUMPDEST PUSH0 PUSH0 REVERT JUMPDEST PUSH0 PUSH0 REVERT JUMPDEST PUSH0 PUSH0 REVERT JUMPDEST PUSH32 0x4E487B7100000000000000000000000000000000000000000000000000000000 PUSH0 MSTORE PUSH1 0x41 PUSH1 0x4 MSTORE PUSH1 0x24 PUSH0 REVERT JUMPDEST PUSH2 0x316 DUP3 PUSH2 0x235 JUMP JUMPDEST DUP2 ADD DUP2 DUP2 LT PUSH8 0xFFFFFFFFFFFFFFFF DUP3 GT OR ISZERO PUSH2 0x335 JUMPI PUSH2 0x334 PUSH2 0x2E0 JUMP JUMPDEST JUMPDEST DUP1 PUSH1 0x40 MSTORE POP POP POP JUMP JUMPDEST PUSH0 PUSH2 0x347 PUSH2 0x2C7 JUMP JUMPDEST SWAP1 POP PUSH2 0x353 DUP3 DUP3 PUSH2 0x30D JUMP JUMPDEST SWAP2 SWAP1 POP JUMP JUMPDEST PUSH0 PUSH8 0xFFFFFFFFFFFFFFFF DUP3 GT ISZERO PUSH2 0x372 JUMPI PUSH2 0x371 PUSH2 0x2E0 JUMP JUMPDEST JUMPDEST PUSH2 0x37B DUP3 PUSH2 0x235 JUMP JUMPDEST SWAP1 POP PUSH1 0x20 DUP2 ADD SWAP1 POP SWAP2 SWAP1 POP JUMP JUMPDEST PUSH0 PUSH2 0x39A PUSH2 0x395 DUP5 PUSH2 0x358 JUMP JUMPDEST PUSH2 0x33E JUMP JUMPDEST SWAP1 POP DUP3 DUP2 MSTORE PUSH1 0x20 DUP2 ADD DUP5 DUP5 DUP5 ADD GT ISZERO PUSH2 0x3B6 JUMPI PUSH2 0x3B5 PUSH2 0x2DC JUMP JUMPDEST JUMPDEST PUSH2 0x3C1 DUP5 DUP3 DUP6 PUSH2 0x227 JUMP JUMPDEST POP SWAP4 SWAP3 POP POP POP JUMP JUMPDEST PUSH0 DUP3 PUSH1 0x1F DUP4 ADD SLT PUSH2 0x3DD JUMPI PUSH2 0x3DC PUSH2 0x2D8 JUMP JUMPDEST JUMPDEST DUP2 MLOAD PUSH2 0x3ED DUP5 DUP3 PUSH1 0x20 DUP7 ADD PUSH2 0x388 JUMP JUMPDEST SWAP2 POP POP SWAP3 SWAP2 POP POP JUMP JUMPDEST PUSH0 PUSH1 0x20 DUP3 DUP5 SUB SLT ISZERO PUSH2 0x40B JUMPI PUSH2 0x40A PUSH2 0x2D0 JUMP JUMPDEST JUMPDEST PUSH0 DUP3 ADD MLOAD PUSH8 0xFFFFFFFFFFFFFFFF DUP2 GT ISZERO PUSH2 0x428 JUMPI PUSH2 0x427 PUSH2 0x2D4 JUMP JUMPDEST JUMPDEST PUSH2 0x434 DUP5 DUP3 DUP6 ADD PUSH2 0x3C9 JUMP JUMPDEST SWAP2 POP POP SWAP3 SWAP2 POP POP JUMP INVALID LOG2 PUSH5 0x6970667358 0x22 SLT KECCAK256 0x4B 0x2A SWAP16 JUMPI POP 0xBB CALLDATASIZE 0x23 NUMBER EXTCALL DUP13 BLOCKHASH PUSH22 0x229C16D260291309824BFEA9F1E59CBC81BFA164736F PUSH13 0x634300081E0033608060405234 DUP1 ISZERO PUSH1 0xE JUMPI PUSH0 PUSH0 REVERT JUMPDEST POP PUSH2 0x21A DUP1 PUSH2 0x1C PUSH0 CODECOPY PUSH0 RETURN INVALID PUSH1 0x80 PUSH1 0x40 MSTORE CALLVALUE DUP1 ISZERO PUSH2 0xF JUMPI PUSH0 PUSH0 REVERT JUMPDEST POP PUSH1 0x4 CALLDATASIZE LT PUSH2 0x3F JUMPI PUSH0 CALLDATALOAD PUSH1 0xE0 SHR DUP1 PUSH4 0x3EA0CED5 EQ PUSH2 0x43 JUMPI DUP1 PUSH4 0x7A63A91D EQ PUSH2 0x61 JUMPI DUP1 PUSH4 0xFBA4E8EF EQ PUSH2 0x7F JUMPI JUMPDEST PUSH0 PUSH0 REVERT JUMPDEST PUSH2 0x4B PUSH2 0x9D JUMP JUMPDEST PUSH1 0x40 MLOAD PUSH2 0x58 SWAP2 SWAP1 PUSH2 0x1C4 JUMP JUMPDEST PUSH1 0x40 MLOAD DUP1 SWAP2 SUB SWAP1 RETURN JUMPDEST PUSH2 0x69 PUSH2 0xDA JUMP JUMPDEST PUSH1 0x40 MLOAD PUSH2 0x76 SWAP2 SWAP1 PUSH2 0x1C4 JUMP JUMPDEST PUSH1 0x40 MLOAD DUP1 SWAP2 SUB SWAP1 RETURN JUMPDEST PUSH2 0x87 PUSH2 0x117 JUMP JUMPDEST PUSH1 0x40 MLOAD PUSH2 0x94 SWAP2 SWAP1 PUSH2 0x1C4 JUMP JUMPDEST PUSH1 0x40 MLOAD DUP1 SWAP2 SUB SWAP1 RETURN JUMPDEST PUSH1 0x60 PUSH1 0x40 MLOAD DUP1 PUSH1 0x40 ADD PUSH1 0x40 MSTORE DUP1 PUSH1 0x16 DUP2 MSTORE PUSH1 0x20 ADD PUSH32 0x436F6E74726163742041206861732063616C6C65642100000000000000000000 DUP2 MSTORE POP SWAP1 POP SWAP1 JUMP JUMPDEST PUSH1 0x60 PUSH1 0x40 MLOAD DUP1 PUSH1 0x40 ADD PUSH1 0x40 MSTORE DUP1 PUSH1 0x16 DUP2 MSTORE PUSH1 0x20 ADD PUSH32 0x436F6E74726163742042206861732063616C6C65642100000000000000000000 DUP2 MSTORE POP SWAP1 POP SWAP1 JUMP JUMPDEST PUSH1 0x60 PUSH1 0x40 MLOAD DUP1 PUSH1 0x40 ADD PUSH1 0x40 MSTORE DUP1 PUSH1 0x16 DUP2 MSTORE PUSH1 0x20 ADD PUSH32 0x436F6E74726163742043206861732063616C6C65642100000000000000000000 DUP2 MSTORE POP SWAP1 POP SWAP1 JUMP JUMPDEST PUSH0 DUP2 MLOAD SWAP1 POP SWAP2 SWAP1 POP JUMP JUMPDEST PUSH0 DUP3 DUP3 MSTORE PUSH1 0x20 DUP3 ADD SWAP1 POP SWAP3 SWAP2 POP POP JUMP JUMPDEST DUP3 DUP2 DUP4 MCOPY PUSH0 DUP4 DUP4 ADD MSTORE POP POP POP JUMP JUMPDEST PUSH0 PUSH1 0x1F NOT PUSH1 0x1F DUP4 ADD AND SWAP1 POP SWAP2 SWAP1 POP JUMP JUMPDEST PUSH0 PUSH2 0x196 DUP3 PUSH2 0x154 JUMP JUMPDEST PUSH2 0x1A0 DUP2 DUP6 PUSH2 0x15E JUMP JUMPDEST SWAP4 POP PUSH2 0x1B0 DUP2 DUP6 PUSH1 0x20 DUP7 ADD PUSH2 0x16E JUMP JUMPDEST PUSH2 0x1B9 DUP2 PUSH2 0x17C JUMP JUMPDEST DUP5 ADD SWAP2 POP POP SWAP3 SWAP2 POP POP JUMP JUMPDEST PUSH0 PUSH1 0x20 DUP3 ADD SWAP1 POP DUP2 DUP2 SUB PUSH0 DUP4 ADD MSTORE PUSH2 0x1DC DUP2 DUP5 PUSH2 0x18C JUMP JUMPDEST SWAP1 POP SWAP3 SWAP2 POP POP JUMP INVALID LOG2 PUSH5 0x6970667358 0x22 SLT KECCAK256 0xD2 0xD0 SSTORE ADDRESS PUSH1 0xC5 0xDB PUSH28 0xC6928ABC88E7CBF447BE3FD7E40A1C0C235AE8CCB2E0DCAE64736F6C PUSH4 0x4300081E STOP CALLER "
				},
				"gasEstimates": {
					"creation": {
						"codeDepositCost": "227800",
						"executionCost": "infinite",
						"totalCost": "infinite"
					},
					"external": {
						"inherit()": "infinite"
					}
				},
				"methodIdentifiers": {
					"inherit()": "2b445d78"
				}
			},
			"storageLayout": {
				"storage": [
					{
						"astId": 39,
						"contract": "contracts/MultiInheritance.sol:caller",
						"label": "contractC",
						"offset": 0,
						"slot": "0",
						"type": "t_contract(ParentC)32"
					}
				],
				"types": {
					"t_contract(ParentC)32": {
						"encoding": "inplace",
						"label": "contract ParentC",
						"numberOfBytes": "20"
					}
				}
			},
			"userdoc": {
				"kind": "user",
				"methods": {},
				"version": 1
			}
		}
	}
}