{
	"contracts/FunctionContract.sol": {
		"PayableContract": {
			"abi": [
				{
					"inputs": [],
					"name": "getTotalAmount",
					"outputs": [
						{
							"internalType": "uint256",
							"name": "",
							"type": "uint256"
						}
					],
					"stateMutability": "view",
					"type": "function"
				},
				{
					"inputs": [],
					"name": "receivedEther",
					"outputs": [],
					"stateMutability": "payable",
					"type": "function"
				},
				{
					"inputs": [
						{
							"internalType": "uint256",
							"name": "num1",
							"type": "uint256"
						},
						{
							"internalType": "uint256",
							"name": "num2",
							"type": "uint256"
						},
						{
							"internalType": "uint256",
							"name": "num3",
							"type": "uint256"
						}
					],
					"name": "tambah",
					"outputs": [
						{
							"internalType": "uint256",
							"name": "hasil",
							"type": "uint256"
						}
					],
					"stateMutability": "pure",
					"type": "function"
				},
				{
					"inputs": [
						{
							"internalType": "uint256",
							"name": "num1",
							"type": "uint256"
						},
						{
							"internalType": "uint256",
							"name": "num2",
							"type": "uint256"
						}
					],
					"name": "tambah",
					"outputs": [
						{
							"internalType": "uint256",
							"name": "hasil",
							"type": "uint256"
						}
					],
					"stateMutability": "pure",
					"type": "function"
				}
			],
			"devdoc": {
				"kind": "dev",
				"methods": {},
				"version": 1
			},
			"evm": {
				"assembly": "    /* \"contracts/FunctionContract.sol\":600:1291  contract PayableContract{\r... */\n  mstore(0x40, 0x80)\n  callvalue\n  dup1\n  iszero\n  tag_1\n  jumpi\n  0x00\n  dup1\n  revert\ntag_1:\n  pop\n  dataSize(sub_0)\n  dup1\n  dataOffset(sub_0)\n  0x00\n  codecopy\n  0x00\n  return\nstop\n\nsub_0: assembly {\n        /* \"contracts/FunctionContract.sol\":600:1291  contract PayableContract{\r... */\n      mstore(0x40, 0x80)\n      jumpi(tag_1, lt(calldatasize, 0x04))\n      shr(0xe0, calldataload(0x00))\n      dup1\n      0x65ac4341\n      eq\n      tag_2\n      jumpi\n      dup1\n      0x6a3e66b9\n      eq\n      tag_3\n      jumpi\n      dup1\n      0xcd53e455\n      eq\n      tag_4\n      jumpi\n      dup1\n      0xf604bf57\n      eq\n      tag_5\n      jumpi\n    tag_1:\n      0x00\n      dup1\n      revert\n        /* \"contracts/FunctionContract.sol\":852:942  function getTotalAmount()public view returns(uint){\r... */\n    tag_2:\n      callvalue\n      dup1\n      iszero\n      tag_6\n      jumpi\n      0x00\n      dup1\n      revert\n    tag_6:\n      pop\n      tag_7\n      tag_8\n      jump\t// in\n    tag_7:\n      mload(0x40)\n      tag_9\n      swap2\n      swap1\n      tag_10\n      jump\t// in\n    tag_9:\n      mload(0x40)\n      dup1\n      swap2\n      sub\n      swap1\n      return\n        /* \"contracts/FunctionContract.sol\":1163:1288  function tambah(uint num1, uint num2, uint num3)public pure returns (uint hasil){\r... */\n    tag_3:\n      callvalue\n      dup1\n      iszero\n      tag_11\n      jumpi\n      0x00\n      dup1\n      revert\n    tag_11:\n      pop\n      tag_12\n      0x04\n      dup1\n      calldatasize\n      sub\n      dup2\n      add\n      swap1\n      tag_13\n      swap2\n      swap1\n      tag_14\n      jump\t// in\n    tag_13:\n      tag_15\n      jump\t// in\n    tag_12:\n      mload(0x40)\n      tag_16\n      swap2\n      swap1\n      tag_10\n      jump\t// in\n    tag_16:\n      mload(0x40)\n      dup1\n      swap2\n      sub\n      swap1\n      return\n        /* \"contracts/FunctionContract.sol\":702:844  function receivedEther()payable public{\r... */\n    tag_4:\n      tag_17\n      tag_18\n      jump\t// in\n    tag_17:\n      stop\n        /* \"contracts/FunctionContract.sol\":1048:1155  function tambah(uint num1, uint num2)public pure returns (uint hasil){\r... */\n    tag_5:\n      callvalue\n      dup1\n      iszero\n      tag_19\n      jumpi\n      0x00\n      dup1\n      revert\n    tag_19:\n      pop\n      tag_20\n      0x04\n      dup1\n      calldatasize\n      sub\n      dup2\n      add\n      swap1\n      tag_21\n      swap2\n      swap1\n      tag_22\n      jump\t// in\n    tag_21:\n      tag_23\n      jump\t// in\n    tag_20:\n      mload(0x40)\n      tag_24\n      swap2\n      swap1\n      tag_10\n      jump\t// in\n    tag_24:\n      mload(0x40)\n      dup1\n      swap2\n      sub\n      swap1\n      return\n        /* \"contracts/FunctionContract.sol\":852:942  function getTotalAmount()public view returns(uint){\r... */\n    tag_8:\n        /* \"contracts/FunctionContract.sol\":897:901  uint */\n      0x00\n        /* \"contracts/FunctionContract.sol\":920:933  receiveAmount */\n      dup1\n      sload\n        /* \"contracts/FunctionContract.sol\":913:933  return receiveAmount */\n      swap1\n      pop\n        /* \"contracts/FunctionContract.sol\":852:942  function getTotalAmount()public view returns(uint){\r... */\n      swap1\n      jump\t// out\n        /* \"contracts/FunctionContract.sol\":1163:1288  function tambah(uint num1, uint num2, uint num3)public pure returns (uint hasil){\r... */\n    tag_15:\n        /* \"contracts/FunctionContract.sol\":1232:1242  uint hasil */\n      0x00\n        /* \"contracts/FunctionContract.sol\":1276:1280  num3 */\n      dup2\n        /* \"contracts/FunctionContract.sol\":1269:1273  num2 */\n      dup4\n        /* \"contracts/FunctionContract.sol\":1262:1266  num1 */\n      dup6\n        /* \"contracts/FunctionContract.sol\":1262:1273  num1 + num2 */\n      tag_27\n      swap2\n      swap1\n      tag_28\n      jump\t// in\n    tag_27:\n        /* \"contracts/FunctionContract.sol\":1262:1280  num1 + num2 + num3 */\n      tag_29\n      swap2\n      swap1\n      tag_28\n      jump\t// in\n    tag_29:\n        /* \"contracts/FunctionContract.sol\":1254:1280  hasil = num1 + num2 + num3 */\n      swap1\n      pop\n        /* \"contracts/FunctionContract.sol\":1163:1288  function tambah(uint num1, uint num2, uint num3)public pure returns (uint hasil){\r... */\n      swap4\n      swap3\n      pop\n      pop\n      pop\n      jump\t// out\n        /* \"contracts/FunctionContract.sol\":702:844  function receivedEther()payable public{\r... */\n    tag_18:\n        /* \"contracts/FunctionContract.sol\":767:776  msg.value */\n      callvalue\n        /* \"contracts/FunctionContract.sol\":751:764  receiveAmount */\n      0x00\n        /* \"contracts/FunctionContract.sol\":751:776  receiveAmount = msg.value */\n      dup2\n      swap1\n      sstore\n      pop\n        /* \"contracts/FunctionContract.sol\":702:844  function receivedEther()payable public{\r... */\n      jump\t// out\n        /* \"contracts/FunctionContract.sol\":1048:1155  function tambah(uint num1, uint num2)public pure returns (uint hasil){\r... */\n    tag_23:\n        /* \"contracts/FunctionContract.sol\":1106:1116  uint hasil */\n      0x00\n        /* \"contracts/FunctionContract.sol\":1143:1147  num2 */\n      dup2\n        /* \"contracts/FunctionContract.sol\":1136:1140  num1 */\n      dup4\n        /* \"contracts/FunctionContract.sol\":1136:1147  num1 + num2 */\n      tag_32\n      swap2\n      swap1\n      tag_28\n      jump\t// in\n    tag_32:\n        /* \"contracts/FunctionContract.sol\":1128:1147  hasil = num1 + num2 */\n      swap1\n      pop\n        /* \"contracts/FunctionContract.sol\":1048:1155  function tambah(uint num1, uint num2)public pure returns (uint hasil){\r... */\n      swap3\n      swap2\n      pop\n      pop\n      jump\t// out\n        /* \"#utility.yul\":7:146   */\n    tag_34:\n      0x00\n        /* \"#utility.yul\":91:97   */\n      dup2\n        /* \"#utility.yul\":78:98   */\n      calldataload\n        /* \"#utility.yul\":69:98   */\n      swap1\n      pop\n        /* \"#utility.yul\":107:140   */\n      tag_36\n        /* \"#utility.yul\":134:139   */\n      dup2\n        /* \"#utility.yul\":107:140   */\n      tag_37\n      jump\t// in\n    tag_36:\n        /* \"#utility.yul\":59:146   */\n      swap3\n      swap2\n      pop\n      pop\n      jump\t// out\n        /* \"#utility.yul\":152:559   */\n    tag_22:\n      0x00\n      dup1\n        /* \"#utility.yul\":277:279   */\n      0x40\n        /* \"#utility.yul\":265:274   */\n      dup4\n        /* \"#utility.yul\":256:263   */\n      dup6\n        /* \"#utility.yul\":252:275   */\n      sub\n        /* \"#utility.yul\":248:280   */\n      slt\n        /* \"#utility.yul\":245:247   */\n      iszero\n      tag_39\n      jumpi\n        /* \"#utility.yul\":293:294   */\n      0x00\n        /* \"#utility.yul\":290:291   */\n      dup1\n        /* \"#utility.yul\":283:295   */\n      revert\n        /* \"#utility.yul\":245:247   */\n    tag_39:\n        /* \"#utility.yul\":336:337   */\n      0x00\n        /* \"#utility.yul\":361:414   */\n      tag_40\n        /* \"#utility.yul\":406:413   */\n      dup6\n        /* \"#utility.yul\":397:403   */\n      dup3\n        /* \"#utility.yul\":386:395   */\n      dup7\n        /* \"#utility.yul\":382:404   */\n      add\n        /* \"#utility.yul\":361:414   */\n      tag_34\n      jump\t// in\n    tag_40:\n        /* \"#utility.yul\":351:414   */\n      swap3\n      pop\n        /* \"#utility.yul\":307:424   */\n      pop\n        /* \"#utility.yul\":463:465   */\n      0x20\n        /* \"#utility.yul\":489:542   */\n      tag_41\n        /* \"#utility.yul\":534:541   */\n      dup6\n        /* \"#utility.yul\":525:531   */\n      dup3\n        /* \"#utility.yul\":514:523   */\n      dup7\n        /* \"#utility.yul\":510:532   */\n      add\n        /* \"#utility.yul\":489:542   */\n      tag_34\n      jump\t// in\n    tag_41:\n        /* \"#utility.yul\":479:542   */\n      swap2\n      pop\n        /* \"#utility.yul\":434:552   */\n      pop\n        /* \"#utility.yul\":235:559   */\n      swap3\n      pop\n      swap3\n      swap1\n      pop\n      jump\t// out\n        /* \"#utility.yul\":565:1117   */\n    tag_14:\n      0x00\n      dup1\n      0x00\n        /* \"#utility.yul\":707:709   */\n      0x60\n        /* \"#utility.yul\":695:704   */\n      dup5\n        /* \"#utility.yul\":686:693   */\n      dup7\n        /* \"#utility.yul\":682:705   */\n      sub\n        /* \"#utility.yul\":678:710   */\n      slt\n        /* \"#utility.yul\":675:677   */\n      iszero\n      tag_43\n      jumpi\n        /* \"#utility.yul\":723:724   */\n      0x00\n        /* \"#utility.yul\":720:721   */\n      dup1\n        /* \"#utility.yul\":713:725   */\n      revert\n        /* \"#utility.yul\":675:677   */\n    tag_43:\n        /* \"#utility.yul\":766:767   */\n      0x00\n        /* \"#utility.yul\":791:844   */\n      tag_44\n        /* \"#utility.yul\":836:843   */\n      dup7\n        /* \"#utility.yul\":827:833   */\n      dup3\n        /* \"#utility.yul\":816:825   */\n      dup8\n        /* \"#utility.yul\":812:834   */\n      add\n        /* \"#utility.yul\":791:844   */\n      tag_34\n      jump\t// in\n    tag_44:\n        /* \"#utility.yul\":781:844   */\n      swap4\n      pop\n        /* \"#utility.yul\":737:854   */\n      pop\n        /* \"#utility.yul\":893:895   */\n      0x20\n        /* \"#utility.yul\":919:972   */\n      tag_45\n        /* \"#utility.yul\":964:971   */\n      dup7\n        /* \"#utility.yul\":955:961   */\n      dup3\n        /* \"#utility.yul\":944:953   */\n      dup8\n        /* \"#utility.yul\":940:962   */\n      add\n        /* \"#utility.yul\":919:972   */\n      tag_34\n      jump\t// in\n    tag_45:\n        /* \"#utility.yul\":909:972   */\n      swap3\n      pop\n        /* \"#utility.yul\":864:982   */\n      pop\n        /* \"#utility.yul\":1021:1023   */\n      0x40\n        /* \"#utility.yul\":1047:1100   */\n      tag_46\n        /* \"#utility.yul\":1092:1099   */\n      dup7\n        /* \"#utility.yul\":1083:1089   */\n      dup3\n        /* \"#utility.yul\":1072:1081   */\n      dup8\n        /* \"#utility.yul\":1068:1090   */\n      add\n        /* \"#utility.yul\":1047:1100   */\n      tag_34\n      jump\t// in\n    tag_46:\n        /* \"#utility.yul\":1037:1100   */\n      swap2\n      pop\n        /* \"#utility.yul\":992:1110   */\n      pop\n        /* \"#utility.yul\":665:1117   */\n      swap3\n      pop\n      swap3\n      pop\n      swap3\n      jump\t// out\n        /* \"#utility.yul\":1123:1241   */\n    tag_47:\n        /* \"#utility.yul\":1210:1234   */\n      tag_49\n        /* \"#utility.yul\":1228:1233   */\n      dup2\n        /* \"#utility.yul\":1210:1234   */\n      tag_50\n      jump\t// in\n    tag_49:\n        /* \"#utility.yul\":1205:1208   */\n      dup3\n        /* \"#utility.yul\":1198:1235   */\n      mstore\n        /* \"#utility.yul\":1188:1241   */\n      pop\n      pop\n      jump\t// out\n        /* \"#utility.yul\":1247:1469   */\n    tag_10:\n      0x00\n        /* \"#utility.yul\":1378:1380   */\n      0x20\n        /* \"#utility.yul\":1367:1376   */\n      dup3\n        /* \"#utility.yul\":1363:1381   */\n      add\n        /* \"#utility.yul\":1355:1381   */\n      swap1\n      pop\n        /* \"#utility.yul\":1391:1462   */\n      tag_52\n        /* \"#utility.yul\":1459:1460   */\n      0x00\n        /* \"#utility.yul\":1448:1457   */\n      dup4\n        /* \"#utility.yul\":1444:1461   */\n      add\n        /* \"#utility.yul\":1435:1441   */\n      dup5\n        /* \"#utility.yul\":1391:1462   */\n      tag_47\n      jump\t// in\n    tag_52:\n        /* \"#utility.yul\":1345:1469   */\n      swap3\n      swap2\n      pop\n      pop\n      jump\t// out\n        /* \"#utility.yul\":1475:1780   */\n    tag_28:\n      0x00\n        /* \"#utility.yul\":1534:1554   */\n      tag_54\n        /* \"#utility.yul\":1552:1553   */\n      dup3\n        /* \"#utility.yul\":1534:1554   */\n      tag_50\n      jump\t// in\n    tag_54:\n        /* \"#utility.yul\":1529:1554   */\n      swap2\n      pop\n        /* \"#utility.yul\":1568:1588   */\n      tag_55\n        /* \"#utility.yul\":1586:1587   */\n      dup4\n        /* \"#utility.yul\":1568:1588   */\n      tag_50\n      jump\t// in\n    tag_55:\n        /* \"#utility.yul\":1563:1588   */\n      swap3\n      pop\n        /* \"#utility.yul\":1722:1723   */\n      dup3\n        /* \"#utility.yul\":1654:1720   */\n      0xffffffffffffffffffffffffffffffffffffffffffffffffffffffffffffffff\n        /* \"#utility.yul\":1650:1724   */\n      sub\n        /* \"#utility.yul\":1647:1648   */\n      dup3\n        /* \"#utility.yul\":1644:1725   */\n      gt\n        /* \"#utility.yul\":1641:1643   */\n      iszero\n      tag_56\n      jumpi\n        /* \"#utility.yul\":1728:1746   */\n      tag_57\n      tag_58\n      jump\t// in\n    tag_57:\n        /* \"#utility.yul\":1641:1643   */\n    tag_56:\n        /* \"#utility.yul\":1772:1773   */\n      dup3\n        /* \"#utility.yul\":1769:1770   */\n      dup3\n        /* \"#utility.yul\":1765:1774   */\n      add\n        /* \"#utility.yul\":1758:1774   */\n      swap1\n      pop\n        /* \"#utility.yul\":1519:1780   */\n      swap3\n      swap2\n      pop\n      pop\n      jump\t// out\n        /* \"#utility.yul\":1786:1863   */\n    tag_50:\n      0x00\n        /* \"#utility.yul\":1852:1857   */\n      dup2\n        /* \"#utility.yul\":1841:1857   */\n      swap1\n      pop\n        /* \"#utility.yul\":1831:1863   */\n      swap2\n      swap1\n      pop\n      jump\t// out\n        /* \"#utility.yul\":1869:2049   */\n    tag_58:\n        /* \"#utility.yul\":1917:1994   */\n      0x4e487b7100000000000000000000000000000000000000000000000000000000\n        /* \"#utility.yul\":1914:1915   */\n      0x00\n        /* \"#utility.yul\":1907:1995   */\n      mstore\n        /* \"#utility.yul\":2014:2018   */\n      0x11\n        /* \"#utility.yul\":2011:2012   */\n      0x04\n        /* \"#utility.yul\":2004:2019   */\n      mstore\n        /* \"#utility.yul\":2038:2042   */\n      0x24\n        /* \"#utility.yul\":2035:2036   */\n      0x00\n        /* \"#utility.yul\":2028:2043   */\n      revert\n        /* \"#utility.yul\":2055:2177   */\n    tag_37:\n        /* \"#utility.yul\":2128:2152   */\n      tag_62\n        /* \"#utility.yul\":2146:2151   */\n      dup2\n        /* \"#utility.yul\":2128:2152   */\n      tag_50\n      jump\t// in\n    tag_62:\n        /* \"#utility.yul\":2121:2126   */\n      dup2\n        /* \"#utility.yul\":2118:2153   */\n      eq\n        /* \"#utility.yul\":2108:2110   */\n      tag_63\n      jumpi\n        /* \"#utility.yul\":2167:2168   */\n      0x00\n        /* \"#utility.yul\":2164:2165   */\n      dup1\n        /* \"#utility.yul\":2157:2169   */\n      revert\n        /* \"#utility.yul\":2108:2110   */\n    tag_63:\n        /* \"#utility.yul\":2098:2177   */\n      pop\n      jump\t// out\n\n    auxdata: 0xa26469706673582212206933ff0e108bab7b7c7059729a9986a58f49b858860d26fadeff6a0d2fce8da064736f6c63430008030033\n}\n",
				"bytecode": {
					"linkReferences": {},
					"object": "608060405234801561001057600080fd5b506102e3806100206000396000f3fe60806040526004361061003f5760003560e01c806365ac4341146100445780636a3e66b91461006f578063cd53e455146100ac578063f604bf57146100b6575b600080fd5b34801561005057600080fd5b506100596100f3565b60405161006691906101ec565b60405180910390f35b34801561007b57600080fd5b506100966004803603810190610091919061018e565b6100fc565b6040516100a391906101ec565b60405180910390f35b6100b461011e565b005b3480156100c257600080fd5b506100dd60048036038101906100d89190610152565b610127565b6040516100ea91906101ec565b60405180910390f35b60008054905090565b600081838561010b9190610207565b6101159190610207565b90509392505050565b34600081905550565b600081836101359190610207565b905092915050565b60008135905061014c81610296565b92915050565b6000806040838503121561016557600080fd5b60006101738582860161013d565b92505060206101848582860161013d565b9150509250929050565b6000806000606084860312156101a357600080fd5b60006101b18682870161013d565b93505060206101c28682870161013d565b92505060406101d38682870161013d565b9150509250925092565b6101e68161025d565b82525050565b600060208201905061020160008301846101dd565b92915050565b60006102128261025d565b915061021d8361025d565b9250827fffffffffffffffffffffffffffffffffffffffffffffffffffffffffffffffff0382111561025257610251610267565b5b828201905092915050565b6000819050919050565b7f4e487b7100000000000000000000000000000000000000000000000000000000600052601160045260246000fd5b61029f8161025d565b81146102aa57600080fd5b5056fea26469706673582212206933ff0e108bab7b7c7059729a9986a58f49b858860d26fadeff6a0d2fce8da064736f6c63430008030033",
					"opcodes": "PUSH1 0x80 PUSH1 0x40 MSTORE CALLVALUE DUP1 ISZERO PUSH2 0x10 JUMPI PUSH1 0x0 DUP1 REVERT JUMPDEST POP PUSH2 0x2E3 DUP1 PUSH2 0x20 PUSH1 0x0 CODECOPY PUSH1 0x0 RETURN INVALID PUSH1 0x80 PUSH1 0x40 MSTORE PUSH1 0x4 CALLDATASIZE LT PUSH2 0x3F JUMPI PUSH1 0x0 CALLDATALOAD PUSH1 0xE0 SHR DUP1 PUSH4 0x65AC4341 EQ PUSH2 0x44 JUMPI DUP1 PUSH4 0x6A3E66B9 EQ PUSH2 0x6F JUMPI DUP1 PUSH4 0xCD53E455 EQ PUSH2 0xAC JUMPI DUP1 PUSH4 0xF604BF57 EQ PUSH2 0xB6 JUMPI JUMPDEST PUSH1 0x0 DUP1 REVERT JUMPDEST CALLVALUE DUP1 ISZERO PUSH2 0x50 JUMPI PUSH1 0x0 DUP1 REVERT JUMPDEST POP PUSH2 0x59 PUSH2 0xF3 JUMP JUMPDEST PUSH1 0x40 MLOAD PUSH2 0x66 SWAP2 SWAP1 PUSH2 0x1EC JUMP JUMPDEST PUSH1 0x40 MLOAD DUP1 SWAP2 SUB SWAP1 RETURN JUMPDEST CALLVALUE DUP1 ISZERO PUSH2 0x7B JUMPI PUSH1 0x0 DUP1 REVERT JUMPDEST POP PUSH2 0x96 PUSH1 0x4 DUP1 CALLDATASIZE SUB DUP2 ADD SWAP1 PUSH2 0x91 SWAP2 SWAP1 PUSH2 0x18E JUMP JUMPDEST PUSH2 0xFC JUMP JUMPDEST PUSH1 0x40 MLOAD PUSH2 0xA3 SWAP2 SWAP1 PUSH2 0x1EC JUMP JUMPDEST PUSH1 0x40 MLOAD DUP1 SWAP2 SUB SWAP1 RETURN JUMPDEST PUSH2 0xB4 PUSH2 0x11E JUMP JUMPDEST STOP JUMPDEST CALLVALUE DUP1 ISZERO PUSH2 0xC2 JUMPI PUSH1 0x0 DUP1 REVERT JUMPDEST POP PUSH2 0xDD PUSH1 0x4 DUP1 CALLDATASIZE SUB DUP2 ADD SWAP1 PUSH2 0xD8 SWAP2 SWAP1 PUSH2 0x152 JUMP JUMPDEST PUSH2 0x127 JUMP JUMPDEST PUSH1 0x40 MLOAD PUSH2 0xEA SWAP2 SWAP1 PUSH2 0x1EC JUMP JUMPDEST PUSH1 0x40 MLOAD DUP1 SWAP2 SUB SWAP1 RETURN JUMPDEST PUSH1 0x0 DUP1 SLOAD SWAP1 POP SWAP1 JUMP JUMPDEST PUSH1 0x0 DUP2 DUP4 DUP6 PUSH2 0x10B SWAP2 SWAP1 PUSH2 0x207 JUMP JUMPDEST PUSH2 0x115 SWAP2 SWAP1 PUSH2 0x207 JUMP JUMPDEST SWAP1 POP SWAP4 SWAP3 POP POP POP JUMP JUMPDEST CALLVALUE PUSH1 0x0 DUP2 SWAP1 SSTORE POP JUMP JUMPDEST PUSH1 0x0 DUP2 DUP4 PUSH2 0x135 SWAP2 SWAP1 PUSH2 0x207 JUMP JUMPDEST SWAP1 POP SWAP3 SWAP2 POP POP JUMP JUMPDEST PUSH1 0x0 DUP2 CALLDATALOAD SWAP1 POP PUSH2 0x14C DUP2 PUSH2 0x296 JUMP JUMPDEST SWAP3 SWAP2 POP POP JUMP JUMPDEST PUSH1 0x0 DUP1 PUSH1 0x40 DUP4 DUP6 SUB SLT ISZERO PUSH2 0x165 JUMPI PUSH1 0x0 DUP1 REVERT JUMPDEST PUSH1 0x0 PUSH2 0x173 DUP6 DUP3 DUP7 ADD PUSH2 0x13D JUMP JUMPDEST SWAP3 POP POP PUSH1 0x20 PUSH2 0x184 DUP6 DUP3 DUP7 ADD PUSH2 0x13D JUMP JUMPDEST SWAP2 POP POP SWAP3 POP SWAP3 SWAP1 POP JUMP JUMPDEST PUSH1 0x0 DUP1 PUSH1 0x0 PUSH1 0x60 DUP5 DUP7 SUB SLT ISZERO PUSH2 0x1A3 JUMPI PUSH1 0x0 DUP1 REVERT JUMPDEST PUSH1 0x0 PUSH2 0x1B1 DUP7 DUP3 DUP8 ADD PUSH2 0x13D JUMP JUMPDEST SWAP4 POP POP PUSH1 0x20 PUSH2 0x1C2 DUP7 DUP3 DUP8 ADD PUSH2 0x13D JUMP JUMPDEST SWAP3 POP POP PUSH1 0x40 PUSH2 0x1D3 DUP7 DUP3 DUP8 ADD PUSH2 0x13D JUMP JUMPDEST SWAP2 POP POP SWAP3 POP SWAP3 POP SWAP3 JUMP JUMPDEST PUSH2 0x1E6 DUP2 PUSH2 0x25D JUMP JUMPDEST DUP3 MSTORE POP POP JUMP JUMPDEST PUSH1 0x0 PUSH1 0x20 DUP3 ADD SWAP1 POP PUSH2 0x201 PUSH1 0x0 DUP4 ADD DUP5 PUSH2 0x1DD JUMP JUMPDEST SWAP3 SWAP2 POP POP JUMP JUMPDEST PUSH1 0x0 PUSH2 0x212 DUP3 PUSH2 0x25D JUMP JUMPDEST SWAP2 POP PUSH2 0x21D DUP4 PUSH2 0x25D JUMP JUMPDEST SWAP3 POP DUP3 PUSH32 0xFFFFFFFFFFFFFFFFFFFFFFFFFFFFFFFFFFFFFFFFFFFFFFFFFFFFFFFFFFFFFFFF SUB DUP3 GT ISZERO PUSH2 0x252 JUMPI PUSH2 0x251 PUSH2 0x267 JUMP JUMPDEST JUMPDEST DUP3 DUP3 ADD SWAP1 POP SWAP3 SWAP2 POP POP JUMP JUMPDEST PUSH1 0x0 DUP2 SWAP1 POP SWAP2 SWAP1 POP JUMP JUMPDEST PUSH32 0x4E487B7100000000000000000000000000000000000000000000000000000000 PUSH1 0x0 MSTORE PUSH1 0x11 PUSH1 0x4 MSTORE PUSH1 0x24 PUSH1 0x0 REVERT JUMPDEST PUSH2 0x29F DUP2 PUSH2 0x25D JUMP JUMPDEST DUP2 EQ PUSH2 0x2AA JUMPI PUSH1 0x0 DUP1 REVERT JUMPDEST POP JUMP INVALID LOG2 PUSH5 0x6970667358 0x22 SLT KECCAK256 PUSH10 0x33FF0E108BAB7B7C7059 PUSH19 0x9A9986A58F49B858860D26FADEFF6A0D2FCE8D LOG0 PUSH5 0x736F6C6343 STOP ADDMOD SUB STOP CALLER "
				},
				"gasEstimates": {
					"creation": {
						"codeDepositCost": "147800",
						"executionCost": "196",
						"totalCost": "147996"
					},
					"external": {
						"getTotalAmount()": "1115",
						"receivedEther()": "20155",
						"tambah(uint256,uint256)": "infinite",
						"tambah(uint256,uint256,uint256)": "infinite"
					}
				},
				"methodIdentifiers": {
					"getTotalAmount()": "65ac4341",
					"receivedEther()": "cd53e455",
					"tambah(uint256,uint256)": "f604bf57",
					"tambah(uint256,uint256,uint256)": "6a3e66b9"
				}
			},
			"storageLayout": {
				"storage": [
					{
						"astId": 40,
						"contract": "contracts/FunctionContract.sol:PayableContract",
						"label": "receiveAmount",
						"offset": 0,
						"slot": "0",
						"type": "t_uint256"
					}
				],
				"types": {
					"t_uint256": {
						"encoding": "inplace",
						"label": "uint256",
						"numberOfBytes": "32"
					}
				}
			},
			"userdoc": {
				"kind": "user",
				"methods": {},
				"version": 1
			}
		}
	}
}