{
	"contracts/MultiLevelInheritance.sol": {
		"caller": {
			"abi": [
				{
					"inputs": [],
					"name": "getSum",
					"outputs": [
						{
							"internalType": "uint256",
							"name": "",
							"type": "uint256"
						}
					],
					"stateMutability": "nonpayable",
					"type": "function"
				}
			],
			"devdoc": {
				"kind": "dev",
				"methods": {},
				"version": 1
			},
			"evm": {
				"assembly": "    /* \"contracts/MultiLevelInheritance.sol\":574:768  contract caller{... */\n  mstore(0x40, 0x80)\n    /* \"contracts/MultiLevelInheritance.sol\":608:621  new ParentC() */\n  mload(0x40)\n  tag_1\n  swap1\n  tag_2\n  jump\t// in\ntag_1:\n  mload(0x40)\n  dup1\n  swap2\n  sub\n  swap1\n  0x00\n  create\n  dup1\n  iszero\n  dup1\n  iszero\n  tag_3\n  jumpi\n  returndatacopy(0x00, 0x00, returndatasize)\n  revert(0x00, returndatasize)\ntag_3:\n  pop\n    /* \"contracts/MultiLevelInheritance.sol\":596:621  ParentC C = new ParentC() */\n  0x00\n  exp(0x0100, 0x00)\n  dup2\n  sload\n  dup2\n  0xffffffffffffffffffffffffffffffffffffffff\n  mul\n  not\n  and\n  swap1\n  dup4\n  0xffffffffffffffffffffffffffffffffffffffff\n  and\n  mul\n  or\n  swap1\n  sstore\n  pop\n    /* \"contracts/MultiLevelInheritance.sol\":574:768  contract caller{... */\n  callvalue\n  dup1\n  iszero\n  tag_4\n  jumpi\n  revert(0x00, 0x00)\ntag_4:\n  pop\n  jump(tag_5)\ntag_2:\n  dataSize(sub_1)\n  dup1\n  dataOffset(sub_1)\n  dup4\n  codecopy\n  add\n  swap1\n  jump\t// out\ntag_5:\n  dataSize(sub_0)\n  dup1\n  dataOffset(sub_0)\n  0x00\n  codecopy\n  0x00\n  return\nstop\n\nsub_0: assembly {\n        /* \"contracts/MultiLevelInheritance.sol\":574:768  contract caller{... */\n      mstore(0x40, 0x80)\n      callvalue\n      dup1\n      iszero\n      tag_1\n      jumpi\n      revert(0x00, 0x00)\n    tag_1:\n      pop\n      jumpi(tag_2, lt(calldatasize, 0x04))\n      shr(0xe0, calldataload(0x00))\n      dup1\n      0x569c5f6d\n      eq\n      tag_3\n      jumpi\n    tag_2:\n      revert(0x00, 0x00)\n        /* \"contracts/MultiLevelInheritance.sol\":630:765  function getSum()public returns(uint){... */\n    tag_3:\n      tag_4\n      tag_5\n      jump\t// in\n    tag_4:\n      mload(0x40)\n      tag_6\n      swap2\n      swap1\n      tag_7\n      jump\t// in\n    tag_6:\n      mload(0x40)\n      dup1\n      swap2\n      sub\n      swap1\n      return\n    tag_5:\n        /* \"contracts/MultiLevelInheritance.sol\":662:666  uint */\n      0x00\n        /* \"contracts/MultiLevelInheritance.sol\":678:679  C */\n      0x00\n      0x00\n      swap1\n      sload\n      swap1\n      0x0100\n      exp\n      swap1\n      div\n      0xffffffffffffffffffffffffffffffffffffffff\n      and\n        /* \"contracts/MultiLevelInheritance.sol\":678:689  C.getAValue */\n      0xffffffffffffffffffffffffffffffffffffffff\n      and\n      0x9320eb85\n        /* \"contracts/MultiLevelInheritance.sol\":690:692  22 */\n      0x16\n        /* \"contracts/MultiLevelInheritance.sol\":678:693  C.getAValue(22) */\n      mload(0x40)\n      dup3\n      0xffffffff\n      and\n      0xe0\n      shl\n      dup2\n      mstore\n      0x04\n      add\n      tag_9\n      swap2\n      swap1\n      tag_10\n      jump\t// in\n    tag_9:\n      0x00\n      mload(0x40)\n      dup1\n      dup4\n      sub\n      dup2\n      0x00\n      dup8\n      dup1\n      extcodesize\n      iszero\n      dup1\n      iszero\n      tag_11\n      jumpi\n      revert(0x00, 0x00)\n    tag_11:\n      pop\n      gas\n      call\n      iszero\n      dup1\n      iszero\n      tag_13\n      jumpi\n      returndatacopy(0x00, 0x00, returndatasize)\n      revert(0x00, returndatasize)\n    tag_13:\n      pop\n      pop\n      pop\n      pop\n        /* \"contracts/MultiLevelInheritance.sol\":704:705  C */\n      0x00\n      0x00\n      swap1\n      sload\n      swap1\n      0x0100\n      exp\n      swap1\n      div\n      0xffffffffffffffffffffffffffffffffffffffff\n      and\n        /* \"contracts/MultiLevelInheritance.sol\":704:715  C.getBValue */\n      0xffffffffffffffffffffffffffffffffffffffff\n      and\n      0x79b77cd6\n        /* \"contracts/MultiLevelInheritance.sol\":716:718  22 */\n      0x16\n        /* \"contracts/MultiLevelInheritance.sol\":704:719  C.getBValue(22) */\n      mload(0x40)\n      dup3\n      0xffffffff\n      and\n      0xe0\n      shl\n      dup2\n      mstore\n      0x04\n      add\n      tag_14\n      swap2\n      swap1\n      tag_10\n      jump\t// in\n    tag_14:\n      0x00\n      mload(0x40)\n      dup1\n      dup4\n      sub\n      dup2\n      0x00\n      dup8\n      dup1\n      extcodesize\n      iszero\n      dup1\n      iszero\n      tag_15\n      jumpi\n      revert(0x00, 0x00)\n    tag_15:\n      pop\n      gas\n      call\n      iszero\n      dup1\n      iszero\n      tag_17\n      jumpi\n      returndatacopy(0x00, 0x00, returndatasize)\n      revert(0x00, returndatasize)\n    tag_17:\n      pop\n      pop\n      pop\n      pop\n        /* \"contracts/MultiLevelInheritance.sol\":737:738  C */\n      0x00\n      0x00\n      swap1\n      sload\n      swap1\n      0x0100\n      exp\n      swap1\n      div\n      0xffffffffffffffffffffffffffffffffffffffff\n      and\n        /* \"contracts/MultiLevelInheritance.sol\":737:754  C.getComputeValue */\n      0xffffffffffffffffffffffffffffffffffffffff\n      and\n      0x04dda1b5\n        /* \"contracts/MultiLevelInheritance.sol\":737:756  C.getComputeValue() */\n      mload(0x40)\n      dup2\n      0xffffffff\n      and\n      0xe0\n      shl\n      dup2\n      mstore\n      0x04\n      add\n      0x20\n      mload(0x40)\n      dup1\n      dup4\n      sub\n      dup2\n      dup7\n      gas\n      staticcall\n      iszero\n      dup1\n      iszero\n      tag_19\n      jumpi\n      returndatacopy(0x00, 0x00, returndatasize)\n      revert(0x00, returndatasize)\n    tag_19:\n      pop\n      pop\n      pop\n      pop\n      mload(0x40)\n      returndatasize\n      not(0x1f)\n      0x1f\n      dup3\n      add\n      and\n      dup3\n      add\n      dup1\n      0x40\n      mstore\n      pop\n      dup2\n      add\n      swap1\n      tag_20\n      swap2\n      swap1\n      tag_21\n      jump\t// in\n    tag_20:\n        /* \"contracts/MultiLevelInheritance.sol\":730:757  return(C.getComputeValue()) */\n      swap1\n      pop\n        /* \"contracts/MultiLevelInheritance.sol\":630:765  function getSum()public returns(uint){... */\n      swap1\n      jump\t// out\n        /* \"#utility.yul\":7:84   */\n    tag_22:\n        /* \"#utility.yul\":44:51   */\n      0x00\n        /* \"#utility.yul\":73:78   */\n      dup2\n        /* \"#utility.yul\":62:78   */\n      swap1\n      pop\n        /* \"#utility.yul\":7:84   */\n      swap2\n      swap1\n      pop\n      jump\t// out\n        /* \"#utility.yul\":90:208   */\n    tag_23:\n        /* \"#utility.yul\":177:201   */\n      tag_36\n        /* \"#utility.yul\":195:200   */\n      dup2\n        /* \"#utility.yul\":177:201   */\n      tag_22\n      jump\t// in\n    tag_36:\n        /* \"#utility.yul\":172:175   */\n      dup3\n        /* \"#utility.yul\":165:202   */\n      mstore\n        /* \"#utility.yul\":90:208   */\n      pop\n      pop\n      jump\t// out\n        /* \"#utility.yul\":214:436   */\n    tag_7:\n        /* \"#utility.yul\":307:311   */\n      0x00\n        /* \"#utility.yul\":345:347   */\n      0x20\n        /* \"#utility.yul\":334:343   */\n      dup3\n        /* \"#utility.yul\":330:348   */\n      add\n        /* \"#utility.yul\":322:348   */\n      swap1\n      pop\n        /* \"#utility.yul\":358:429   */\n      tag_38\n        /* \"#utility.yul\":426:427   */\n      0x00\n        /* \"#utility.yul\":415:424   */\n      dup4\n        /* \"#utility.yul\":411:428   */\n      add\n        /* \"#utility.yul\":402:408   */\n      dup5\n        /* \"#utility.yul\":358:429   */\n      tag_23\n      jump\t// in\n    tag_38:\n        /* \"#utility.yul\":214:436   */\n      swap3\n      swap2\n      pop\n      pop\n      jump\t// out\n        /* \"#utility.yul\":442:528   */\n    tag_24:\n        /* \"#utility.yul\":488:495   */\n      0x00\n        /* \"#utility.yul\":517:522   */\n      dup2\n        /* \"#utility.yul\":506:522   */\n      swap1\n      pop\n        /* \"#utility.yul\":442:528   */\n      swap2\n      swap1\n      pop\n      jump\t// out\n        /* \"#utility.yul\":534:594   */\n    tag_25:\n        /* \"#utility.yul\":562:565   */\n      0x00\n        /* \"#utility.yul\":583:588   */\n      dup2\n        /* \"#utility.yul\":576:588   */\n      swap1\n      pop\n        /* \"#utility.yul\":534:594   */\n      swap2\n      swap1\n      pop\n      jump\t// out\n        /* \"#utility.yul\":600:760   */\n    tag_26:\n        /* \"#utility.yul\":659:668   */\n      0x00\n        /* \"#utility.yul\":692:754   */\n      tag_42\n        /* \"#utility.yul\":710:753   */\n      tag_43\n        /* \"#utility.yul\":719:752   */\n      tag_44\n        /* \"#utility.yul\":746:751   */\n      dup5\n        /* \"#utility.yul\":719:752   */\n      tag_24\n      jump\t// in\n    tag_44:\n        /* \"#utility.yul\":710:753   */\n      tag_25\n      jump\t// in\n    tag_43:\n        /* \"#utility.yul\":692:754   */\n      tag_22\n      jump\t// in\n    tag_42:\n        /* \"#utility.yul\":679:754   */\n      swap1\n      pop\n        /* \"#utility.yul\":600:760   */\n      swap2\n      swap1\n      pop\n      jump\t// out\n        /* \"#utility.yul\":766:915   */\n    tag_27:\n        /* \"#utility.yul\":862:908   */\n      tag_46\n        /* \"#utility.yul\":902:907   */\n      dup2\n        /* \"#utility.yul\":862:908   */\n      tag_26\n      jump\t// in\n    tag_46:\n        /* \"#utility.yul\":857:860   */\n      dup3\n        /* \"#utility.yul\":850:909   */\n      mstore\n        /* \"#utility.yul\":766:915   */\n      pop\n      pop\n      jump\t// out\n        /* \"#utility.yul\":921:1161   */\n    tag_10:\n        /* \"#utility.yul\":1023:1027   */\n      0x00\n        /* \"#utility.yul\":1061:1063   */\n      0x20\n        /* \"#utility.yul\":1050:1059   */\n      dup3\n        /* \"#utility.yul\":1046:1064   */\n      add\n        /* \"#utility.yul\":1038:1064   */\n      swap1\n      pop\n        /* \"#utility.yul\":1074:1154   */\n      tag_48\n        /* \"#utility.yul\":1151:1152   */\n      0x00\n        /* \"#utility.yul\":1140:1149   */\n      dup4\n        /* \"#utility.yul\":1136:1153   */\n      add\n        /* \"#utility.yul\":1127:1133   */\n      dup5\n        /* \"#utility.yul\":1074:1154   */\n      tag_27\n      jump\t// in\n    tag_48:\n        /* \"#utility.yul\":921:1161   */\n      swap3\n      swap2\n      pop\n      pop\n      jump\t// out\n        /* \"#utility.yul\":1248:1365   */\n    tag_29:\n        /* \"#utility.yul\":1357:1358   */\n      0x00\n        /* \"#utility.yul\":1354:1355   */\n      0x00\n        /* \"#utility.yul\":1347:1359   */\n      revert\n        /* \"#utility.yul\":1494:1616   */\n    tag_31:\n        /* \"#utility.yul\":1567:1591   */\n      tag_53\n        /* \"#utility.yul\":1585:1590   */\n      dup2\n        /* \"#utility.yul\":1567:1591   */\n      tag_22\n      jump\t// in\n    tag_53:\n        /* \"#utility.yul\":1560:1565   */\n      dup2\n        /* \"#utility.yul\":1557:1592   */\n      eq\n        /* \"#utility.yul\":1547:1610   */\n      tag_54\n      jumpi\n        /* \"#utility.yul\":1606:1607   */\n      0x00\n        /* \"#utility.yul\":1603:1604   */\n      0x00\n        /* \"#utility.yul\":1596:1608   */\n      revert\n        /* \"#utility.yul\":1547:1610   */\n    tag_54:\n        /* \"#utility.yul\":1494:1616   */\n      pop\n      jump\t// out\n        /* \"#utility.yul\":1622:1765   */\n    tag_32:\n        /* \"#utility.yul\":1679:1684   */\n      0x00\n        /* \"#utility.yul\":1710:1716   */\n      dup2\n        /* \"#utility.yul\":1704:1717   */\n      mload\n        /* \"#utility.yul\":1695:1717   */\n      swap1\n      pop\n        /* \"#utility.yul\":1726:1759   */\n      tag_56\n        /* \"#utility.yul\":1753:1758   */\n      dup2\n        /* \"#utility.yul\":1726:1759   */\n      tag_31\n      jump\t// in\n    tag_56:\n        /* \"#utility.yul\":1622:1765   */\n      swap3\n      swap2\n      pop\n      pop\n      jump\t// out\n        /* \"#utility.yul\":1771:2122   */\n    tag_21:\n        /* \"#utility.yul\":1841:1847   */\n      0x00\n        /* \"#utility.yul\":1890:1892   */\n      0x20\n        /* \"#utility.yul\":1878:1887   */\n      dup3\n        /* \"#utility.yul\":1869:1876   */\n      dup5\n        /* \"#utility.yul\":1865:1888   */\n      sub\n        /* \"#utility.yul\":1861:1893   */\n      slt\n        /* \"#utility.yul\":1858:1977   */\n      iszero\n      tag_58\n      jumpi\n        /* \"#utility.yul\":1896:1975   */\n      tag_59\n      tag_29\n      jump\t// in\n    tag_59:\n        /* \"#utility.yul\":1858:1977   */\n    tag_58:\n        /* \"#utility.yul\":2016:2017   */\n      0x00\n        /* \"#utility.yul\":2041:2105   */\n      tag_60\n        /* \"#utility.yul\":2097:2104   */\n      dup5\n        /* \"#utility.yul\":2088:2094   */\n      dup3\n        /* \"#utility.yul\":2077:2086   */\n      dup6\n        /* \"#utility.yul\":2073:2095   */\n      add\n        /* \"#utility.yul\":2041:2105   */\n      tag_32\n      jump\t// in\n    tag_60:\n        /* \"#utility.yul\":2031:2105   */\n      swap2\n      pop\n        /* \"#utility.yul\":1987:2115   */\n      pop\n        /* \"#utility.yul\":1771:2122   */\n      swap3\n      swap2\n      pop\n      pop\n      jump\t// out\n\n    auxdata: 0xa2646970667358221220eae61ddb9cf9a4538ac5c61ea68ccc3cf894f694abe960ad522326b326a598ef64736f6c634300081e0033\n}\n\nsub_1: assembly {\n        /* \"contracts/MultiLevelInheritance.sol\":373:570  contract ParentC is ParentB, ParentA{... */\n      mstore(0x40, 0x80)\n        /* \"contracts/MultiLevelInheritance.sol\":428:441  new ParentA() */\n      mload(0x40)\n      tag_1\n      swap1\n      tag_2\n      jump\t// in\n    tag_1:\n      mload(0x40)\n      dup1\n      swap2\n      sub\n      swap1\n      0x00\n      create\n      dup1\n      iszero\n      dup1\n      iszero\n      tag_3\n      jumpi\n      returndatacopy(0x00, 0x00, returndatasize)\n      revert(0x00, returndatasize)\n    tag_3:\n      pop\n        /* \"contracts/MultiLevelInheritance.sol\":416:441  ParentA A = new ParentA() */\n      0x02\n      exp(0x0100, 0x00)\n      dup2\n      sload\n      dup2\n      0xffffffffffffffffffffffffffffffffffffffff\n      mul\n      not\n      and\n      swap1\n      dup4\n      0xffffffffffffffffffffffffffffffffffffffff\n      and\n      mul\n      or\n      swap1\n      sstore\n      pop\n        /* \"contracts/MultiLevelInheritance.sol\":460:473  new ParentB() */\n      mload(0x40)\n      tag_4\n      swap1\n      tag_5\n      jump\t// in\n    tag_4:\n      mload(0x40)\n      dup1\n      swap2\n      sub\n      swap1\n      0x00\n      create\n      dup1\n      iszero\n      dup1\n      iszero\n      tag_6\n      jumpi\n      returndatacopy(0x00, 0x00, returndatasize)\n      revert(0x00, returndatasize)\n    tag_6:\n      pop\n        /* \"contracts/MultiLevelInheritance.sol\":448:473  ParentB B = new ParentB() */\n      0x03\n      exp(0x0100, 0x00)\n      dup2\n      sload\n      dup2\n      0xffffffffffffffffffffffffffffffffffffffff\n      mul\n      not\n      and\n      swap1\n      dup4\n      0xffffffffffffffffffffffffffffffffffffffff\n      and\n      mul\n      or\n      swap1\n      sstore\n      pop\n        /* \"contracts/MultiLevelInheritance.sol\":373:570  contract ParentC is ParentB, ParentA{... */\n      callvalue\n      dup1\n      iszero\n      tag_7\n      jumpi\n      revert(0x00, 0x00)\n    tag_7:\n      pop\n      jump(tag_8)\n    tag_2:\n      dataSize(sub_1)\n      dup1\n      dataOffset(sub_1)\n      dup4\n      codecopy\n      add\n      swap1\n      jump\t// out\n    tag_5:\n      dataSize(sub_2)\n      dup1\n      dataOffset(sub_2)\n      dup4\n      codecopy\n      add\n      swap1\n      jump\t// out\n    tag_8:\n      dataSize(sub_0)\n      dup1\n      dataOffset(sub_0)\n      0x00\n      codecopy\n      0x00\n      return\n    stop\n\n    sub_0: assembly {\n            /* \"contracts/MultiLevelInheritance.sol\":373:570  contract ParentC is ParentB, ParentA{... */\n          mstore(0x40, 0x80)\n          callvalue\n          dup1\n          iszero\n          tag_1\n          jumpi\n          revert(0x00, 0x00)\n        tag_1:\n          pop\n          jumpi(tag_2, lt(calldatasize, 0x04))\n          shr(0xe0, calldataload(0x00))\n          dup1\n          0x04dda1b5\n          eq\n          tag_3\n          jumpi\n          dup1\n          0x79b77cd6\n          eq\n          tag_4\n          jumpi\n          dup1\n          0x9320eb85\n          eq\n          tag_5\n          jumpi\n        tag_2:\n          revert(0x00, 0x00)\n            /* \"contracts/MultiLevelInheritance.sol\":480:567  function getComputeValue() external view returns(uint){... */\n        tag_3:\n          tag_6\n          tag_7\n          jump\t// in\n        tag_6:\n          mload(0x40)\n          tag_8\n          swap2\n          swap1\n          tag_9\n          jump\t// in\n        tag_8:\n          mload(0x40)\n          dup1\n          swap2\n          sub\n          swap1\n          return\n            /* \"contracts/MultiLevelInheritance.sol\":298:366  function getBValue(uint _value)external{... */\n        tag_4:\n          tag_10\n          0x04\n          dup1\n          calldatasize\n          sub\n          dup2\n          add\n          swap1\n          tag_11\n          swap2\n          swap1\n          tag_12\n          jump\t// in\n        tag_11:\n          tag_13\n          jump\t// in\n        tag_10:\n          stop\n            /* \"contracts/MultiLevelInheritance.sol\":176:244  function getAValue(uint _value)external{... */\n        tag_5:\n          tag_14\n          0x04\n          dup1\n          calldatasize\n          sub\n          dup2\n          add\n          swap1\n          tag_15\n          swap2\n          swap1\n          tag_12\n          jump\t// in\n        tag_15:\n          tag_16\n          jump\t// in\n        tag_14:\n          stop\n            /* \"contracts/MultiLevelInheritance.sol\":480:567  function getComputeValue() external view returns(uint){... */\n        tag_7:\n            /* \"contracts/MultiLevelInheritance.sol\":529:533  uint */\n          0x00\n            /* \"contracts/MultiLevelInheritance.sol\":557:558  b */\n          sload(0x00)\n            /* \"contracts/MultiLevelInheritance.sol\":553:554  a */\n          sload(0x01)\n            /* \"contracts/MultiLevelInheritance.sol\":553:558  a + b */\n          tag_18\n          swap2\n          swap1\n          tag_19\n          jump\t// in\n        tag_18:\n            /* \"contracts/MultiLevelInheritance.sol\":545:559  return (a + b) */\n          swap1\n          pop\n            /* \"contracts/MultiLevelInheritance.sol\":480:567  function getComputeValue() external view returns(uint){... */\n          swap1\n          jump\t// out\n            /* \"contracts/MultiLevelInheritance.sol\":298:366  function getBValue(uint _value)external{... */\n        tag_13:\n            /* \"contracts/MultiLevelInheritance.sol\":352:358  _value */\n          dup1\n            /* \"contracts/MultiLevelInheritance.sol\":348:349  b */\n          0x00\n            /* \"contracts/MultiLevelInheritance.sol\":348:358  b = _value */\n          dup2\n          swap1\n          sstore\n          pop\n            /* \"contracts/MultiLevelInheritance.sol\":298:366  function getBValue(uint _value)external{... */\n          pop\n          jump\t// out\n            /* \"contracts/MultiLevelInheritance.sol\":176:244  function getAValue(uint _value)external{... */\n        tag_16:\n            /* \"contracts/MultiLevelInheritance.sol\":230:236  _value */\n          dup1\n            /* \"contracts/MultiLevelInheritance.sol\":226:227  a */\n          0x01\n            /* \"contracts/MultiLevelInheritance.sol\":226:236  a = _value */\n          dup2\n          swap1\n          sstore\n          pop\n            /* \"contracts/MultiLevelInheritance.sol\":176:244  function getAValue(uint _value)external{... */\n          pop\n          jump\t// out\n            /* \"#utility.yul\":7:84   */\n        tag_22:\n            /* \"#utility.yul\":44:51   */\n          0x00\n            /* \"#utility.yul\":73:78   */\n          dup2\n            /* \"#utility.yul\":62:78   */\n          swap1\n          pop\n            /* \"#utility.yul\":7:84   */\n          swap2\n          swap1\n          pop\n          jump\t// out\n            /* \"#utility.yul\":90:208   */\n        tag_23:\n            /* \"#utility.yul\":177:201   */\n          tag_33\n            /* \"#utility.yul\":195:200   */\n          dup2\n            /* \"#utility.yul\":177:201   */\n          tag_22\n          jump\t// in\n        tag_33:\n            /* \"#utility.yul\":172:175   */\n          dup3\n            /* \"#utility.yul\":165:202   */\n          mstore\n            /* \"#utility.yul\":90:208   */\n          pop\n          pop\n          jump\t// out\n            /* \"#utility.yul\":214:436   */\n        tag_9:\n            /* \"#utility.yul\":307:311   */\n          0x00\n            /* \"#utility.yul\":345:347   */\n          0x20\n            /* \"#utility.yul\":334:343   */\n          dup3\n            /* \"#utility.yul\":330:348   */\n          add\n            /* \"#utility.yul\":322:348   */\n          swap1\n          pop\n            /* \"#utility.yul\":358:429   */\n          tag_35\n            /* \"#utility.yul\":426:427   */\n          0x00\n            /* \"#utility.yul\":415:424   */\n          dup4\n            /* \"#utility.yul\":411:428   */\n          add\n            /* \"#utility.yul\":402:408   */\n          dup5\n            /* \"#utility.yul\":358:429   */\n          tag_23\n          jump\t// in\n        tag_35:\n            /* \"#utility.yul\":214:436   */\n          swap3\n          swap2\n          pop\n          pop\n          jump\t// out\n            /* \"#utility.yul\":523:640   */\n        tag_25:\n            /* \"#utility.yul\":632:633   */\n          0x00\n            /* \"#utility.yul\":629:630   */\n          0x00\n            /* \"#utility.yul\":622:634   */\n          revert\n            /* \"#utility.yul\":769:891   */\n        tag_27:\n            /* \"#utility.yul\":842:866   */\n          tag_40\n            /* \"#utility.yul\":860:865   */\n          dup2\n            /* \"#utility.yul\":842:866   */\n          tag_22\n          jump\t// in\n        tag_40:\n            /* \"#utility.yul\":835:840   */\n          dup2\n            /* \"#utility.yul\":832:867   */\n          eq\n            /* \"#utility.yul\":822:885   */\n          tag_41\n          jumpi\n            /* \"#utility.yul\":881:882   */\n          0x00\n            /* \"#utility.yul\":878:879   */\n          0x00\n            /* \"#utility.yul\":871:883   */\n          revert\n            /* \"#utility.yul\":822:885   */\n        tag_41:\n            /* \"#utility.yul\":769:891   */\n          pop\n          jump\t// out\n            /* \"#utility.yul\":897:1036   */\n        tag_28:\n            /* \"#utility.yul\":943:948   */\n          0x00\n            /* \"#utility.yul\":981:987   */\n          dup2\n            /* \"#utility.yul\":968:988   */\n          calldataload\n            /* \"#utility.yul\":959:988   */\n          swap1\n          pop\n            /* \"#utility.yul\":997:1030   */\n          tag_43\n            /* \"#utility.yul\":1024:1029   */\n          dup2\n            /* \"#utility.yul\":997:1030   */\n          tag_27\n          jump\t// in\n        tag_43:\n            /* \"#utility.yul\":897:1036   */\n          swap3\n          swap2\n          pop\n          pop\n          jump\t// out\n            /* \"#utility.yul\":1042:1371   */\n        tag_12:\n            /* \"#utility.yul\":1101:1107   */\n          0x00\n            /* \"#utility.yul\":1150:1152   */\n          0x20\n            /* \"#utility.yul\":1138:1147   */\n          dup3\n            /* \"#utility.yul\":1129:1136   */\n          dup5\n            /* \"#utility.yul\":1125:1148   */\n          sub\n            /* \"#utility.yul\":1121:1153   */\n          slt\n            /* \"#utility.yul\":1118:1237   */\n          iszero\n          tag_45\n          jumpi\n            /* \"#utility.yul\":1156:1235   */\n          tag_46\n          tag_25\n          jump\t// in\n        tag_46:\n            /* \"#utility.yul\":1118:1237   */\n        tag_45:\n            /* \"#utility.yul\":1276:1277   */\n          0x00\n            /* \"#utility.yul\":1301:1354   */\n          tag_47\n            /* \"#utility.yul\":1346:1353   */\n          dup5\n            /* \"#utility.yul\":1337:1343   */\n          dup3\n            /* \"#utility.yul\":1326:1335   */\n          dup6\n            /* \"#utility.yul\":1322:1344   */\n          add\n            /* \"#utility.yul\":1301:1354   */\n          tag_28\n          jump\t// in\n        tag_47:\n            /* \"#utility.yul\":1291:1354   */\n          swap2\n          pop\n            /* \"#utility.yul\":1247:1364   */\n          pop\n            /* \"#utility.yul\":1042:1371   */\n          swap3\n          swap2\n          pop\n          pop\n          jump\t// out\n            /* \"#utility.yul\":1377:1557   */\n        tag_29:\n            /* \"#utility.yul\":1425:1502   */\n          0x4e487b7100000000000000000000000000000000000000000000000000000000\n            /* \"#utility.yul\":1422:1423   */\n          0x00\n            /* \"#utility.yul\":1415:1503   */\n          mstore\n            /* \"#utility.yul\":1522:1526   */\n          0x11\n            /* \"#utility.yul\":1519:1520   */\n          0x04\n            /* \"#utility.yul\":1512:1527   */\n          mstore\n            /* \"#utility.yul\":1546:1550   */\n          0x24\n            /* \"#utility.yul\":1543:1544   */\n          0x00\n            /* \"#utility.yul\":1536:1551   */\n          revert\n            /* \"#utility.yul\":1563:1754   */\n        tag_19:\n            /* \"#utility.yul\":1603:1606   */\n          0x00\n            /* \"#utility.yul\":1622:1642   */\n          tag_50\n            /* \"#utility.yul\":1640:1641   */\n          dup3\n            /* \"#utility.yul\":1622:1642   */\n          tag_22\n          jump\t// in\n        tag_50:\n            /* \"#utility.yul\":1617:1642   */\n          swap2\n          pop\n            /* \"#utility.yul\":1656:1676   */\n          tag_51\n            /* \"#utility.yul\":1674:1675   */\n          dup4\n            /* \"#utility.yul\":1656:1676   */\n          tag_22\n          jump\t// in\n        tag_51:\n            /* \"#utility.yul\":1651:1676   */\n          swap3\n          pop\n            /* \"#utility.yul\":1699:1700   */\n          dup3\n            /* \"#utility.yul\":1696:1697   */\n          dup3\n            /* \"#utility.yul\":1692:1701   */\n          add\n            /* \"#utility.yul\":1685:1701   */\n          swap1\n          pop\n            /* \"#utility.yul\":1720:1723   */\n          dup1\n            /* \"#utility.yul\":1717:1718   */\n          dup3\n            /* \"#utility.yul\":1714:1724   */\n          gt\n            /* \"#utility.yul\":1711:1747   */\n          iszero\n          tag_52\n          jumpi\n            /* \"#utility.yul\":1727:1745   */\n          tag_53\n          tag_29\n          jump\t// in\n        tag_53:\n            /* \"#utility.yul\":1711:1747   */\n        tag_52:\n            /* \"#utility.yul\":1563:1754   */\n          swap3\n          swap2\n          pop\n          pop\n          jump\t// out\n\n        auxdata: 0xa26469706673582212201a5d77f41e612417ce5ece4715d5093e7f116f9a70978a82b89c423cd503d05664736f6c634300081e0033\n    }\n\n    sub_1: assembly {\n            /* \"contracts/MultiLevelInheritance.sol\":129:247  contract ParentA{... */\n          mstore(0x40, 0x80)\n          callvalue\n          dup1\n          iszero\n          tag_1\n          jumpi\n          revert(0x00, 0x00)\n        tag_1:\n          pop\n          dataSize(sub_0)\n          dup1\n          dataOffset(sub_0)\n          0x00\n          codecopy\n          0x00\n          return\n        stop\n\n        sub_0: assembly {\n                /* \"contracts/MultiLevelInheritance.sol\":129:247  contract ParentA{... */\n              mstore(0x40, 0x80)\n              callvalue\n              dup1\n              iszero\n              tag_1\n              jumpi\n              revert(0x00, 0x00)\n            tag_1:\n              pop\n              jumpi(tag_2, lt(calldatasize, 0x04))\n              shr(0xe0, calldataload(0x00))\n              dup1\n              0x9320eb85\n              eq\n              tag_3\n              jumpi\n            tag_2:\n              revert(0x00, 0x00)\n                /* \"contracts/MultiLevelInheritance.sol\":176:244  function getAValue(uint _value)external{... */\n            tag_3:\n              tag_4\n              0x04\n              dup1\n              calldatasize\n              sub\n              dup2\n              add\n              swap1\n              tag_5\n              swap2\n              swap1\n              tag_6\n              jump\t// in\n            tag_5:\n              tag_7\n              jump\t// in\n            tag_4:\n              stop\n            tag_7:\n                /* \"contracts/MultiLevelInheritance.sol\":230:236  _value */\n              dup1\n                /* \"contracts/MultiLevelInheritance.sol\":226:227  a */\n              0x00\n                /* \"contracts/MultiLevelInheritance.sol\":226:236  a = _value */\n              dup2\n              swap1\n              sstore\n              pop\n                /* \"contracts/MultiLevelInheritance.sol\":176:244  function getAValue(uint _value)external{... */\n              pop\n              jump\t// out\n                /* \"#utility.yul\":88:205   */\n            tag_10:\n                /* \"#utility.yul\":197:198   */\n              0x00\n                /* \"#utility.yul\":194:195   */\n              0x00\n                /* \"#utility.yul\":187:199   */\n              revert\n                /* \"#utility.yul\":334:411   */\n            tag_12:\n                /* \"#utility.yul\":371:378   */\n              0x00\n                /* \"#utility.yul\":400:405   */\n              dup2\n                /* \"#utility.yul\":389:405   */\n              swap1\n              pop\n                /* \"#utility.yul\":334:411   */\n              swap2\n              swap1\n              pop\n              jump\t// out\n                /* \"#utility.yul\":417:539   */\n            tag_13:\n                /* \"#utility.yul\":490:514   */\n              tag_21\n                /* \"#utility.yul\":508:513   */\n              dup2\n                /* \"#utility.yul\":490:514   */\n              tag_12\n              jump\t// in\n            tag_21:\n                /* \"#utility.yul\":483:488   */\n              dup2\n                /* \"#utility.yul\":480:515   */\n              eq\n                /* \"#utility.yul\":470:533   */\n              tag_22\n              jumpi\n                /* \"#utility.yul\":529:530   */\n              0x00\n                /* \"#utility.yul\":526:527   */\n              0x00\n                /* \"#utility.yul\":519:531   */\n              revert\n                /* \"#utility.yul\":470:533   */\n            tag_22:\n                /* \"#utility.yul\":417:539   */\n              pop\n              jump\t// out\n                /* \"#utility.yul\":545:684   */\n            tag_14:\n                /* \"#utility.yul\":591:596   */\n              0x00\n                /* \"#utility.yul\":629:635   */\n              dup2\n                /* \"#utility.yul\":616:636   */\n              calldataload\n                /* \"#utility.yul\":607:636   */\n              swap1\n              pop\n                /* \"#utility.yul\":645:678   */\n              tag_24\n                /* \"#utility.yul\":672:677   */\n              dup2\n                /* \"#utility.yul\":645:678   */\n              tag_13\n              jump\t// in\n            tag_24:\n                /* \"#utility.yul\":545:684   */\n              swap3\n              swap2\n              pop\n              pop\n              jump\t// out\n                /* \"#utility.yul\":690:1019   */\n            tag_6:\n                /* \"#utility.yul\":749:755   */\n              0x00\n                /* \"#utility.yul\":798:800   */\n              0x20\n                /* \"#utility.yul\":786:795   */\n              dup3\n                /* \"#utility.yul\":777:784   */\n              dup5\n                /* \"#utility.yul\":773:796   */\n              sub\n                /* \"#utility.yul\":769:801   */\n              slt\n                /* \"#utility.yul\":766:885   */\n              iszero\n              tag_26\n              jumpi\n                /* \"#utility.yul\":804:883   */\n              tag_27\n              tag_10\n              jump\t// in\n            tag_27:\n                /* \"#utility.yul\":766:885   */\n            tag_26:\n                /* \"#utility.yul\":924:925   */\n              0x00\n                /* \"#utility.yul\":949:1002   */\n              tag_28\n                /* \"#utility.yul\":994:1001   */\n              dup5\n                /* \"#utility.yul\":985:991   */\n              dup3\n                /* \"#utility.yul\":974:983   */\n              dup6\n                /* \"#utility.yul\":970:992   */\n              add\n                /* \"#utility.yul\":949:1002   */\n              tag_14\n              jump\t// in\n            tag_28:\n                /* \"#utility.yul\":939:1002   */\n              swap2\n              pop\n                /* \"#utility.yul\":895:1012   */\n              pop\n                /* \"#utility.yul\":690:1019   */\n              swap3\n              swap2\n              pop\n              pop\n              jump\t// out\n\n            auxdata: 0xa2646970667358221220fed1ada1a341a9d3bbb3c21ccf17b5eea4ad049827c186624024fa1d800daaee64736f6c634300081e0033\n        }\n    }\n\n    sub_2: assembly {\n            /* \"contracts/MultiLevelInheritance.sol\":251:369  contract ParentB{... */\n          mstore(0x40, 0x80)\n          callvalue\n          dup1\n          iszero\n          tag_1\n          jumpi\n          revert(0x00, 0x00)\n        tag_1:\n          pop\n          dataSize(sub_0)\n          dup1\n          dataOffset(sub_0)\n          0x00\n          codecopy\n          0x00\n          return\n        stop\n\n        sub_0: assembly {\n                /* \"contracts/MultiLevelInheritance.sol\":251:369  contract ParentB{... */\n              mstore(0x40, 0x80)\n              callvalue\n              dup1\n              iszero\n              tag_1\n              jumpi\n              revert(0x00, 0x00)\n            tag_1:\n              pop\n              jumpi(tag_2, lt(calldatasize, 0x04))\n              shr(0xe0, calldataload(0x00))\n              dup1\n              0x79b77cd6\n              eq\n              tag_3\n              jumpi\n            tag_2:\n              revert(0x00, 0x00)\n                /* \"contracts/MultiLevelInheritance.sol\":298:366  function getBValue(uint _value)external{... */\n            tag_3:\n              tag_4\n              0x04\n              dup1\n              calldatasize\n              sub\n              dup2\n              add\n              swap1\n              tag_5\n              swap2\n              swap1\n              tag_6\n              jump\t// in\n            tag_5:\n              tag_7\n              jump\t// in\n            tag_4:\n              stop\n            tag_7:\n                /* \"contracts/MultiLevelInheritance.sol\":352:358  _value */\n              dup1\n                /* \"contracts/MultiLevelInheritance.sol\":348:349  b */\n              0x00\n                /* \"contracts/MultiLevelInheritance.sol\":348:358  b = _value */\n              dup2\n              swap1\n              sstore\n              pop\n                /* \"contracts/MultiLevelInheritance.sol\":298:366  function getBValue(uint _value)external{... */\n              pop\n              jump\t// out\n                /* \"#utility.yul\":88:205   */\n            tag_10:\n                /* \"#utility.yul\":197:198   */\n              0x00\n                /* \"#utility.yul\":194:195   */\n              0x00\n                /* \"#utility.yul\":187:199   */\n              revert\n                /* \"#utility.yul\":334:411   */\n            tag_12:\n                /* \"#utility.yul\":371:378   */\n              0x00\n                /* \"#utility.yul\":400:405   */\n              dup2\n                /* \"#utility.yul\":389:405   */\n              swap1\n              pop\n                /* \"#utility.yul\":334:411   */\n              swap2\n              swap1\n              pop\n              jump\t// out\n                /* \"#utility.yul\":417:539   */\n            tag_13:\n                /* \"#utility.yul\":490:514   */\n              tag_21\n                /* \"#utility.yul\":508:513   */\n              dup2\n                /* \"#utility.yul\":490:514   */\n              tag_12\n              jump\t// in\n            tag_21:\n                /* \"#utility.yul\":483:488   */\n              dup2\n                /* \"#utility.yul\":480:515   */\n              eq\n                /* \"#utility.yul\":470:533   */\n              tag_22\n              jumpi\n                /* \"#utility.yul\":529:530   */\n              0x00\n                /* \"#utility.yul\":526:527   */\n              0x00\n                /* \"#utility.yul\":519:531   */\n              revert\n                /* \"#utility.yul\":470:533   */\n            tag_22:\n                /* \"#utility.yul\":417:539   */\n              pop\n              jump\t// out\n                /* \"#utility.yul\":545:684   */\n            tag_14:\n                /* \"#utility.yul\":591:596   */\n              0x00\n                /* \"#utility.yul\":629:635   */\n              dup2\n                /* \"#utility.yul\":616:636   */\n              calldataload\n                /* \"#utility.yul\":607:636   */\n              swap1\n              pop\n                /* \"#utility.yul\":645:678   */\n              tag_24\n                /* \"#utility.yul\":672:677   */\n              dup2\n                /* \"#utility.yul\":645:678   */\n              tag_13\n              jump\t// in\n            tag_24:\n                /* \"#utility.yul\":545:684   */\n              swap3\n              swap2\n              pop\n              pop\n              jump\t// out\n                /* \"#utility.yul\":690:1019   */\n            tag_6:\n                /* \"#utility.yul\":749:755   */\n              0x00\n                /* \"#utility.yul\":798:800   */\n              0x20\n                /* \"#utility.yul\":786:795   */\n              dup3\n                /* \"#utility.yul\":777:784   */\n              dup5\n                /* \"#utility.yul\":773:796   */\n              sub\n                /* \"#utility.yul\":769:801   */\n              slt\n                /* \"#utility.yul\":766:885   */\n              iszero\n              tag_26\n              jumpi\n                /* \"#utility.yul\":804:883   */\n              tag_27\n              tag_10\n              jump\t// in\n            tag_27:\n                /* \"#utility.yul\":766:885   */\n            tag_26:\n                /* \"#utility.yul\":924:925   */\n              0x00\n                /* \"#utility.yul\":949:1002   */\n              tag_28\n                /* \"#utility.yul\":994:1001   */\n              dup5\n                /* \"#utility.yul\":985:991   */\n              dup3\n                /* \"#utility.yul\":974:983   */\n              dup6\n                /* \"#utility.yul\":970:992   */\n              add\n                /* \"#utility.yul\":949:1002   */\n              tag_14\n              jump\t// in\n            tag_28:\n                /* \"#utility.yul\":939:1002   */\n              swap2\n              pop\n                /* \"#utility.yul\":895:1012   */\n              pop\n                /* \"#utility.yul\":690:1019   */\n              swap3\n              swap2\n              pop\n              pop\n              jump\t// out\n\n            auxdata: 0xa2646970667358221220ea3afedea790298a51aba50c36969710fd3198fbbb9a2d1296256df80fccda7364736f6c634300081e0033\n        }\n    }\n}\n",
				"bytecode": {
					"linkReferences": {},
					"object": "6080604052604051600e906074565b604051809103905ff0801580156026573d5f5f3e3d5ffd5b505f5f6101000a81548173ffffffffffffffffffffffffffffffffffffffff021916908373ffffffffffffffffffffffffffffffffffffffff160217905550348015606f575f5ffd5b506081565b6104cb8061039583390190565b6103078061008e5f395ff3fe608060405234801561000f575f5ffd5b5060043610610029575f3560e01c8063569c5f6d1461002d575b5f5ffd5b61003561004b565b6040516100429190610204565b60405180910390f35b5f5f5f9054906101000a900473ffffffffffffffffffffffffffffffffffffffff1673ffffffffffffffffffffffffffffffffffffffff16639320eb8560166040518263ffffffff1660e01b81526004016100a6919061025f565b5f604051808303815f87803b1580156100bd575f5ffd5b505af11580156100cf573d5f5f3e3d5ffd5b505050505f5f9054906101000a900473ffffffffffffffffffffffffffffffffffffffff1673ffffffffffffffffffffffffffffffffffffffff166379b77cd660166040518263ffffffff1660e01b815260040161012d919061025f565b5f604051808303815f87803b158015610144575f5ffd5b505af1158015610156573d5f5f3e3d5ffd5b505050505f5f9054906101000a900473ffffffffffffffffffffffffffffffffffffffff1673ffffffffffffffffffffffffffffffffffffffff166304dda1b56040518163ffffffff1660e01b8152600401602060405180830381865afa1580156101c3573d5f5f3e3d5ffd5b505050506040513d601f19601f820116820180604052508101906101e791906102a6565b905090565b5f819050919050565b6101fe816101ec565b82525050565b5f6020820190506102175f8301846101f5565b92915050565b5f819050919050565b5f819050919050565b5f61024961024461023f8461021d565b610226565b6101ec565b9050919050565b6102598161022f565b82525050565b5f6020820190506102725f830184610250565b92915050565b5f5ffd5b610285816101ec565b811461028f575f5ffd5b50565b5f815190506102a08161027c565b92915050565b5f602082840312156102bb576102ba610278565b5b5f6102c884828501610292565b9150509291505056fea2646970667358221220eae61ddb9cf9a4538ac5c61ea68ccc3cf894f694abe960ad522326b326a598ef64736f6c634300081e00336080604052604051610010906100df565b604051809103905ff080158015610029573d5f5f3e3d5ffd5b5060025f6101000a81548173ffffffffffffffffffffffffffffffffffffffff021916908373ffffffffffffffffffffffffffffffffffffffff160217905550604051610075906100eb565b604051809103905ff08015801561008e573d5f5f3e3d5ffd5b5060035f6101000a81548173ffffffffffffffffffffffffffffffffffffffff021916908373ffffffffffffffffffffffffffffffffffffffff1602179055503480156100d9575f5ffd5b506100f7565b60f3806102e583390190565b60f3806103d883390190565b6101e1806101045f395ff3fe608060405234801561000f575f5ffd5b506004361061003f575f3560e01c806304dda1b51461004357806379b77cd6146100615780639320eb851461007d575b5f5ffd5b61004b610099565b60405161005891906100d9565b60405180910390f35b61007b60048036038101906100769190610120565b6100ae565b005b61009760048036038101906100929190610120565b6100b7565b005b5f5f546001546100a99190610178565b905090565b805f8190555050565b8060018190555050565b5f819050919050565b6100d3816100c1565b82525050565b5f6020820190506100ec5f8301846100ca565b92915050565b5f5ffd5b6100ff816100c1565b8114610109575f5ffd5b50565b5f8135905061011a816100f6565b92915050565b5f60208284031215610135576101346100f2565b5b5f6101428482850161010c565b91505092915050565b7f4e487b71000000000000000000000000000000000000000000000000000000005f52601160045260245ffd5b5f610182826100c1565b915061018d836100c1565b92508282019050808211156101a5576101a461014b565b5b9291505056fea26469706673582212201a5d77f41e612417ce5ece4715d5093e7f116f9a70978a82b89c423cd503d05664736f6c634300081e00336080604052348015600e575f5ffd5b5060d980601a5f395ff3fe6080604052348015600e575f5ffd5b50600436106026575f3560e01c80639320eb8514602a575b5f5ffd5b60406004803603810190603c9190607d565b6042565b005b805f8190555050565b5f5ffd5b5f819050919050565b605f81604f565b81146068575f5ffd5b50565b5f813590506077816058565b92915050565b5f60208284031215608f57608e604b565b5b5f609a84828501606b565b9150509291505056fea2646970667358221220fed1ada1a341a9d3bbb3c21ccf17b5eea4ad049827c186624024fa1d800daaee64736f6c634300081e00336080604052348015600e575f5ffd5b5060d980601a5f395ff3fe6080604052348015600e575f5ffd5b50600436106026575f3560e01c806379b77cd614602a575b5f5ffd5b60406004803603810190603c9190607d565b6042565b005b805f8190555050565b5f5ffd5b5f819050919050565b605f81604f565b81146068575f5ffd5b50565b5f813590506077816058565b92915050565b5f60208284031215608f57608e604b565b5b5f609a84828501606b565b9150509291505056fea2646970667358221220ea3afedea790298a51aba50c36969710fd3198fbbb9a2d1296256df80fccda7364736f6c634300081e0033",
					"opcodes": "PUSH1 0x80 PUSH1 0x40 MSTORE PUSH1 0x40 MLOAD PUSH1 0xE SWAP1 PUSH1 0x74 JUMP JUMPDEST PUSH1 0x40 MLOAD DUP1 SWAP2 SUB SWAP1 PUSH0 CREATE DUP1 ISZERO DUP1 ISZERO PUSH1 0x26 JUMPI RETURNDATASIZE PUSH0 PUSH0 RETURNDATACOPY RETURNDATASIZE PUSH0 REVERT JUMPDEST POP PUSH0 PUSH0 PUSH2 0x100 EXP DUP2 SLOAD DUP2 PUSH20 0xFFFFFFFFFFFFFFFFFFFFFFFFFFFFFFFFFFFFFFFF MUL NOT AND SWAP1 DUP4 PUSH20 0xFFFFFFFFFFFFFFFFFFFFFFFFFFFFFFFFFFFFFFFF AND MUL OR SWAP1 SSTORE POP CALLVALUE DUP1 ISZERO PUSH1 0x6F JUMPI PUSH0 PUSH0 REVERT JUMPDEST POP PUSH1 0x81 JUMP JUMPDEST PUSH2 0x4CB DUP1 PUSH2 0x395 DUP4 CODECOPY ADD SWAP1 JUMP JUMPDEST PUSH2 0x307 DUP1 PUSH2 0x8E PUSH0 CODECOPY PUSH0 RETURN INVALID PUSH1 0x80 PUSH1 0x40 MSTORE CALLVALUE DUP1 ISZERO PUSH2 0xF JUMPI PUSH0 PUSH0 REVERT JUMPDEST POP PUSH1 0x4 CALLDATASIZE LT PUSH2 0x29 JUMPI PUSH0 CALLDATALOAD PUSH1 0xE0 SHR DUP1 PUSH4 0x569C5F6D EQ PUSH2 0x2D JUMPI JUMPDEST PUSH0 PUSH0 REVERT JUMPDEST PUSH2 0x35 PUSH2 0x4B JUMP JUMPDEST PUSH1 0x40 MLOAD PUSH2 0x42 SWAP2 SWAP1 PUSH2 0x204 JUMP JUMPDEST PUSH1 0x40 MLOAD DUP1 SWAP2 SUB SWAP1 RETURN JUMPDEST PUSH0 PUSH0 PUSH0 SWAP1 SLOAD SWAP1 PUSH2 0x100 EXP SWAP1 DIV PUSH20 0xFFFFFFFFFFFFFFFFFFFFFFFFFFFFFFFFFFFFFFFF AND PUSH20 0xFFFFFFFFFFFFFFFFFFFFFFFFFFFFFFFFFFFFFFFF AND PUSH4 0x9320EB85 PUSH1 0x16 PUSH1 0x40 MLOAD DUP3 PUSH4 0xFFFFFFFF AND PUSH1 0xE0 SHL DUP2 MSTORE PUSH1 0x4 ADD PUSH2 0xA6 SWAP2 SWAP1 PUSH2 0x25F JUMP JUMPDEST PUSH0 PUSH1 0x40 MLOAD DUP1 DUP4 SUB DUP2 PUSH0 DUP8 DUP1 EXTCODESIZE ISZERO DUP1 ISZERO PUSH2 0xBD JUMPI PUSH0 PUSH0 REVERT JUMPDEST POP GAS CALL ISZERO DUP1 ISZERO PUSH2 0xCF JUMPI RETURNDATASIZE PUSH0 PUSH0 RETURNDATACOPY RETURNDATASIZE PUSH0 REVERT JUMPDEST POP POP POP POP PUSH0 PUSH0 SWAP1 SLOAD SWAP1 PUSH2 0x100 EXP SWAP1 DIV PUSH20 0xFFFFFFFFFFFFFFFFFFFFFFFFFFFFFFFFFFFFFFFF AND PUSH20 0xFFFFFFFFFFFFFFFFFFFFFFFFFFFFFFFFFFFFFFFF AND PUSH4 0x79B77CD6 PUSH1 0x16 PUSH1 0x40 MLOAD DUP3 PUSH4 0xFFFFFFFF AND PUSH1 0xE0 SHL DUP2 MSTORE PUSH1 0x4 ADD PUSH2 0x12D SWAP2 SWAP1 PUSH2 0x25F JUMP JUMPDEST PUSH0 PUSH1 0x40 MLOAD DUP1 DUP4 SUB DUP2 PUSH0 DUP8 DUP1 EXTCODESIZE ISZERO DUP1 ISZERO PUSH2 0x144 JUMPI PUSH0 PUSH0 REVERT JUMPDEST POP GAS CALL ISZERO DUP1 ISZERO PUSH2 0x156 JUMPI RETURNDATASIZE PUSH0 PUSH0 RETURNDATACOPY RETURNDATASIZE PUSH0 REVERT JUMPDEST POP POP POP POP PUSH0 PUSH0 SWAP1 SLOAD SWAP1 PUSH2 0x100 EXP SWAP1 DIV PUSH20 0xFFFFFFFFFFFFFFFFFFFFFFFFFFFFFFFFFFFFFFFF AND PUSH20 0xFFFFFFFFFFFFFFFFFFFFFFFFFFFFFFFFFFFFFFFF AND PUSH4 0x4DDA1B5 PUSH1 0x40 MLOAD DUP2 PUSH4 0xFFFFFFFF AND PUSH1 0xE0 SHL DUP2 MSTORE PUSH1 0x4 ADD PUSH1 0x20 PUSH1 0x40 MLOAD DUP1 DUP4 SUB DUP2 DUP7 GAS STATICCALL ISZERO DUP1 ISZERO PUSH2 0x1C3 JUMPI RETURNDATASIZE PUSH0 PUSH0 RETURNDATACOPY RETURNDATASIZE PUSH0 REVERT JUMPDEST POP POP POP POP PUSH1 0x40 MLOAD RETURNDATASIZE PUSH1 0x1F NOT PUSH1 0x1F DUP3 ADD AND DUP3 ADD DUP1 PUSH1 0x40 MSTORE POP DUP2 ADD SWAP1 PUSH2 0x1E7 SWAP2 SWAP1 PUSH2 0x2A6 JUMP JUMPDEST SWAP1 POP SWAP1 JUMP JUMPDEST PUSH0 DUP2 SWAP1 POP SWAP2 SWAP1 POP JUMP JUMPDEST PUSH2 0x1FE DUP2 PUSH2 0x1EC JUMP JUMPDEST DUP3 MSTORE POP POP JUMP JUMPDEST PUSH0 PUSH1 0x20 DUP3 ADD SWAP1 POP PUSH2 0x217 PUSH0 DUP4 ADD DUP5 PUSH2 0x1F5 JUMP JUMPDEST SWAP3 SWAP2 POP POP JUMP JUMPDEST PUSH0 DUP2 SWAP1 POP SWAP2 SWAP1 POP JUMP JUMPDEST PUSH0 DUP2 SWAP1 POP SWAP2 SWAP1 POP JUMP JUMPDEST PUSH0 PUSH2 0x249 PUSH2 0x244 PUSH2 0x23F DUP5 PUSH2 0x21D JUMP JUMPDEST PUSH2 0x226 JUMP JUMPDEST PUSH2 0x1EC JUMP JUMPDEST SWAP1 POP SWAP2 SWAP1 POP JUMP JUMPDEST PUSH2 0x259 DUP2 PUSH2 0x22F JUMP JUMPDEST DUP3 MSTORE POP POP JUMP JUMPDEST PUSH0 PUSH1 0x20 DUP3 ADD SWAP1 POP PUSH2 0x272 PUSH0 DUP4 ADD DUP5 PUSH2 0x250 JUMP JUMPDEST SWAP3 SWAP2 POP POP JUMP JUMPDEST PUSH0 PUSH0 REVERT JUMPDEST PUSH2 0x285 DUP2 PUSH2 0x1EC JUMP JUMPDEST DUP2 EQ PUSH2 0x28F JUMPI PUSH0 PUSH0 REVERT JUMPDEST POP JUMP JUMPDEST PUSH0 DUP2 MLOAD SWAP1 POP PUSH2 0x2A0 DUP2 PUSH2 0x27C JUMP JUMPDEST SWAP3 SWAP2 POP POP JUMP JUMPDEST PUSH0 PUSH1 0x20 DUP3 DUP5 SUB SLT ISZERO PUSH2 0x2BB JUMPI PUSH2 0x2BA PUSH2 0x278 JUMP JUMPDEST JUMPDEST PUSH0 PUSH2 0x2C8 DUP5 DUP3 DUP6 ADD PUSH2 0x292 JUMP JUMPDEST SWAP2 POP POP SWAP3 SWAP2 POP POP JUMP INVALID LOG2 PUSH5 0x6970667358 0x22 SLT KECCAK256 0xEA DUPN 0x1D 0xDB SWAP13 EXTDELEGATECALL LOG4 MSTORE8 DUP11 0xC5 0xC6 0x1E 0xA6 DUP13 0xCC EXTCODECOPY EXTCALL SWAP5 0xF6 SWAP5 0xAB 0xE9 PUSH1 0xAD MSTORE 0x23 0x26 0xB3 0x26 0xA5 SWAP9 0xEF PUSH5 0x736F6C6343 STOP ADDMOD 0x1E STOP CALLER PUSH1 0x80 PUSH1 0x40 MSTORE PUSH1 0x40 MLOAD PUSH2 0x10 SWAP1 PUSH2 0xDF JUMP JUMPDEST PUSH1 0x40 MLOAD DUP1 SWAP2 SUB SWAP1 PUSH0 CREATE DUP1 ISZERO DUP1 ISZERO PUSH2 0x29 JUMPI RETURNDATASIZE PUSH0 PUSH0 RETURNDATACOPY RETURNDATASIZE PUSH0 REVERT JUMPDEST POP PUSH1 0x2 PUSH0 PUSH2 0x100 EXP DUP2 SLOAD DUP2 PUSH20 0xFFFFFFFFFFFFFFFFFFFFFFFFFFFFFFFFFFFFFFFF MUL NOT AND SWAP1 DUP4 PUSH20 0xFFFFFFFFFFFFFFFFFFFFFFFFFFFFFFFFFFFFFFFF AND MUL OR SWAP1 SSTORE POP PUSH1 0x40 MLOAD PUSH2 0x75 SWAP1 PUSH2 0xEB JUMP JUMPDEST PUSH1 0x40 MLOAD DUP1 SWAP2 SUB SWAP1 PUSH0 CREATE DUP1 ISZERO DUP1 ISZERO PUSH2 0x8E JUMPI RETURNDATASIZE PUSH0 PUSH0 RETURNDATACOPY RETURNDATASIZE PUSH0 REVERT JUMPDEST POP PUSH1 0x3 PUSH0 PUSH2 0x100 EXP DUP2 SLOAD DUP2 PUSH20 0xFFFFFFFFFFFFFFFFFFFFFFFFFFFFFFFFFFFFFFFF MUL NOT AND SWAP1 DUP4 PUSH20 0xFFFFFFFFFFFFFFFFFFFFFFFFFFFFFFFFFFFFFFFF AND MUL OR SWAP1 SSTORE POP CALLVALUE DUP1 ISZERO PUSH2 0xD9 JUMPI PUSH0 PUSH0 REVERT JUMPDEST POP PUSH2 0xF7 JUMP JUMPDEST PUSH1 0xF3 DUP1 PUSH2 0x2E5 DUP4 CODECOPY ADD SWAP1 JUMP JUMPDEST PUSH1 0xF3 DUP1 PUSH2 0x3D8 DUP4 CODECOPY ADD SWAP1 JUMP JUMPDEST PUSH2 0x1E1 DUP1 PUSH2 0x104 PUSH0 CODECOPY PUSH0 RETURN INVALID PUSH1 0x80 PUSH1 0x40 MSTORE CALLVALUE DUP1 ISZERO PUSH2 0xF JUMPI PUSH0 PUSH0 REVERT JUMPDEST POP PUSH1 0x4 CALLDATASIZE LT PUSH2 0x3F JUMPI PUSH0 CALLDATALOAD PUSH1 0xE0 SHR DUP1 PUSH4 0x4DDA1B5 EQ PUSH2 0x43 JUMPI DUP1 PUSH4 0x79B77CD6 EQ PUSH2 0x61 JUMPI DUP1 PUSH4 0x9320EB85 EQ PUSH2 0x7D JUMPI JUMPDEST PUSH0 PUSH0 REVERT JUMPDEST PUSH2 0x4B PUSH2 0x99 JUMP JUMPDEST PUSH1 0x40 MLOAD PUSH2 0x58 SWAP2 SWAP1 PUSH2 0xD9 JUMP JUMPDEST PUSH1 0x40 MLOAD DUP1 SWAP2 SUB SWAP1 RETURN JUMPDEST PUSH2 0x7B PUSH1 0x4 DUP1 CALLDATASIZE SUB DUP2 ADD SWAP1 PUSH2 0x76 SWAP2 SWAP1 PUSH2 0x120 JUMP JUMPDEST PUSH2 0xAE JUMP JUMPDEST STOP JUMPDEST PUSH2 0x97 PUSH1 0x4 DUP1 CALLDATASIZE SUB DUP2 ADD SWAP1 PUSH2 0x92 SWAP2 SWAP1 PUSH2 0x120 JUMP JUMPDEST PUSH2 0xB7 JUMP JUMPDEST STOP JUMPDEST PUSH0 PUSH0 SLOAD PUSH1 0x1 SLOAD PUSH2 0xA9 SWAP2 SWAP1 PUSH2 0x178 JUMP JUMPDEST SWAP1 POP SWAP1 JUMP JUMPDEST DUP1 PUSH0 DUP2 SWAP1 SSTORE POP POP JUMP JUMPDEST DUP1 PUSH1 0x1 DUP2 SWAP1 SSTORE POP POP JUMP JUMPDEST PUSH0 DUP2 SWAP1 POP SWAP2 SWAP1 POP JUMP JUMPDEST PUSH2 0xD3 DUP2 PUSH2 0xC1 JUMP JUMPDEST DUP3 MSTORE POP POP JUMP JUMPDEST PUSH0 PUSH1 0x20 DUP3 ADD SWAP1 POP PUSH2 0xEC PUSH0 DUP4 ADD DUP5 PUSH2 0xCA JUMP JUMPDEST SWAP3 SWAP2 POP POP JUMP JUMPDEST PUSH0 PUSH0 REVERT JUMPDEST PUSH2 0xFF DUP2 PUSH2 0xC1 JUMP JUMPDEST DUP2 EQ PUSH2 0x109 JUMPI PUSH0 PUSH0 REVERT JUMPDEST POP JUMP JUMPDEST PUSH0 DUP2 CALLDATALOAD SWAP1 POP PUSH2 0x11A DUP2 PUSH2 0xF6 JUMP JUMPDEST SWAP3 SWAP2 POP POP JUMP JUMPDEST PUSH0 PUSH1 0x20 DUP3 DUP5 SUB SLT ISZERO PUSH2 0x135 JUMPI PUSH2 0x134 PUSH2 0xF2 JUMP JUMPDEST JUMPDEST PUSH0 PUSH2 0x142 DUP5 DUP3 DUP6 ADD PUSH2 0x10C JUMP JUMPDEST SWAP2 POP POP SWAP3 SWAP2 POP POP JUMP JUMPDEST PUSH32 0x4E487B7100000000000000000000000000000000000000000000000000000000 PUSH0 MSTORE PUSH1 0x11 PUSH1 0x4 MSTORE PUSH1 0x24 PUSH0 REVERT JUMPDEST PUSH0 PUSH2 0x182 DUP3 PUSH2 0xC1 JUMP JUMPDEST SWAP2 POP PUSH2 0x18D DUP4 PUSH2 0xC1 JUMP JUMPDEST SWAP3 POP DUP3 DUP3 ADD SWAP1 POP DUP1 DUP3 GT ISZERO PUSH2 0x1A5 JUMPI PUSH2 0x1A4 PUSH2 0x14B JUMP JUMPDEST JUMPDEST SWAP3 SWAP2 POP POP JUMP INVALID LOG2 PUSH5 0x6970667358 0x22 SLT KECCAK256 BYTE TSTORE PUSH24 0xF41E612417CE5ECE4715D5093E7F116F9A70978A82B89C42 EXTCODECOPY 0xD5 SUB 0xD0 JUMP PUSH5 0x736F6C6343 STOP ADDMOD 0x1E STOP CALLER PUSH1 0x80 PUSH1 0x40 MSTORE CALLVALUE DUP1 ISZERO PUSH1 0xE JUMPI PUSH0 PUSH0 REVERT JUMPDEST POP PUSH1 0xD9 DUP1 PUSH1 0x1A PUSH0 CODECOPY PUSH0 RETURN INVALID PUSH1 0x80 PUSH1 0x40 MSTORE CALLVALUE DUP1 ISZERO PUSH1 0xE JUMPI PUSH0 PUSH0 REVERT JUMPDEST POP PUSH1 0x4 CALLDATASIZE LT PUSH1 0x26 JUMPI PUSH0 CALLDATALOAD PUSH1 0xE0 SHR DUP1 PUSH4 0x9320EB85 EQ PUSH1 0x2A JUMPI JUMPDEST PUSH0 PUSH0 REVERT JUMPDEST PUSH1 0x40 PUSH1 0x4 DUP1 CALLDATASIZE SUB DUP2 ADD SWAP1 PUSH1 0x3C SWAP2 SWAP1 PUSH1 0x7D JUMP JUMPDEST PUSH1 0x42 JUMP JUMPDEST STOP JUMPDEST DUP1 PUSH0 DUP2 SWAP1 SSTORE POP POP JUMP JUMPDEST PUSH0 PUSH0 REVERT JUMPDEST PUSH0 DUP2 SWAP1 POP SWAP2 SWAP1 POP JUMP JUMPDEST PUSH1 0x5F DUP2 PUSH1 0x4F JUMP JUMPDEST DUP2 EQ PUSH1 0x68 JUMPI PUSH0 PUSH0 REVERT JUMPDEST POP JUMP JUMPDEST PUSH0 DUP2 CALLDATALOAD SWAP1 POP PUSH1 0x77 DUP2 PUSH1 0x58 JUMP JUMPDEST SWAP3 SWAP2 POP POP JUMP JUMPDEST PUSH0 PUSH1 0x20 DUP3 DUP5 SUB SLT ISZERO PUSH1 0x8F JUMPI PUSH1 0x8E PUSH1 0x4B JUMP JUMPDEST JUMPDEST PUSH0 PUSH1 0x9A DUP5 DUP3 DUP6 ADD PUSH1 0x6B JUMP JUMPDEST SWAP2 POP POP SWAP3 SWAP2 POP POP JUMP INVALID LOG2 PUSH5 0x6970667358 0x22 SLT KECCAK256 INVALID DATALOADN 0xADA1 LOG3 COINBASE 0xA9 0xD3 0xBB 0xB3 0xC2 SHR 0xCF OR 0xB5 RETURNCONTRACT 0xA4 0xAD DIV SWAP9 0x27 0xC1 DUP7 PUSH3 0x4024FA SAR DUP1 0xD 0xAA RETURNCONTRACT 0x64 PUSH20 0x6F6C634300081E00336080604052348015600E57 PUSH0 PUSH0 REVERT JUMPDEST POP PUSH1 0xD9 DUP1 PUSH1 0x1A PUSH0 CODECOPY PUSH0 RETURN INVALID PUSH1 0x80 PUSH1 0x40 MSTORE CALLVALUE DUP1 ISZERO PUSH1 0xE JUMPI PUSH0 PUSH0 REVERT JUMPDEST POP PUSH1 0x4 CALLDATASIZE LT PUSH1 0x26 JUMPI PUSH0 CALLDATALOAD PUSH1 0xE0 SHR DUP1 PUSH4 0x79B77CD6 EQ PUSH1 0x2A JUMPI JUMPDEST PUSH0 PUSH0 REVERT JUMPDEST PUSH1 0x40 PUSH1 0x4 DUP1 CALLDATASIZE SUB DUP2 ADD SWAP1 PUSH1 0x3C SWAP2 SWAP1 PUSH1 0x7D JUMP JUMPDEST PUSH1 0x42 JUMP JUMPDEST STOP JUMPDEST DUP1 PUSH0 DUP2 SWAP1 SSTORE POP POP JUMP JUMPDEST PUSH0 PUSH0 REVERT JUMPDEST PUSH0 DUP2 SWAP1 POP SWAP2 SWAP1 POP JUMP JUMPDEST PUSH1 0x5F DUP2 PUSH1 0x4F JUMP JUMPDEST DUP2 EQ PUSH1 0x68 JUMPI PUSH0 PUSH0 REVERT JUMPDEST POP JUMP JUMPDEST PUSH0 DUP2 CALLDATALOAD SWAP1 POP PUSH1 0x77 DUP2 PUSH1 0x58 JUMP JUMPDEST SWAP3 SWAP2 POP POP JUMP JUMPDEST PUSH0 PUSH1 0x20 DUP3 DUP5 SUB SLT ISZERO PUSH1 0x8F JUMPI PUSH1 0x8E PUSH1 0x4B JUMP JUMPDEST JUMPDEST PUSH0 PUSH1 0x9A DUP5 DUP3 DUP6 ADD PUSH1 0x6B JUMP JUMPDEST SWAP2 POP POP SWAP3 SWAP2 POP POP JUMP INVALID LOG2 PUSH5 0x6970667358 0x22 SLT KECCAK256 0xEA GASPRICE INVALID 0xDE 0xA7 SWAP1 0x29 DUP11 MLOAD 0xAB 0xA5 0xC CALLDATASIZE SWAP7 SWAP8 LT REVERT BALANCE SWAP9 EXTSTATICCALL 0xBB SWAP11 0x2D SLT SWAP7 0x25 PUSH14 0xF80FCCDA7364736F6C634300081E STOP CALLER "
				},
				"gasEstimates": {
					"creation": {
						"codeDepositCost": "155000",
						"executionCost": "infinite",
						"totalCost": "infinite"
					},
					"external": {
						"getSum()": "infinite"
					}
				},
				"methodIdentifiers": {
					"getSum()": "569c5f6d"
				}
			},
			"storageLayout": {
				"storage": [
					{
						"astId": 64,
						"contract": "contracts/MultiLevelInheritance.sol:caller",
						"label": "C",
						"offset": 0,
						"slot": "0",
						"type": "t_contract(ParentC)57"
					}
				],
				"types": {
					"t_contract(ParentC)57": {
						"encoding": "inplace",
						"label": "contract ParentC",
						"numberOfBytes": "20"
					}
				}
			},
			"userdoc": {
				"kind": "user",
				"methods": {},
				"version": 1
			}
		}
	}
}