{
	"data": {
		"bytecode": {
			"linkReferences": {},
			"object": "6080604052348015600e575f5ffd5b506102b28061001c5f395ff3fe608060405260043610610028575f3560e01c80630849cc991461002c5780630ef95ecd14610056575b5f5ffd5b348015610037575f5ffd5b50610040610074565b60405161004d91906101a5565b60405180910390f35b61005e61007c565b60405161006b9190610263565b60405180910390f35b5f6007905090565b610084610110565b6040518060e00160405280600a815260200160148152602001601e81526020016028815260200160328152602001603c815260200160468152505f9060076100cd929190610132565b505f600780602002604051908101604052809291908260078015610106576020028201915b8154815260200190600101908083116100f2575b5050505050905090565b6040518060e00160405280600790602082028036833780820191505090505090565b8260078101928215610161579160200282015b82811115610160578251825591602001919060010190610145565b5b50905061016e9190610172565b5090565b5b80821115610189575f815f905550600101610173565b5090565b5f819050919050565b61019f8161018d565b82525050565b5f6020820190506101b85f830184610196565b92915050565b5f60079050919050565b5f81905092915050565b5f819050919050565b6101e48161018d565b82525050565b5f6101f583836101db565b60208301905092915050565b5f602082019050919050565b610216816101be565b61022081846101c8565b925061022b826101d2565b805f5b8381101561025b57815161024287826101ea565b965061024d83610201565b92505060018101905061022e565b505050505050565b5f60e0820190506102765f83018461020d565b9291505056fea26469706673582212202d56c210af0ab571a08fbfc169619dba01b3e8702492573433a7f4ca5f3ae1a864736f6c634300081e0033",
			"opcodes": "PUSH1 0x80 PUSH1 0x40 MSTORE CALLVALUE DUP1 ISZERO PUSH1 0xE JUMPI PUSH0 PUSH0 REVERT JUMPDEST POP PUSH2 0x2B2 DUP1 PUSH2 0x1C PUSH0 CODECOPY PUSH0 RETURN INVALID PUSH1 0x80 PUSH1 0x40 MSTORE PUSH1 0x4 CALLDATASIZE LT PUSH2 0x28 JUMPI PUSH0 CALLDATALOAD PUSH1 0xE0 SHR DUP1 PUSH4 0x849CC99 EQ PUSH2 0x2C JUMPI DUP1 PUSH4 0xEF95ECD EQ PUSH2 0x56 JUMPI JUMPDEST PUSH0 PUSH0 REVERT JUMPDEST CALLVALUE DUP1 ISZERO PUSH2 0x37 JUMPI PUSH0 PUSH0 REVERT JUMPDEST POP PUSH2 0x40 PUSH2 0x74 JUMP JUMPDEST PUSH1 0x40 MLOAD PUSH2 0x4D SWAP2 SWAP1 PUSH2 0x1A5 JUMP JUMPDEST PUSH1 0x40 MLOAD DUP1 SWAP2 SUB SWAP1 RETURN JUMPDEST PUSH2 0x5E PUSH2 0x7C JUMP JUMPDEST PUSH1 0x40 MLOAD PUSH2 0x6B SWAP2 SWAP1 PUSH2 0x263 JUMP JUMPDEST PUSH1 0x40 MLOAD DUP1 SWAP2 SUB SWAP1 RETURN JUMPDEST PUSH0 PUSH1 0x7 SWAP1 POP SWAP1 JUMP JUMPDEST PUSH2 0x84 PUSH2 0x110 JUMP JUMPDEST PUSH1 0x40 MLOAD DUP1 PUSH1 0xE0 ADD PUSH1 0x40 MSTORE DUP1 PUSH1 0xA DUP2 MSTORE PUSH1 0x20 ADD PUSH1 0x14 DUP2 MSTORE PUSH1 0x20 ADD PUSH1 0x1E DUP2 MSTORE PUSH1 0x20 ADD PUSH1 0x28 DUP2 MSTORE PUSH1 0x20 ADD PUSH1 0x32 DUP2 MSTORE PUSH1 0x20 ADD PUSH1 0x3C DUP2 MSTORE PUSH1 0x20 ADD PUSH1 0x46 DUP2 MSTORE POP PUSH0 SWAP1 PUSH1 0x7 PUSH2 0xCD SWAP3 SWAP2 SWAP1 PUSH2 0x132 JUMP JUMPDEST POP PUSH0 PUSH1 0x7 DUP1 PUSH1 0x20 MUL PUSH1 0x40 MLOAD SWAP1 DUP2 ADD PUSH1 0x40 MSTORE DUP1 SWAP3 SWAP2 SWAP1 DUP3 PUSH1 0x7 DUP1 ISZERO PUSH2 0x106 JUMPI PUSH1 0x20 MUL DUP3 ADD SWAP2 JUMPDEST DUP2 SLOAD DUP2 MSTORE PUSH1 0x20 ADD SWAP1 PUSH1 0x1 ADD SWAP1 DUP1 DUP4 GT PUSH2 0xF2 JUMPI JUMPDEST POP POP POP POP POP SWAP1 POP SWAP1 JUMP JUMPDEST PUSH1 0x40 MLOAD DUP1 PUSH1 0xE0 ADD PUSH1 0x40 MSTORE DUP1 PUSH1 0x7 SWAP1 PUSH1 0x20 DUP3 MUL DUP1 CALLDATASIZE DUP4 CALLDATACOPY DUP1 DUP3 ADD SWAP2 POP POP SWAP1 POP POP SWAP1 JUMP JUMPDEST DUP3 PUSH1 0x7 DUP2 ADD SWAP3 DUP3 ISZERO PUSH2 0x161 JUMPI SWAP2 PUSH1 0x20 MUL DUP3 ADD JUMPDEST DUP3 DUP2 GT ISZERO PUSH2 0x160 JUMPI DUP3 MLOAD DUP3 SSTORE SWAP2 PUSH1 0x20 ADD SWAP2 SWAP1 PUSH1 0x1 ADD SWAP1 PUSH2 0x145 JUMP JUMPDEST JUMPDEST POP SWAP1 POP PUSH2 0x16E SWAP2 SWAP1 PUSH2 0x172 JUMP JUMPDEST POP SWAP1 JUMP JUMPDEST JUMPDEST DUP1 DUP3 GT ISZERO PUSH2 0x189 JUMPI PUSH0 DUP2 PUSH0 SWAP1 SSTORE POP PUSH1 0x1 ADD PUSH2 0x173 JUMP JUMPDEST POP SWAP1 JUMP JUMPDEST PUSH0 DUP2 SWAP1 POP SWAP2 SWAP1 POP JUMP JUMPDEST PUSH2 0x19F DUP2 PUSH2 0x18D JUMP JUMPDEST DUP3 MSTORE POP POP JUMP JUMPDEST PUSH0 PUSH1 0x20 DUP3 ADD SWAP1 POP PUSH2 0x1B8 PUSH0 DUP4 ADD DUP5 PUSH2 0x196 JUMP JUMPDEST SWAP3 SWAP2 POP POP JUMP JUMPDEST PUSH0 PUSH1 0x7 SWAP1 POP SWAP2 SWAP1 POP JUMP JUMPDEST PUSH0 DUP2 SWAP1 POP SWAP3 SWAP2 POP POP JUMP JUMPDEST PUSH0 DUP2 SWAP1 POP SWAP2 SWAP1 POP JUMP JUMPDEST PUSH2 0x1E4 DUP2 PUSH2 0x18D JUMP JUMPDEST DUP3 MSTORE POP POP JUMP JUMPDEST PUSH0 PUSH2 0x1F5 DUP4 DUP4 PUSH2 0x1DB JUMP JUMPDEST PUSH1 0x20 DUP4 ADD SWAP1 POP SWAP3 SWAP2 POP POP JUMP JUMPDEST PUSH0 PUSH1 0x20 DUP3 ADD SWAP1 POP SWAP2 SWAP1 POP JUMP JUMPDEST PUSH2 0x216 DUP2 PUSH2 0x1BE JUMP JUMPDEST PUSH2 0x220 DUP2 DUP5 PUSH2 0x1C8 JUMP JUMPDEST SWAP3 POP PUSH2 0x22B DUP3 PUSH2 0x1D2 JUMP JUMPDEST DUP1 PUSH0 JUMPDEST DUP4 DUP2 LT ISZERO PUSH2 0x25B JUMPI DUP2 MLOAD PUSH2 0x242 DUP8 DUP3 PUSH2 0x1EA JUMP JUMPDEST SWAP7 POP PUSH2 0x24D DUP4 PUSH2 0x201 JUMP JUMPDEST SWAP3 POP POP PUSH1 0x1 DUP2 ADD SWAP1 POP PUSH2 0x22E JUMP JUMPDEST POP POP POP POP POP POP JUMP JUMPDEST PUSH0 PUSH1 0xE0 DUP3 ADD SWAP1 POP PUSH2 0x276 PUSH0 DUP4 ADD DUP5 PUSH2 0x20D JUMP JUMPDEST SWAP3 SWAP2 POP POP JUMP INVALID LOG2 PUSH5 0x6970667358 0x22 SLT KECCAK256 0x2D JUMP 0xC2 LT 0xAF EXP 0xB5 PUSH18 0xA08FBFC169619DBA01B3E8702492573433A7 DELEGATECALL 0xCA PUSH0 GASPRICE RJUMPI 0xA864 PUSH20 0x6F6C634300081E00330000000000000000000000 "
		},
		"gasEstimates": {
			"creation": {
				"codeDepositCost": "138000",
				"executionCost": "181",
				"totalCost": "138181"
			},
			"external": {
				"arrayExample()": "infinite",
				"getArrayLength()": "310"
			}
		},
		"methodIdentifiers": {
			"arrayExample()": "0ef95ecd",
			"getArrayLength()": "0849cc99"
		}
	},
	"abi": [
		{
			"inputs": [],
			"name": "arrayExample",
			"outputs": [
				{
					"internalType": "uint256[7]",
					"name": "",
					"type": "uint256[7]"
				}
			],
			"stateMutability": "payable",
			"type": "function"
		},
		{
			"inputs": [],
			"name": "getArrayLength",
			"outputs": [
				{
					"internalType": "uint256",
					"name": "",
					"type": "uint256"
				}
			],
			"stateMutability": "view",
			"type": "function"
		}
	]
}