{
	"data": {
		"bytecode": {
			"linkReferences": {},
			"object": "6080604052348015600e575f5ffd5b50606a80601a5f395ff3fe6080604052348015600e575f5ffd5b50600436106026575f3560e01c8063a5283ec514602a575b5f5ffd5b60306032565b005b56fea2646970667358221220cb19cff1b3e404c0c0fb148332c3df23335c271f33b93e57146729e5724f2f0464736f6c634300081e0033",
			"opcodes": "PUSH1 0x80 PUSH1 0x40 MSTORE CALLVALUE DUP1 ISZERO PUSH1 0xE JUMPI PUSH0 PUSH0 REVERT JUMPDEST POP PUSH1 0x6A DUP1 PUSH1 0x1A PUSH0 CODECOPY PUSH0 RETURN INVALID PUSH1 0x80 PUSH1 0x40 MSTORE CALLVALUE DUP1 ISZERO PUSH1 0xE JUMPI PUSH0 PUSH0 REVERT JUMPDEST POP PUSH1 0x4 CALLDATASIZE LT PUSH1 0x26 JUMPI PUSH0 CALLDATALOAD PUSH1 0xE0 SHR DUP1 PUSH4 0xA5283EC5 EQ PUSH1 0x2A JUMPI JUMPDEST PUSH0 PUSH0 REVERT JUMPDEST PUSH1 0x30 PUSH1 0x32 JUMP JUMPDEST STOP JUMPDEST JUMP INVALID LOG2 PUSH5 0x6970667358 0x22 SLT KECCAK256 0xCB NOT 0xCF CALL 0xB3 RETF DIV 0xC0 0xC0 EXTSTATICCALL EQ DUP4 ORIGIN 0xC3 0xDF 0x23 CALLER TLOAD 0x27 0x1F CALLER 0xB9 RETURNDATACOPY JUMPI EQ PUSH8 0x29E5724F2F046473 PUSH16 0x6C634300081E00330000000000000000 "
		},
		"gasEstimates": {
			"creation": {
				"codeDepositCost": "21200",
				"executionCost": "73",
				"totalCost": "21273"
			},
			"external": {
				"thisFunction()": "121"
			}
		},
		"methodIdentifiers": {
			"thisFunction()": "a5283ec5"
		}
	},
	"abi": [
		{
			"inputs": [],
			"name": "thisFunction",
			"outputs": [],
			"stateMutability": "pure",
			"type": "function"
		}
	]
}