{
	"data": {
		"bytecode": {
			"linkReferences": {},
			"object": "6080604052600b5f553480156012575f5ffd5b5060bf80601e5f395ff3fe6080604052348015600e575f5ffd5b50600436106026575f3560e01c8063a5283ec514602a575b5f5ffd5b60306044565b604051603b91906072565b60405180910390f35b5f5f601490505f549050602c5f819055508091505090565b5f819050919050565b606c81605c565b82525050565b5f60208201905060835f8301846065565b9291505056fea26469706673582212205388e98ca6293a75e885caf7f7f04421d0245149e6303cada2972cc1756e67df64736f6c634300081e0033",
			"opcodes": "PUSH1 0x80 PUSH1 0x40 MSTORE PUSH1 0xB PUSH0 SSTORE CALLVALUE DUP1 ISZERO PUSH1 0x12 JUMPI PUSH0 PUSH0 REVERT JUMPDEST POP PUSH1 0xBF DUP1 PUSH1 0x1E PUSH0 CODECOPY PUSH0 RETURN INVALID PUSH1 0x80 PUSH1 0x40 MSTORE CALLVALUE DUP1 ISZERO PUSH1 0xE JUMPI PUSH0 PUSH0 REVERT JUMPDEST POP PUSH1 0x4 CALLDATASIZE LT PUSH1 0x26 JUMPI PUSH0 CALLDATALOAD PUSH1 0xE0 SHR DUP1 PUSH4 0xA5283EC5 EQ PUSH1 0x2A JUMPI JUMPDEST PUSH0 PUSH0 REVERT JUMPDEST PUSH1 0x30 PUSH1 0x44 JUMP JUMPDEST PUSH1 0x40 MLOAD PUSH1 0x3B SWAP2 SWAP1 PUSH1 0x72 JUMP JUMPDEST PUSH1 0x40 MLOAD DUP1 SWAP2 SUB SWAP1 RETURN JUMPDEST PUSH0 PUSH0 PUSH1 0x14 SWAP1 POP PUSH0 SLOAD SWAP1 POP PUSH1 0x2C PUSH0 DUP2 SWAP1 SSTORE POP DUP1 SWAP2 POP POP SWAP1 JUMP JUMPDEST PUSH0 DUP2 SWAP1 POP SWAP2 SWAP1 POP JUMP JUMPDEST PUSH1 0x6C DUP2 PUSH1 0x5C JUMP JUMPDEST DUP3 MSTORE POP POP JUMP JUMPDEST PUSH0 PUSH1 0x20 DUP3 ADD SWAP1 POP PUSH1 0x83 PUSH0 DUP4 ADD DUP5 PUSH1 0x65 JUMP JUMPDEST SWAP3 SWAP2 POP POP JUMP INVALID LOG2 PUSH5 0x6970667358 0x22 SLT KECCAK256 MSTORE8 DUP9 0xE9 DUP13 0xA6 0x29 GASPRICE PUSH22 0xE885CAF7F7F04421D0245149E6303CADA2972CC1756E PUSH8 0xDF64736F6C634300 ADDMOD 0x1E STOP CALLER "
		},
		"gasEstimates": {
			"creation": {
				"codeDepositCost": "38200",
				"executionCost": "22190",
				"totalCost": "60390"
			},
			"external": {
				"thisFunction()": "24542"
			}
		},
		"methodIdentifiers": {
			"thisFunction()": "a5283ec5"
		}
	},
	"abi": [
		{
			"inputs": [],
			"name": "thisFunction",
			"outputs": [
				{
					"internalType": "uint256",
					"name": "",
					"type": "uint256"
				}
			],
			"stateMutability": "nonpayable",
			"type": "function"
		}
	]
}