{
	"data": {
		"bytecode": {
			"linkReferences": {},
			"object": "608060405234801561001057600080fd5b5061010d806100206000396000f3fe6080604052348015600f57600080fd5b506004361060285760003560e01c806365ae7f5914602d575b600080fd5b60336047565b604051603e9190605d565b60405180910390f35b60006001905090565b6057816087565b82525050565b6000602082019050607060008301846050565b92915050565b600081905060828260c6565b919050565b60006090826076565b9050919050565b7f4e487b7100000000000000000000000000000000000000000000000000000000600052602160045260246000fd5b6003811060d45760d36097565b5b5056fea26469706673582212204dd1bc8a2a464f3edc0091b609554e40205f421aa436ec40b5fcd092a4c3046764736f6c63430008030033",
			"opcodes": "PUSH1 0x80 PUSH1 0x40 MSTORE CALLVALUE DUP1 ISZERO PUSH2 0x10 JUMPI PUSH1 0x0 DUP1 REVERT JUMPDEST POP PUSH2 0x10D DUP1 PUSH2 0x20 PUSH1 0x0 CODECOPY PUSH1 0x0 RETURN INVALID PUSH1 0x80 PUSH1 0x40 MSTORE CALLVALUE DUP1 ISZERO PUSH1 0xF JUMPI PUSH1 0x0 DUP1 REVERT JUMPDEST POP PUSH1 0x4 CALLDATASIZE LT PUSH1 0x28 JUMPI PUSH1 0x0 CALLDATALOAD PUSH1 0xE0 SHR DUP1 PUSH4 0x65AE7F59 EQ PUSH1 0x2D JUMPI JUMPDEST PUSH1 0x0 DUP1 REVERT JUMPDEST PUSH1 0x33 PUSH1 0x47 JUMP JUMPDEST PUSH1 0x40 MLOAD PUSH1 0x3E SWAP2 SWAP1 PUSH1 0x5D JUMP JUMPDEST PUSH1 0x40 MLOAD DUP1 SWAP2 SUB SWAP1 RETURN JUMPDEST PUSH1 0x0 PUSH1 0x1 SWAP1 POP SWAP1 JUMP JUMPDEST PUSH1 0x57 DUP2 PUSH1 0x87 JUMP JUMPDEST DUP3 MSTORE POP POP JUMP JUMPDEST PUSH1 0x0 PUSH1 0x20 DUP3 ADD SWAP1 POP PUSH1 0x70 PUSH1 0x0 DUP4 ADD DUP5 PUSH1 0x50 JUMP JUMPDEST SWAP3 SWAP2 POP POP JUMP JUMPDEST PUSH1 0x0 DUP2 SWAP1 POP PUSH1 0x82 DUP3 PUSH1 0xC6 JUMP JUMPDEST SWAP2 SWAP1 POP JUMP JUMPDEST PUSH1 0x0 PUSH1 0x90 DUP3 PUSH1 0x76 JUMP JUMPDEST SWAP1 POP SWAP2 SWAP1 POP JUMP JUMPDEST PUSH32 0x4E487B7100000000000000000000000000000000000000000000000000000000 PUSH1 0x0 MSTORE PUSH1 0x21 PUSH1 0x4 MSTORE PUSH1 0x24 PUSH1 0x0 REVERT JUMPDEST PUSH1 0x3 DUP2 LT PUSH1 0xD4 JUMPI PUSH1 0xD3 PUSH1 0x97 JUMP JUMPDEST JUMPDEST POP JUMP INVALID LOG2 PUSH5 0x6970667358 0x22 SLT KECCAK256 0x4D 0xD1 0xBC DUP11 0x2A CHAINID 0x4F RETURNDATACOPY 0xDC STOP SWAP2 0xB6 MULMOD SSTORE 0x4E BLOCKHASH KECCAK256 0x5F TIMESTAMP BYTE LOG4 CALLDATASIZE 0xEC BLOCKHASH 0xB5 0xFC 0xD0 SWAP3 LOG4 0xC3 DIV PUSH8 0x64736F6C63430008 SUB STOP CALLER "
		},
		"gasEstimates": {
			"creation": {
				"codeDepositCost": "53800",
				"executionCost": "105",
				"totalCost": "53905"
			},
			"external": {
				"getEnumData()": "410"
			}
		},
		"methodIdentifiers": {
			"getEnumData()": "65ae7f59"
		}
	},
	"abi": [
		{
			"inputs": [],
			"name": "getEnumData",
			"outputs": [
				{
					"internalType": "enum MyEnum.Jobs",
					"name": "",
					"type": "uint8"
				}
			],
			"stateMutability": "pure",
			"type": "function"
		}
	]
}